{
	"contracts/vote (2).sol": {
		"VotingContract": {
			"abi": [
				{
					"inputs": [],
					"stateMutability": "nonpayable",
					"type": "constructor"
				},
				{
					"inputs": [
						{
							"internalType": "string",
							"name": "_candidateName",
							"type": "string"
						}
					],
					"name": "getCandidateVotes",
					"outputs": [
						{
							"internalType": "uint256",
							"name": "",
							"type": "uint256"
						}
					],
					"stateMutability": "view",
					"type": "function"
				},
				{
					"inputs": [],
					"name": "getCandidates",
					"outputs": [
						{
							"internalType": "string[]",
							"name": "",
							"type": "string[]"
						}
					],
					"stateMutability": "view",
					"type": "function"
				},
				{
					"inputs": [],
					"name": "getVoteResult",
					"outputs": [
						{
							"internalType": "string",
							"name": "",
							"type": "string"
						}
					],
					"stateMutability": "view",
					"type": "function"
				},
				{
					"inputs": [],
					"name": "owner",
					"outputs": [
						{
							"internalType": "address",
							"name": "",
							"type": "address"
						}
					],
					"stateMutability": "view",
					"type": "function"
				},
				{
					"inputs": [
						{
							"internalType": "string",
							"name": "_candidateName",
							"type": "string"
						},
						{
							"internalType": "uint256",
							"name": "_age",
							"type": "uint256"
						},
						{
							"internalType": "string",
							"name": "_candidateId",
							"type": "string"
						}
					],
					"name": "representate",
					"outputs": [],
					"stateMutability": "nonpayable",
					"type": "function"
				},
				{
					"inputs": [
						{
							"internalType": "string",
							"name": "_candidateName",
							"type": "string"
						}
					],
					"name": "vote",
					"outputs": [],
					"stateMutability": "nonpayable",
					"type": "function"
				},
				{
					"inputs": [],
					"name": "winner",
					"outputs": [
						{
							"internalType": "string",
							"name": "",
							"type": "string"
						}
					],
					"stateMutability": "view",
					"type": "function"
				}
			],
			"devdoc": {
				"kind": "dev",
				"methods": {},
				"version": 1
			},
			"evm": {
				"assembly": "    /* \"contracts/vote (2).sol\":67:3735  contract VotingContract {... */\n  mstore(0x40, 0x80)\n    /* \"contracts/vote (2).sol\":488:582  constructor() {... */\n  callvalue\n  dup1\n  iszero\n  tag_1\n  jumpi\n  0x00\n  dup1\n  revert\ntag_1:\n  pop\n    /* \"contracts/vote (2).sol\":564:574  msg.sender */\n  caller\n    /* \"contracts/vote (2).sol\":556:561  owner */\n  0x00\n  dup1\n    /* \"contracts/vote (2).sol\":556:574  owner = msg.sender */\n  0x0100\n  exp\n  dup2\n  sload\n  dup2\n  0xffffffffffffffffffffffffffffffffffffffff\n  mul\n  not\n  and\n  swap1\n  dup4\n  0xffffffffffffffffffffffffffffffffffffffff\n  and\n  mul\n  or\n  swap1\n  sstore\n  pop\n    /* \"contracts/vote (2).sol\":67:3735  contract VotingContract {... */\n  dataSize(sub_0)\n  dup1\n  dataOffset(sub_0)\n  0x00\n  codecopy\n  0x00\n  return\nstop\n\nsub_0: assembly {\n        /* \"contracts/vote (2).sol\":67:3735  contract VotingContract {... */\n      mstore(0x40, 0x80)\n      callvalue\n      dup1\n      iszero\n      tag_1\n      jumpi\n      0x00\n      dup1\n      revert\n    tag_1:\n      pop\n      jumpi(tag_2, lt(calldatasize, 0x04))\n      shr(0xe0, calldataload(0x00))\n      dup1\n      0xc9f14e18\n      gt\n      tag_10\n      jumpi\n      dup1\n      0xc9f14e18\n      eq\n      tag_6\n      jumpi\n      dup1\n      0xdfbf53ae\n      eq\n      tag_7\n      jumpi\n      dup1\n      0xe962414f\n      eq\n      tag_8\n      jumpi\n      dup1\n      0xfc36e15b\n      eq\n      tag_9\n      jumpi\n      jump(tag_2)\n    tag_10:\n      dup1\n      0x06a49fce\n      eq\n      tag_3\n      jumpi\n      dup1\n      0x8742fc3b\n      eq\n      tag_4\n      jumpi\n      dup1\n      0x8da5cb5b\n      eq\n      tag_5\n      jumpi\n    tag_2:\n      0x00\n      dup1\n      revert\n        /* \"contracts/vote (2).sol\":1083:1180  function getCandidates() public view returns (string[] memory) {... */\n    tag_3:\n      tag_11\n      tag_12\n      jump\t// in\n    tag_11:\n      mload(0x40)\n      tag_13\n      swap2\n      swap1\n      tag_14\n      jump\t// in\n    tag_13:\n      mload(0x40)\n      dup1\n      swap2\n      sub\n      swap1\n      return\n        /* \"contracts/vote (2).sol\":1987:2374  function getVoteResult() public view returns(string memory) {... */\n    tag_4:\n      tag_15\n      tag_16\n      jump\t// in\n    tag_15:\n      mload(0x40)\n      tag_17\n      swap2\n      swap1\n      tag_18\n      jump\t// in\n    tag_17:\n      mload(0x40)\n      dup1\n      swap2\n      sub\n      swap1\n      return\n        /* \"contracts/vote (2).sol\":130:150  address public owner */\n    tag_5:\n      tag_19\n      tag_20\n      jump\t// in\n    tag_19:\n      mload(0x40)\n      tag_21\n      swap2\n      swap1\n      tag_22\n      jump\t// in\n    tag_21:\n      mload(0x40)\n      dup1\n      swap2\n      sub\n      swap1\n      return\n        /* \"contracts/vote (2).sol\":638:1049  function representate(string memory _candidateName, uint _age, string memory _candidateId) public {... */\n    tag_6:\n      tag_23\n      0x04\n      dup1\n      calldatasize\n      sub\n      dup2\n      add\n      swap1\n      tag_24\n      swap2\n      swap1\n      tag_25\n      jump\t// in\n    tag_24:\n      tag_26\n      jump\t// in\n    tag_23:\n      stop\n        /* \"contracts/vote (2).sol\":2995:3732  function winner() public view returns (string memory) {... */\n    tag_7:\n      tag_27\n      tag_28\n      jump\t// in\n    tag_27:\n      mload(0x40)\n      tag_29\n      swap2\n      swap1\n      tag_18\n      jump\t// in\n    tag_29:\n      mload(0x40)\n      dup1\n      swap2\n      sub\n      swap1\n      return\n        /* \"contracts/vote (2).sol\":1818:1956  function getCandidateVotes(string memory _candidateName) public view returns (uint) {... */\n    tag_8:\n      tag_30\n      0x04\n      dup1\n      calldatasize\n      sub\n      dup2\n      add\n      swap1\n      tag_31\n      swap2\n      swap1\n      tag_32\n      jump\t// in\n    tag_31:\n      tag_33\n      jump\t// in\n    tag_30:\n      mload(0x40)\n      tag_34\n      swap2\n      swap1\n      tag_35\n      jump\t// in\n    tag_34:\n      mload(0x40)\n      dup1\n      swap2\n      sub\n      swap1\n      return\n        /* \"contracts/vote (2).sol\":1208:1318  function vote(string memory _candidateName) public onlyOnce {... */\n    tag_9:\n      tag_36\n      0x04\n      dup1\n      calldatasize\n      sub\n      dup2\n      add\n      swap1\n      tag_37\n      swap2\n      swap1\n      tag_32\n      jump\t// in\n    tag_37:\n      tag_38\n      jump\t// in\n    tag_36:\n      stop\n        /* \"contracts/vote (2).sol\":1083:1180  function getCandidates() public view returns (string[] memory) {... */\n    tag_12:\n        /* \"contracts/vote (2).sol\":1129:1144  string[] memory */\n      0x60\n        /* \"contracts/vote (2).sol\":1163:1173  candidates */\n      0x03\n        /* \"contracts/vote (2).sol\":1156:1173  return candidates */\n      dup1\n      sload\n      dup1\n      0x20\n      mul\n      0x20\n      add\n      mload(0x40)\n      swap1\n      dup2\n      add\n      0x40\n      mstore\n      dup1\n      swap3\n      swap2\n      swap1\n      dup2\n      dup2\n      mstore\n      0x20\n      add\n      0x00\n      swap1\n    tag_40:\n      dup3\n      dup3\n      lt\n      iszero\n      tag_41\n      jumpi\n      dup4\n      dup3\n      swap1\n      0x00\n      mstore\n      keccak256(0x00, 0x20)\n      add\n      dup1\n      sload\n      tag_43\n      swap1\n      tag_44\n      jump\t// in\n    tag_43:\n      dup1\n      0x1f\n      add\n      0x20\n      dup1\n      swap2\n      div\n      mul\n      0x20\n      add\n      mload(0x40)\n      swap1\n      dup2\n      add\n      0x40\n      mstore\n      dup1\n      swap3\n      swap2\n      swap1\n      dup2\n      dup2\n      mstore\n      0x20\n      add\n      dup3\n      dup1\n      sload\n      tag_45\n      swap1\n      tag_44\n      jump\t// in\n    tag_45:\n      dup1\n      iszero\n      tag_46\n      jumpi\n      dup1\n      0x1f\n      lt\n      tag_47\n      jumpi\n      0x0100\n      dup1\n      dup4\n      sload\n      div\n      mul\n      dup4\n      mstore\n      swap2\n      0x20\n      add\n      swap2\n      jump(tag_46)\n    tag_47:\n      dup3\n      add\n      swap2\n      swap1\n      0x00\n      mstore\n      keccak256(0x00, 0x20)\n      swap1\n    tag_48:\n      dup2\n      sload\n      dup2\n      mstore\n      swap1\n      0x01\n      add\n      swap1\n      0x20\n      add\n      dup1\n      dup4\n      gt\n      tag_48\n      jumpi\n      dup3\n      swap1\n      sub\n      0x1f\n      and\n      dup3\n      add\n      swap2\n    tag_46:\n      pop\n      pop\n      pop\n      pop\n      pop\n      dup2\n      mstore\n      0x20\n      add\n      swap1\n      0x01\n      add\n      swap1\n      jump(tag_40)\n    tag_41:\n      pop\n      pop\n      pop\n      pop\n      swap1\n      pop\n        /* \"contracts/vote (2).sol\":1083:1180  function getCandidates() public view returns (string[] memory) {... */\n      swap1\n      jump\t// out\n        /* \"contracts/vote (2).sol\":1987:2374  function getVoteResult() public view returns(string memory) {... */\n    tag_16:\n        /* \"contracts/vote (2).sol\":2032:2045  string memory */\n      0x60\n        /* \"contracts/vote (2).sol\":2092:2113  string memory _result */\n      0x00\n        /* \"contracts/vote (2).sol\":2092:2118  string memory _result = \"\" */\n      mload(0x40)\n      dup1\n      0x20\n      add\n      0x40\n      mstore\n      dup1\n      0x00\n      dup2\n      mstore\n      pop\n      swap1\n      pop\n        /* \"contracts/vote (2).sol\":2156:2162  uint i */\n      0x00\n        /* \"contracts/vote (2).sol\":2152:2342  for(uint i = 0; i < candidates.length; i++) {... */\n    tag_50:\n        /* \"contracts/vote (2).sol\":2172:2182  candidates */\n      0x03\n        /* \"contracts/vote (2).sol\":2172:2189  candidates.length */\n      dup1\n      sload\n      swap1\n      pop\n        /* \"contracts/vote (2).sol\":2168:2169  i */\n      dup2\n        /* \"contracts/vote (2).sol\":2168:2189  i < candidates.length */\n      lt\n        /* \"contracts/vote (2).sol\":2152:2342  for(uint i = 0; i < candidates.length; i++) {... */\n      iszero\n      tag_51\n      jumpi\n        /* \"contracts/vote (2).sol\":2244:2251  _result */\n      dup2\n        /* \"contracts/vote (2).sol\":2259:2269  candidates */\n      0x03\n        /* \"contracts/vote (2).sol\":2270:2271  i */\n      dup3\n        /* \"contracts/vote (2).sol\":2259:2272  candidates[i] */\n      dup2\n      sload\n      dup2\n      lt\n      tag_53\n      jumpi\n      tag_54\n      tag_55\n      jump\t// in\n    tag_54:\n    tag_53:\n      swap1\n      0x00\n      mstore\n      keccak256(0x00, 0x20)\n      add\n        /* \"contracts/vote (2).sol\":2280:2322  uint2str(getCandidateVotes(candidates[i])) */\n      tag_57\n        /* \"contracts/vote (2).sol\":2289:2321  getCandidateVotes(candidates[i]) */\n      tag_58\n        /* \"contracts/vote (2).sol\":2307:2317  candidates */\n      0x03\n        /* \"contracts/vote (2).sol\":2318:2319  i */\n      dup6\n        /* \"contracts/vote (2).sol\":2307:2320  candidates[i] */\n      dup2\n      sload\n      dup2\n      lt\n      tag_59\n      jumpi\n      tag_60\n      tag_55\n      jump\t// in\n    tag_60:\n    tag_59:\n      swap1\n      0x00\n      mstore\n      keccak256(0x00, 0x20)\n      add\n        /* \"contracts/vote (2).sol\":2289:2321  getCandidateVotes(candidates[i]) */\n      dup1\n      sload\n      tag_62\n      swap1\n      tag_44\n      jump\t// in\n    tag_62:\n      dup1\n      0x1f\n      add\n      0x20\n      dup1\n      swap2\n      div\n      mul\n      0x20\n      add\n      mload(0x40)\n      swap1\n      dup2\n      add\n      0x40\n      mstore\n      dup1\n      swap3\n      swap2\n      swap1\n      dup2\n      dup2\n      mstore\n      0x20\n      add\n      dup3\n      dup1\n      sload\n      tag_63\n      swap1\n      tag_44\n      jump\t// in\n    tag_63:\n      dup1\n      iszero\n      tag_64\n      jumpi\n      dup1\n      0x1f\n      lt\n      tag_65\n      jumpi\n      0x0100\n      dup1\n      dup4\n      sload\n      div\n      mul\n      dup4\n      mstore\n      swap2\n      0x20\n      add\n      swap2\n      jump(tag_64)\n    tag_65:\n      dup3\n      add\n      swap2\n      swap1\n      0x00\n      mstore\n      keccak256(0x00, 0x20)\n      swap1\n    tag_66:\n      dup2\n      sload\n      dup2\n      mstore\n      swap1\n      0x01\n      add\n      swap1\n      0x20\n      add\n      dup1\n      dup4\n      gt\n      tag_66\n      jumpi\n      dup3\n      swap1\n      sub\n      0x1f\n      and\n      dup3\n      add\n      swap2\n    tag_64:\n      pop\n      pop\n      pop\n      pop\n      pop\n        /* \"contracts/vote (2).sol\":2289:2306  getCandidateVotes */\n      tag_33\n        /* \"contracts/vote (2).sol\":2289:2321  getCandidateVotes(candidates[i]) */\n      jump\t// in\n    tag_58:\n        /* \"contracts/vote (2).sol\":2280:2288  uint2str */\n      tag_67\n        /* \"contracts/vote (2).sol\":2280:2322  uint2str(getCandidateVotes(candidates[i])) */\n      jump\t// in\n    tag_57:\n        /* \"contracts/vote (2).sol\":2227:2330  abi.encodePacked(_result, \"( \", candidates[i], \", \", uint2str(getCandidateVotes(candidates[i])), \" ) \") */\n      add(0x20, mload(0x40))\n      tag_68\n      swap4\n      swap3\n      swap2\n      swap1\n      tag_69\n      jump\t// in\n    tag_68:\n      mload(0x40)\n      0x20\n      dup2\n      dup4\n      sub\n      sub\n      dup2\n      mstore\n      swap1\n      0x40\n      mstore\n        /* \"contracts/vote (2).sol\":2210:2331  _result = string(abi.encodePacked(_result, \"( \", candidates[i], \", \", uint2str(getCandidateVotes(candidates[i])), \" ) \")) */\n      swap2\n      pop\n        /* \"contracts/vote (2).sol\":2191:2194  i++ */\n      dup1\n      dup1\n      tag_70\n      swap1\n      tag_71\n      jump\t// in\n    tag_70:\n      swap2\n      pop\n      pop\n        /* \"contracts/vote (2).sol\":2152:2342  for(uint i = 0; i < candidates.length; i++) {... */\n      jump(tag_50)\n    tag_51:\n      pop\n        /* \"contracts/vote (2).sol\":2359:2366  _result */\n      dup1\n        /* \"contracts/vote (2).sol\":2352:2366  return _result */\n      swap2\n      pop\n      pop\n        /* \"contracts/vote (2).sol\":1987:2374  function getVoteResult() public view returns(string memory) {... */\n      swap1\n      jump\t// out\n        /* \"contracts/vote (2).sol\":130:150  address public owner */\n    tag_20:\n      0x00\n      dup1\n      sload\n      swap1\n      0x0100\n      exp\n      swap1\n      div\n      0xffffffffffffffffffffffffffffffffffffffff\n      and\n      dup2\n      jump\t// out\n        /* \"contracts/vote (2).sol\":638:1049  function representate(string memory _candidateName, uint _age, string memory _candidateId) public {... */\n    tag_26:\n        /* \"contracts/vote (2).sol\":785:807  bytes32 _candidateHash */\n      0x00\n        /* \"contracts/vote (2).sol\":837:851  _candidateName */\n      dup4\n        /* \"contracts/vote (2).sol\":853:857  _age */\n      dup4\n        /* \"contracts/vote (2).sol\":859:871  _candidateId */\n      dup4\n        /* \"contracts/vote (2).sol\":820:872  abi.encodePacked(_candidateName, _age, _candidateId) */\n      add(0x20, mload(0x40))\n      tag_73\n      swap4\n      swap3\n      swap2\n      swap1\n      tag_74\n      jump\t// in\n    tag_73:\n      mload(0x40)\n      0x20\n      dup2\n      dup4\n      sub\n      sub\n      dup2\n      mstore\n      swap1\n      0x40\n      mstore\n        /* \"contracts/vote (2).sol\":810:873  keccak256(abi.encodePacked(_candidateName, _age, _candidateId)) */\n      dup1\n      mload\n      swap1\n      0x20\n      add\n      keccak256\n        /* \"contracts/vote (2).sol\":785:873  bytes32 _candidateHash = keccak256(abi.encodePacked(_candidateName, _age, _candidateId)) */\n      swap1\n      pop\n        /* \"contracts/vote (2).sol\":949:963  _candidateHash */\n      dup1\n        /* \"contracts/vote (2).sol\":919:930  candidateId */\n      0x01\n        /* \"contracts/vote (2).sol\":931:945  _candidateName */\n      dup6\n        /* \"contracts/vote (2).sol\":919:946  candidateId[_candidateName] */\n      mload(0x40)\n      tag_75\n      swap2\n      swap1\n      tag_76\n      jump\t// in\n    tag_75:\n      swap1\n      dup2\n      mstore\n      0x20\n      add\n      mload(0x40)\n      dup1\n      swap2\n      sub\n      swap1\n      keccak256\n        /* \"contracts/vote (2).sol\":919:963  candidateId[_candidateName] = _candidateHash */\n      dup2\n      swap1\n      sstore\n      pop\n        /* \"contracts/vote (2).sol\":1010:1020  candidates */\n      0x03\n        /* \"contracts/vote (2).sol\":1026:1040  _candidateName */\n      dup5\n        /* \"contracts/vote (2).sol\":1010:1041  candidates.push(_candidateName) */\n      swap1\n      dup1\n      0x01\n      dup2\n      sload\n      add\n      dup1\n      dup3\n      sstore\n      dup1\n      swap2\n      pop\n      pop\n      0x01\n      swap1\n      sub\n      swap1\n      0x00\n      mstore\n      keccak256(0x00, 0x20)\n      add\n      0x00\n      swap1\n      swap2\n      swap1\n      swap2\n      swap1\n      swap2\n      pop\n      swap1\n      dup2\n      tag_78\n      swap2\n      swap1\n      tag_79\n      jump\t// in\n    tag_78:\n      pop\n        /* \"contracts/vote (2).sol\":736:1049  {... */\n      pop\n        /* \"contracts/vote (2).sol\":638:1049  function representate(string memory _candidateName, uint _age, string memory _candidateId) public {... */\n      pop\n      pop\n      pop\n      jump\t// out\n        /* \"contracts/vote (2).sol\":2995:3732  function winner() public view returns (string memory) {... */\n    tag_28:\n        /* \"contracts/vote (2).sol\":3034:3047  string memory */\n      0x60\n        /* \"contracts/vote (2).sol\":3088:3089  0 */\n      0x00\n        /* \"contracts/vote (2).sol\":3068:3078  candidates */\n      0x03\n        /* \"contracts/vote (2).sol\":3068:3085  candidates.length */\n      dup1\n      sload\n      swap1\n      pop\n        /* \"contracts/vote (2).sol\":3068:3089  candidates.length > 0 */\n      gt\n        /* \"contracts/vote (2).sol\":3060:3116  require(candidates.length > 0, \"Not enough candidates.\") */\n      tag_81\n      jumpi\n      mload(0x40)\n      0x08c379a000000000000000000000000000000000000000000000000000000000\n      dup2\n      mstore\n      0x04\n      add\n      tag_82\n      swap1\n      tag_83\n      jump\t// in\n    tag_82:\n      mload(0x40)\n      dup1\n      swap2\n      sub\n      swap1\n      revert\n    tag_81:\n        /* \"contracts/vote (2).sol\":3169:3190  string memory _winner */\n      0x00\n        /* \"contracts/vote (2).sol\":3193:3203  candidates */\n      0x03\n        /* \"contracts/vote (2).sol\":3204:3205  0 */\n      0x00\n        /* \"contracts/vote (2).sol\":3193:3206  candidates[0] */\n      dup2\n      sload\n      dup2\n      lt\n      tag_84\n      jumpi\n      tag_85\n      tag_55\n      jump\t// in\n    tag_85:\n    tag_84:\n      swap1\n      0x00\n      mstore\n      keccak256(0x00, 0x20)\n      add\n        /* \"contracts/vote (2).sol\":3169:3206  string memory _winner = candidates[0] */\n      dup1\n      sload\n      tag_87\n      swap1\n      tag_44\n      jump\t// in\n    tag_87:\n      dup1\n      0x1f\n      add\n      0x20\n      dup1\n      swap2\n      div\n      mul\n      0x20\n      add\n      mload(0x40)\n      swap1\n      dup2\n      add\n      0x40\n      mstore\n      dup1\n      swap3\n      swap2\n      swap1\n      dup2\n      dup2\n      mstore\n      0x20\n      add\n      dup3\n      dup1\n      sload\n      tag_88\n      swap1\n      tag_44\n      jump\t// in\n    tag_88:\n      dup1\n      iszero\n      tag_89\n      jumpi\n      dup1\n      0x1f\n      lt\n      tag_90\n      jumpi\n      0x0100\n      dup1\n      dup4\n      sload\n      div\n      mul\n      dup4\n      mstore\n      swap2\n      0x20\n      add\n      swap2\n      jump(tag_89)\n    tag_90:\n      dup3\n      add\n      swap2\n      swap1\n      0x00\n      mstore\n      keccak256(0x00, 0x20)\n      swap1\n    tag_91:\n      dup2\n      sload\n      dup2\n      mstore\n      swap1\n      0x01\n      add\n      swap1\n      0x20\n      add\n      dup1\n      dup4\n      gt\n      tag_91\n      jumpi\n      dup3\n      swap1\n      sub\n      0x1f\n      and\n      dup3\n      add\n      swap2\n    tag_89:\n      pop\n      pop\n      pop\n      pop\n      pop\n      swap1\n      pop\n        /* \"contracts/vote (2).sol\":3239:3248  bool flag */\n      0x00\n        /* \"contracts/vote (2).sol\":3264:3270  uint i */\n      dup1\n        /* \"contracts/vote (2).sol\":3273:3274  1 */\n      0x01\n        /* \"contracts/vote (2).sol\":3264:3274  uint i = 1 */\n      swap1\n      pop\n        /* \"contracts/vote (2).sol\":3259:3593  for (uint i = 1; i < candidates.length; i++) {... */\n    tag_92:\n        /* \"contracts/vote (2).sol\":3280:3290  candidates */\n      0x03\n        /* \"contracts/vote (2).sol\":3280:3297  candidates.length */\n      dup1\n      sload\n      swap1\n      pop\n        /* \"contracts/vote (2).sol\":3276:3277  i */\n      dup2\n        /* \"contracts/vote (2).sol\":3276:3297  i < candidates.length */\n      lt\n        /* \"contracts/vote (2).sol\":3259:3593  for (uint i = 1; i < candidates.length; i++) {... */\n      iszero\n      tag_93\n      jumpi\n        /* \"contracts/vote (2).sol\":3355:3369  candidateVotes */\n      0x02\n        /* \"contracts/vote (2).sol\":3370:3377  _winner */\n      dup4\n        /* \"contracts/vote (2).sol\":3355:3378  candidateVotes[_winner] */\n      mload(0x40)\n      tag_95\n      swap2\n      swap1\n      tag_76\n      jump\t// in\n    tag_95:\n      swap1\n      dup2\n      mstore\n      0x20\n      add\n      mload(0x40)\n      dup1\n      swap2\n      sub\n      swap1\n      keccak256\n      sload\n        /* \"contracts/vote (2).sol\":3323:3337  candidateVotes */\n      0x02\n        /* \"contracts/vote (2).sol\":3338:3348  candidates */\n      0x03\n        /* \"contracts/vote (2).sol\":3349:3350  i */\n      dup4\n        /* \"contracts/vote (2).sol\":3338:3351  candidates[i] */\n      dup2\n      sload\n      dup2\n      lt\n      tag_96\n      jumpi\n      tag_97\n      tag_55\n      jump\t// in\n    tag_97:\n    tag_96:\n      swap1\n      0x00\n      mstore\n      keccak256(0x00, 0x20)\n      add\n        /* \"contracts/vote (2).sol\":3323:3352  candidateVotes[candidates[i]] */\n      mload(0x40)\n      tag_99\n      swap2\n      swap1\n      tag_100\n      jump\t// in\n    tag_99:\n      swap1\n      dup2\n      mstore\n      0x20\n      add\n      mload(0x40)\n      dup1\n      swap2\n      sub\n      swap1\n      keccak256\n      sload\n        /* \"contracts/vote (2).sol\":3323:3378  candidateVotes[candidates[i]] > candidateVotes[_winner] */\n      gt\n        /* \"contracts/vote (2).sol\":3319:3582  if (candidateVotes[candidates[i]] > candidateVotes[_winner]) {... */\n      iszero\n      tag_101\n      jumpi\n        /* \"contracts/vote (2).sol\":3409:3419  candidates */\n      0x03\n        /* \"contracts/vote (2).sol\":3420:3421  i */\n      dup2\n        /* \"contracts/vote (2).sol\":3409:3422  candidates[i] */\n      dup2\n      sload\n      dup2\n      lt\n      tag_102\n      jumpi\n      tag_103\n      tag_55\n      jump\t// in\n    tag_103:\n    tag_102:\n      swap1\n      0x00\n      mstore\n      keccak256(0x00, 0x20)\n      add\n        /* \"contracts/vote (2).sol\":3399:3422  _winner = candidates[i] */\n      dup1\n      sload\n      tag_105\n      swap1\n      tag_44\n      jump\t// in\n    tag_105:\n      dup1\n      0x1f\n      add\n      0x20\n      dup1\n      swap2\n      div\n      mul\n      0x20\n      add\n      mload(0x40)\n      swap1\n      dup2\n      add\n      0x40\n      mstore\n      dup1\n      swap3\n      swap2\n      swap1\n      dup2\n      dup2\n      mstore\n      0x20\n      add\n      dup3\n      dup1\n      sload\n      tag_106\n      swap1\n      tag_44\n      jump\t// in\n    tag_106:\n      dup1\n      iszero\n      tag_107\n      jumpi\n      dup1\n      0x1f\n      lt\n      tag_108\n      jumpi\n      0x0100\n      dup1\n      dup4\n      sload\n      div\n      mul\n      dup4\n      mstore\n      swap2\n      0x20\n      add\n      swap2\n      jump(tag_107)\n    tag_108:\n      dup3\n      add\n      swap2\n      swap1\n      0x00\n      mstore\n      keccak256(0x00, 0x20)\n      swap1\n    tag_109:\n      dup2\n      sload\n      dup2\n      mstore\n      swap1\n      0x01\n      add\n      swap1\n      0x20\n      add\n      dup1\n      dup4\n      gt\n      tag_109\n      jumpi\n      dup3\n      swap1\n      sub\n      0x1f\n      and\n      dup3\n      add\n      swap2\n    tag_107:\n      pop\n      pop\n      pop\n      pop\n      pop\n      swap3\n      pop\n        /* \"contracts/vote (2).sol\":3447:3452  false */\n      0x00\n        /* \"contracts/vote (2).sol\":3440:3452  flag = false */\n      swap2\n      pop\n        /* \"contracts/vote (2).sol\":3319:3582  if (candidateVotes[candidates[i]] > candidateVotes[_winner]) {... */\n      jump(tag_110)\n    tag_101:\n        /* \"contracts/vote (2).sol\":3511:3525  candidateVotes */\n      0x02\n        /* \"contracts/vote (2).sol\":3526:3533  _winner */\n      dup4\n        /* \"contracts/vote (2).sol\":3511:3534  candidateVotes[_winner] */\n      mload(0x40)\n      tag_111\n      swap2\n      swap1\n      tag_76\n      jump\t// in\n    tag_111:\n      swap1\n      dup2\n      mstore\n      0x20\n      add\n      mload(0x40)\n      dup1\n      swap2\n      sub\n      swap1\n      keccak256\n      sload\n        /* \"contracts/vote (2).sol\":3478:3492  candidateVotes */\n      0x02\n        /* \"contracts/vote (2).sol\":3493:3503  candidates */\n      0x03\n        /* \"contracts/vote (2).sol\":3504:3505  i */\n      dup4\n        /* \"contracts/vote (2).sol\":3493:3506  candidates[i] */\n      dup2\n      sload\n      dup2\n      lt\n      tag_112\n      jumpi\n      tag_113\n      tag_55\n      jump\t// in\n    tag_113:\n    tag_112:\n      swap1\n      0x00\n      mstore\n      keccak256(0x00, 0x20)\n      add\n        /* \"contracts/vote (2).sol\":3478:3507  candidateVotes[candidates[i]] */\n      mload(0x40)\n      tag_115\n      swap2\n      swap1\n      tag_100\n      jump\t// in\n    tag_115:\n      swap1\n      dup2\n      mstore\n      0x20\n      add\n      mload(0x40)\n      dup1\n      swap2\n      sub\n      swap1\n      keccak256\n      sload\n        /* \"contracts/vote (2).sol\":3478:3534  candidateVotes[candidates[i]] == candidateVotes[_winner] */\n      sub\n        /* \"contracts/vote (2).sol\":3474:3582  if (candidateVotes[candidates[i]] == candidateVotes[_winner]) {... */\n      tag_116\n      jumpi\n        /* \"contracts/vote (2).sol\":3562:3566  true */\n      0x01\n        /* \"contracts/vote (2).sol\":3555:3566  flag = true */\n      swap2\n      pop\n        /* \"contracts/vote (2).sol\":3474:3582  if (candidateVotes[candidates[i]] == candidateVotes[_winner]) {... */\n    tag_116:\n        /* \"contracts/vote (2).sol\":3319:3582  if (candidateVotes[candidates[i]] > candidateVotes[_winner]) {... */\n    tag_110:\n        /* \"contracts/vote (2).sol\":3299:3302  i++ */\n      dup1\n      dup1\n      tag_117\n      swap1\n      tag_71\n      jump\t// in\n    tag_117:\n      swap2\n      pop\n      pop\n        /* \"contracts/vote (2).sol\":3259:3593  for (uint i = 1; i < candidates.length; i++) {... */\n      jump(tag_92)\n    tag_93:\n      pop\n        /* \"contracts/vote (2).sol\":3642:3646  flag */\n      dup1\n        /* \"contracts/vote (2).sol\":3638:3701  if (flag) {... */\n      iszero\n      tag_118\n      jumpi\n        /* \"contracts/vote (2).sol\":3662:3690  _winner = \"There was a Draw\" */\n      mload(0x40)\n      dup1\n      0x40\n      add\n      0x40\n      mstore\n      dup1\n      0x10\n      dup2\n      mstore\n      0x20\n      add\n      0x5468657265207761732061204472617700000000000000000000000000000000\n      dup2\n      mstore\n      pop\n      swap2\n      pop\n        /* \"contracts/vote (2).sol\":3638:3701  if (flag) {... */\n    tag_118:\n        /* \"contracts/vote (2).sol\":3718:3725  _winner */\n      dup2\n        /* \"contracts/vote (2).sol\":3711:3725  return _winner */\n      swap3\n      pop\n      pop\n      pop\n        /* \"contracts/vote (2).sol\":2995:3732  function winner() public view returns (string memory) {... */\n      swap1\n      jump\t// out\n        /* \"contracts/vote (2).sol\":1818:1956  function getCandidateVotes(string memory _candidateName) public view returns (uint) {... */\n    tag_33:\n        /* \"contracts/vote (2).sol\":1896:1900  uint */\n      0x00\n        /* \"contracts/vote (2).sol\":1919:1933  candidateVotes */\n      0x02\n        /* \"contracts/vote (2).sol\":1934:1948  _candidateName */\n      dup3\n        /* \"contracts/vote (2).sol\":1919:1949  candidateVotes[_candidateName] */\n      mload(0x40)\n      tag_120\n      swap2\n      swap1\n      tag_76\n      jump\t// in\n    tag_120:\n      swap1\n      dup2\n      mstore\n      0x20\n      add\n      mload(0x40)\n      dup1\n      swap2\n      sub\n      swap1\n      keccak256\n      sload\n        /* \"contracts/vote (2).sol\":1912:1949  return candidateVotes[_candidateName] */\n      swap1\n      pop\n        /* \"contracts/vote (2).sol\":1818:1956  function getCandidateVotes(string memory _candidateName) public view returns (uint) {... */\n      swap2\n      swap1\n      pop\n      jump\t// out\n        /* \"contracts/vote (2).sol\":1208:1318  function vote(string memory _candidateName) public onlyOnce {... */\n    tag_38:\n        /* \"contracts/vote (2).sol\":1435:1454  bytes32 _votantHash */\n      0x00\n        /* \"contracts/vote (2).sol\":1484:1494  msg.sender */\n      caller\n        /* \"contracts/vote (2).sol\":1467:1495  abi.encodePacked(msg.sender) */\n      add(0x20, mload(0x40))\n      tag_122\n      swap2\n      swap1\n      tag_123\n      jump\t// in\n    tag_122:\n      mload(0x40)\n      0x20\n      dup2\n      dup4\n      sub\n      sub\n      dup2\n      mstore\n      swap1\n      0x40\n      mstore\n        /* \"contracts/vote (2).sol\":1457:1496  keccak256(abi.encodePacked(msg.sender)) */\n      dup1\n      mload\n      swap1\n      0x20\n      add\n      keccak256\n        /* \"contracts/vote (2).sol\":1435:1496  bytes32 _votantHash = keccak256(abi.encodePacked(msg.sender)) */\n      swap1\n      pop\n        /* \"contracts/vote (2).sol\":1556:1565  uint256 i */\n      0x00\n        /* \"contracts/vote (2).sol\":1552:1683  for(uint256 i = 0; i < votants.length; i++) {... */\n    tag_124:\n        /* \"contracts/vote (2).sol\":1575:1582  votants */\n      0x04\n        /* \"contracts/vote (2).sol\":1575:1589  votants.length */\n      dup1\n      sload\n      swap1\n      pop\n        /* \"contracts/vote (2).sol\":1571:1572  i */\n      dup2\n        /* \"contracts/vote (2).sol\":1571:1589  i < votants.length */\n      lt\n        /* \"contracts/vote (2).sol\":1552:1683  for(uint256 i = 0; i < votants.length; i++) {... */\n      iszero\n      tag_125\n      jumpi\n        /* \"contracts/vote (2).sol\":1632:1643  _votantHash */\n      dup2\n        /* \"contracts/vote (2).sol\":1618:1625  votants */\n      0x04\n        /* \"contracts/vote (2).sol\":1626:1627  i */\n      dup3\n        /* \"contracts/vote (2).sol\":1618:1628  votants[i] */\n      dup2\n      sload\n      dup2\n      lt\n      tag_127\n      jumpi\n      tag_128\n      tag_55\n      jump\t// in\n    tag_128:\n    tag_127:\n      swap1\n      0x00\n      mstore\n      keccak256(0x00, 0x20)\n      add\n      sload\n        /* \"contracts/vote (2).sol\":1618:1643  votants[i] != _votantHash */\n      sub\n        /* \"contracts/vote (2).sol\":1610:1672  require(votants[i] != _votantHash, \"Voter has already voted.\") */\n      tag_130\n      jumpi\n      mload(0x40)\n      0x08c379a000000000000000000000000000000000000000000000000000000000\n      dup2\n      mstore\n      0x04\n      add\n      tag_131\n      swap1\n      tag_132\n      jump\t// in\n    tag_131:\n      mload(0x40)\n      dup1\n      swap2\n      sub\n      swap1\n      revert\n    tag_130:\n        /* \"contracts/vote (2).sol\":1591:1594  i++ */\n      dup1\n      dup1\n      tag_133\n      swap1\n      tag_71\n      jump\t// in\n    tag_133:\n      swap2\n      pop\n      pop\n        /* \"contracts/vote (2).sol\":1552:1683  for(uint256 i = 0; i < votants.length; i++) {... */\n      jump(tag_124)\n    tag_125:\n      pop\n        /* \"contracts/vote (2).sol\":1740:1747  votants */\n      0x04\n        /* \"contracts/vote (2).sol\":1753:1764  _votantHash */\n      dup2\n        /* \"contracts/vote (2).sol\":1740:1765  votants.push(_votantHash) */\n      swap1\n      dup1\n      0x01\n      dup2\n      sload\n      add\n      dup1\n      dup3\n      sstore\n      dup1\n      swap2\n      pop\n      pop\n      0x01\n      swap1\n      sub\n      swap1\n      0x00\n      mstore\n      keccak256(0x00, 0x20)\n      add\n      0x00\n      swap1\n      swap2\n      swap1\n      swap2\n      swap1\n      swap2\n      pop\n      sstore\n        /* \"contracts/vote (2).sol\":1278:1292  candidateVotes */\n      0x02\n        /* \"contracts/vote (2).sol\":1293:1307  _candidateName */\n      dup3\n        /* \"contracts/vote (2).sol\":1278:1308  candidateVotes[_candidateName] */\n      mload(0x40)\n      tag_136\n      swap2\n      swap1\n      tag_76\n      jump\t// in\n    tag_136:\n      swap1\n      dup2\n      mstore\n      0x20\n      add\n      mload(0x40)\n      dup1\n      swap2\n      sub\n      swap1\n      keccak256\n      0x00\n        /* \"contracts/vote (2).sol\":1278:1311  candidateVotes[_candidateName] ++ */\n      dup2\n      sload\n      dup1\n      swap3\n      swap2\n      swap1\n      tag_137\n      swap1\n      tag_71\n      jump\t// in\n    tag_137:\n      swap2\n      swap1\n      pop\n      sstore\n      pop\n        /* \"contracts/vote (2).sol\":1389:1784  {... */\n      pop\n        /* \"contracts/vote (2).sol\":1208:1318  function vote(string memory _candidateName) public onlyOnce {... */\n      pop\n      jump\t// out\n        /* \"contracts/vote (2).sol\":2412:2965  function uint2str(uint _i) internal pure returns (string memory _uintAsString) {... */\n    tag_67:\n        /* \"contracts/vote (2).sol\":2462:2489  string memory _uintAsString */\n      0x60\n        /* \"contracts/vote (2).sol\":2511:2512  0 */\n      0x00\n        /* \"contracts/vote (2).sol\":2505:2507  _i */\n      dup3\n        /* \"contracts/vote (2).sol\":2505:2512  _i == 0 */\n      sub\n        /* \"contracts/vote (2).sol\":2501:2549  if (_i == 0) {... */\n      tag_139\n      jumpi\n        /* \"contracts/vote (2).sol\":2528:2538  return \"0\" */\n      mload(0x40)\n      dup1\n      0x40\n      add\n      0x40\n      mstore\n      dup1\n      0x01\n      dup2\n      mstore\n      0x20\n      add\n      0x3000000000000000000000000000000000000000000000000000000000000000\n      dup2\n      mstore\n      pop\n      swap1\n      pop\n      jump(tag_138)\n        /* \"contracts/vote (2).sol\":2501:2549  if (_i == 0) {... */\n    tag_139:\n        /* \"contracts/vote (2).sol\":2558:2564  uint j */\n      0x00\n        /* \"contracts/vote (2).sol\":2567:2569  _i */\n      dup3\n        /* \"contracts/vote (2).sol\":2558:2569  uint j = _i */\n      swap1\n      pop\n        /* \"contracts/vote (2).sol\":2579:2587  uint len */\n      0x00\n        /* \"contracts/vote (2).sol\":2597:2663  while (j != 0) {... */\n    tag_140:\n        /* \"contracts/vote (2).sol\":2609:2610  0 */\n      0x00\n        /* \"contracts/vote (2).sol\":2604:2605  j */\n      dup3\n        /* \"contracts/vote (2).sol\":2604:2610  j != 0 */\n      eq\n        /* \"contracts/vote (2).sol\":2597:2663  while (j != 0) {... */\n      tag_141\n      jumpi\n        /* \"contracts/vote (2).sol\":2626:2631  len++ */\n      dup1\n      dup1\n      tag_142\n      swap1\n      tag_71\n      jump\t// in\n    tag_142:\n      swap2\n      pop\n      pop\n        /* \"contracts/vote (2).sol\":2650:2652  10 */\n      0x0a\n        /* \"contracts/vote (2).sol\":2645:2652  j /= 10 */\n      dup3\n      tag_143\n      swap2\n      swap1\n      tag_144\n      jump\t// in\n    tag_143:\n      swap2\n      pop\n        /* \"contracts/vote (2).sol\":2597:2663  while (j != 0) {... */\n      jump(tag_140)\n    tag_141:\n        /* \"contracts/vote (2).sol\":2672:2689  bytes memory bstr */\n      0x00\n        /* \"contracts/vote (2).sol\":2702:2705  len */\n      dup2\n        /* \"contracts/vote (2).sol\":2692:2706  new bytes(len) */\n      0xffffffffffffffff\n      dup2\n      gt\n      iszero\n      tag_145\n      jumpi\n      tag_146\n      tag_147\n      jump\t// in\n    tag_146:\n    tag_145:\n      mload(0x40)\n      swap1\n      dup1\n      dup3\n      mstore\n      dup1\n      0x1f\n      add\n      not(0x1f)\n      and\n      0x20\n      add\n      dup3\n      add\n      0x40\n      mstore\n      dup1\n      iszero\n      tag_148\n      jumpi\n      dup2\n      0x20\n      add\n      0x01\n      dup3\n      mul\n      dup1\n      calldatasize\n      dup4\n      calldatacopy\n      dup1\n      dup3\n      add\n      swap2\n      pop\n      pop\n      swap1\n      pop\n    tag_148:\n      pop\n        /* \"contracts/vote (2).sol\":2672:2706  bytes memory bstr = new bytes(len) */\n      swap1\n      pop\n        /* \"contracts/vote (2).sol\":2716:2722  uint k */\n      0x00\n        /* \"contracts/vote (2).sol\":2725:2728  len */\n      dup3\n        /* \"contracts/vote (2).sol\":2716:2728  uint k = len */\n      swap1\n      pop\n        /* \"contracts/vote (2).sol\":2738:2930  while (_i != 0) {... */\n    tag_149:\n        /* \"contracts/vote (2).sol\":2751:2752  0 */\n      0x00\n        /* \"contracts/vote (2).sol\":2745:2747  _i */\n      dup7\n        /* \"contracts/vote (2).sol\":2745:2752  _i != 0 */\n      eq\n        /* \"contracts/vote (2).sol\":2738:2930  while (_i != 0) {... */\n      tag_150\n      jumpi\n        /* \"contracts/vote (2).sol\":2774:2775  1 */\n      0x01\n        /* \"contracts/vote (2).sol\":2772:2773  k */\n      dup2\n        /* \"contracts/vote (2).sol\":2772:2775  k-1 */\n      tag_151\n      swap2\n      swap1\n      tag_152\n      jump\t// in\n    tag_151:\n        /* \"contracts/vote (2).sol\":2768:2775  k = k-1 */\n      swap1\n      pop\n        /* \"contracts/vote (2).sol\":2789:2799  uint8 temp */\n      0x00\n        /* \"contracts/vote (2).sol\":2829:2831  10 */\n      0x0a\n        /* \"contracts/vote (2).sol\":2824:2826  10 */\n      dup1\n        /* \"contracts/vote (2).sol\":2819:2821  _i */\n      dup9\n        /* \"contracts/vote (2).sol\":2819:2826  _i / 10 */\n      tag_153\n      swap2\n      swap1\n      tag_144\n      jump\t// in\n    tag_153:\n        /* \"contracts/vote (2).sol\":2819:2831  _i / 10 * 10 */\n      tag_154\n      swap2\n      swap1\n      tag_155\n      jump\t// in\n    tag_154:\n        /* \"contracts/vote (2).sol\":2814:2816  _i */\n      dup8\n        /* \"contracts/vote (2).sol\":2814:2831  _i - _i / 10 * 10 */\n      tag_156\n      swap2\n      swap1\n      tag_152\n      jump\t// in\n    tag_156:\n        /* \"contracts/vote (2).sol\":2803:2805  48 */\n      0x30\n        /* \"contracts/vote (2).sol\":2803:2832  48 + uint8(_i - _i / 10 * 10) */\n      tag_157\n      swap2\n      swap1\n      tag_158\n      jump\t// in\n    tag_157:\n        /* \"contracts/vote (2).sol\":2789:2833  uint8 temp = (48 + uint8(_i - _i / 10 * 10)) */\n      swap1\n      pop\n        /* \"contracts/vote (2).sol\":2847:2856  bytes1 b1 */\n      0x00\n        /* \"contracts/vote (2).sol\":2866:2870  temp */\n      dup2\n        /* \"contracts/vote (2).sol\":2859:2871  bytes1(temp) */\n      0xf8\n      shl\n        /* \"contracts/vote (2).sol\":2847:2871  bytes1 b1 = bytes1(temp) */\n      swap1\n      pop\n        /* \"contracts/vote (2).sol\":2895:2897  b1 */\n      dup1\n        /* \"contracts/vote (2).sol\":2885:2889  bstr */\n      dup5\n        /* \"contracts/vote (2).sol\":2890:2891  k */\n      dup5\n        /* \"contracts/vote (2).sol\":2885:2892  bstr[k] */\n      dup2\n      mload\n      dup2\n      lt\n      tag_159\n      jumpi\n      tag_160\n      tag_55\n      jump\t// in\n    tag_160:\n    tag_159:\n      0x20\n      add\n      add\n        /* \"contracts/vote (2).sol\":2885:2897  bstr[k] = b1 */\n      swap1\n      not(0xffffffffffffffffffffffffffffffffffffffffffffffffffffffffffffff)\n      and\n      swap1\n      dup2\n      0x00\n      byte\n      swap1\n      mstore8\n      pop\n        /* \"contracts/vote (2).sol\":2917:2919  10 */\n      0x0a\n        /* \"contracts/vote (2).sol\":2911:2919  _i /= 10 */\n      dup9\n      tag_161\n      swap2\n      swap1\n      tag_144\n      jump\t// in\n    tag_161:\n      swap8\n      pop\n        /* \"contracts/vote (2).sol\":2754:2930  {... */\n      pop\n      pop\n        /* \"contracts/vote (2).sol\":2738:2930  while (_i != 0) {... */\n      jump(tag_149)\n    tag_150:\n        /* \"contracts/vote (2).sol\":2953:2957  bstr */\n      dup2\n        /* \"contracts/vote (2).sol\":2939:2958  return string(bstr) */\n      swap5\n      pop\n      pop\n      pop\n      pop\n      pop\n        /* \"contracts/vote (2).sol\":2412:2965  function uint2str(uint _i) internal pure returns (string memory _uintAsString) {... */\n    tag_138:\n      swap2\n      swap1\n      pop\n      jump\t// out\n        /* \"#utility.yul\":7:131   */\n    tag_162:\n        /* \"#utility.yul\":84:90   */\n      0x00\n        /* \"#utility.yul\":118:123   */\n      dup2\n        /* \"#utility.yul\":112:124   */\n      mload\n        /* \"#utility.yul\":102:124   */\n      swap1\n      pop\n        /* \"#utility.yul\":7:131   */\n      swap2\n      swap1\n      pop\n      jump\t// out\n        /* \"#utility.yul\":137:331   */\n    tag_163:\n        /* \"#utility.yul\":246:257   */\n      0x00\n        /* \"#utility.yul\":280:286   */\n      dup3\n        /* \"#utility.yul\":275:278   */\n      dup3\n        /* \"#utility.yul\":268:287   */\n      mstore\n        /* \"#utility.yul\":320:324   */\n      0x20\n        /* \"#utility.yul\":315:318   */\n      dup3\n        /* \"#utility.yul\":311:325   */\n      add\n        /* \"#utility.yul\":296:325   */\n      swap1\n      pop\n        /* \"#utility.yul\":137:331   */\n      swap3\n      swap2\n      pop\n      pop\n      jump\t// out\n        /* \"#utility.yul\":337:479   */\n    tag_164:\n        /* \"#utility.yul\":414:418   */\n      0x00\n        /* \"#utility.yul\":437:440   */\n      dup2\n        /* \"#utility.yul\":429:440   */\n      swap1\n      pop\n        /* \"#utility.yul\":467:471   */\n      0x20\n        /* \"#utility.yul\":462:465   */\n      dup3\n        /* \"#utility.yul\":458:472   */\n      add\n        /* \"#utility.yul\":450:472   */\n      swap1\n      pop\n        /* \"#utility.yul\":337:479   */\n      swap2\n      swap1\n      pop\n      jump\t// out\n        /* \"#utility.yul\":485:584   */\n    tag_165:\n        /* \"#utility.yul\":537:543   */\n      0x00\n        /* \"#utility.yul\":571:576   */\n      dup2\n        /* \"#utility.yul\":565:577   */\n      mload\n        /* \"#utility.yul\":555:577   */\n      swap1\n      pop\n        /* \"#utility.yul\":485:584   */\n      swap2\n      swap1\n      pop\n      jump\t// out\n        /* \"#utility.yul\":590:749   */\n    tag_166:\n        /* \"#utility.yul\":664:675   */\n      0x00\n        /* \"#utility.yul\":698:704   */\n      dup3\n        /* \"#utility.yul\":693:696   */\n      dup3\n        /* \"#utility.yul\":686:705   */\n      mstore\n        /* \"#utility.yul\":738:742   */\n      0x20\n        /* \"#utility.yul\":733:736   */\n      dup3\n        /* \"#utility.yul\":729:743   */\n      add\n        /* \"#utility.yul\":714:743   */\n      swap1\n      pop\n        /* \"#utility.yul\":590:749   */\n      swap3\n      swap2\n      pop\n      pop\n      jump\t// out\n        /* \"#utility.yul\":755:1001   */\n    tag_167:\n        /* \"#utility.yul\":836:837   */\n      0x00\n        /* \"#utility.yul\":846:959   */\n    tag_238:\n        /* \"#utility.yul\":860:866   */\n      dup4\n        /* \"#utility.yul\":857:858   */\n      dup2\n        /* \"#utility.yul\":854:867   */\n      lt\n        /* \"#utility.yul\":846:959   */\n      iszero\n      tag_240\n      jumpi\n        /* \"#utility.yul\":945:946   */\n      dup1\n        /* \"#utility.yul\":940:943   */\n      dup3\n        /* \"#utility.yul\":936:947   */\n      add\n        /* \"#utility.yul\":930:948   */\n      mload\n        /* \"#utility.yul\":926:927   */\n      dup2\n        /* \"#utility.yul\":921:924   */\n      dup5\n        /* \"#utility.yul\":917:928   */\n      add\n        /* \"#utility.yul\":910:949   */\n      mstore\n        /* \"#utility.yul\":882:884   */\n      0x20\n        /* \"#utility.yul\":879:880   */\n      dup2\n        /* \"#utility.yul\":875:885   */\n      add\n        /* \"#utility.yul\":870:885   */\n      swap1\n      pop\n        /* \"#utility.yul\":846:959   */\n      jump(tag_238)\n    tag_240:\n        /* \"#utility.yul\":993:994   */\n      0x00\n        /* \"#utility.yul\":984:990   */\n      dup5\n        /* \"#utility.yul\":979:982   */\n      dup5\n        /* \"#utility.yul\":975:991   */\n      add\n        /* \"#utility.yul\":968:995   */\n      mstore\n        /* \"#utility.yul\":817:1001   */\n      pop\n        /* \"#utility.yul\":755:1001   */\n      pop\n      pop\n      pop\n      jump\t// out\n        /* \"#utility.yul\":1007:1109   */\n    tag_168:\n        /* \"#utility.yul\":1048:1054   */\n      0x00\n        /* \"#utility.yul\":1099:1101   */\n      0x1f\n        /* \"#utility.yul\":1095:1102   */\n      not\n        /* \"#utility.yul\":1090:1092   */\n      0x1f\n        /* \"#utility.yul\":1083:1088   */\n      dup4\n        /* \"#utility.yul\":1079:1093   */\n      add\n        /* \"#utility.yul\":1075:1103   */\n      and\n        /* \"#utility.yul\":1065:1103   */\n      swap1\n      pop\n        /* \"#utility.yul\":1007:1109   */\n      swap2\n      swap1\n      pop\n      jump\t// out\n        /* \"#utility.yul\":1115:1472   */\n    tag_169:\n        /* \"#utility.yul\":1193:1196   */\n      0x00\n        /* \"#utility.yul\":1221:1260   */\n      tag_243\n        /* \"#utility.yul\":1254:1259   */\n      dup3\n        /* \"#utility.yul\":1221:1260   */\n      tag_165\n      jump\t// in\n    tag_243:\n        /* \"#utility.yul\":1276:1337   */\n      tag_244\n        /* \"#utility.yul\":1330:1336   */\n      dup2\n        /* \"#utility.yul\":1325:1328   */\n      dup6\n        /* \"#utility.yul\":1276:1337   */\n      tag_166\n      jump\t// in\n    tag_244:\n        /* \"#utility.yul\":1269:1337   */\n      swap4\n      pop\n        /* \"#utility.yul\":1346:1411   */\n      tag_245\n        /* \"#utility.yul\":1404:1410   */\n      dup2\n        /* \"#utility.yul\":1399:1402   */\n      dup6\n        /* \"#utility.yul\":1392:1396   */\n      0x20\n        /* \"#utility.yul\":1385:1390   */\n      dup7\n        /* \"#utility.yul\":1381:1397   */\n      add\n        /* \"#utility.yul\":1346:1411   */\n      tag_167\n      jump\t// in\n    tag_245:\n        /* \"#utility.yul\":1436:1465   */\n      tag_246\n        /* \"#utility.yul\":1458:1464   */\n      dup2\n        /* \"#utility.yul\":1436:1465   */\n      tag_168\n      jump\t// in\n    tag_246:\n        /* \"#utility.yul\":1431:1434   */\n      dup5\n        /* \"#utility.yul\":1427:1466   */\n      add\n        /* \"#utility.yul\":1420:1466   */\n      swap2\n      pop\n        /* \"#utility.yul\":1197:1472   */\n      pop\n        /* \"#utility.yul\":1115:1472   */\n      swap3\n      swap2\n      pop\n      pop\n      jump\t// out\n        /* \"#utility.yul\":1478:1674   */\n    tag_170:\n        /* \"#utility.yul\":1567:1577   */\n      0x00\n        /* \"#utility.yul\":1602:1668   */\n      tag_248\n        /* \"#utility.yul\":1664:1667   */\n      dup4\n        /* \"#utility.yul\":1656:1662   */\n      dup4\n        /* \"#utility.yul\":1602:1668   */\n      tag_169\n      jump\t// in\n    tag_248:\n        /* \"#utility.yul\":1588:1668   */\n      swap1\n      pop\n        /* \"#utility.yul\":1478:1674   */\n      swap3\n      swap2\n      pop\n      pop\n      jump\t// out\n        /* \"#utility.yul\":1680:1803   */\n    tag_171:\n        /* \"#utility.yul\":1760:1764   */\n      0x00\n        /* \"#utility.yul\":1792:1796   */\n      0x20\n        /* \"#utility.yul\":1787:1790   */\n      dup3\n        /* \"#utility.yul\":1783:1797   */\n      add\n        /* \"#utility.yul\":1775:1797   */\n      swap1\n      pop\n        /* \"#utility.yul\":1680:1803   */\n      swap2\n      swap1\n      pop\n      jump\t// out\n        /* \"#utility.yul\":1837:2828   */\n    tag_172:\n        /* \"#utility.yul\":1976:1979   */\n      0x00\n        /* \"#utility.yul\":2005:2069   */\n      tag_251\n        /* \"#utility.yul\":2063:2068   */\n      dup3\n        /* \"#utility.yul\":2005:2069   */\n      tag_162\n      jump\t// in\n    tag_251:\n        /* \"#utility.yul\":2085:2181   */\n      tag_252\n        /* \"#utility.yul\":2174:2180   */\n      dup2\n        /* \"#utility.yul\":2169:2172   */\n      dup6\n        /* \"#utility.yul\":2085:2181   */\n      tag_163\n      jump\t// in\n    tag_252:\n        /* \"#utility.yul\":2078:2181   */\n      swap4\n      pop\n        /* \"#utility.yul\":2207:2210   */\n      dup4\n        /* \"#utility.yul\":2252:2256   */\n      0x20\n        /* \"#utility.yul\":2244:2250   */\n      dup3\n        /* \"#utility.yul\":2240:2257   */\n      mul\n        /* \"#utility.yul\":2235:2238   */\n      dup6\n        /* \"#utility.yul\":2231:2258   */\n      add\n        /* \"#utility.yul\":2282:2348   */\n      tag_253\n        /* \"#utility.yul\":2342:2347   */\n      dup6\n        /* \"#utility.yul\":2282:2348   */\n      tag_164\n      jump\t// in\n    tag_253:\n        /* \"#utility.yul\":2371:2378   */\n      dup1\n        /* \"#utility.yul\":2402:2403   */\n      0x00\n        /* \"#utility.yul\":2387:2783   */\n    tag_254:\n        /* \"#utility.yul\":2412:2418   */\n      dup6\n        /* \"#utility.yul\":2409:2410   */\n      dup2\n        /* \"#utility.yul\":2406:2419   */\n      lt\n        /* \"#utility.yul\":2387:2783   */\n      iszero\n      tag_256\n      jumpi\n        /* \"#utility.yul\":2483:2492   */\n      dup5\n        /* \"#utility.yul\":2477:2481   */\n      dup5\n        /* \"#utility.yul\":2473:2493   */\n      sub\n        /* \"#utility.yul\":2468:2471   */\n      dup10\n        /* \"#utility.yul\":2461:2494   */\n      mstore\n        /* \"#utility.yul\":2534:2540   */\n      dup2\n        /* \"#utility.yul\":2528:2541   */\n      mload\n        /* \"#utility.yul\":2562:2646   */\n      tag_257\n        /* \"#utility.yul\":2641:2645   */\n      dup6\n        /* \"#utility.yul\":2626:2639   */\n      dup3\n        /* \"#utility.yul\":2562:2646   */\n      tag_170\n      jump\t// in\n    tag_257:\n        /* \"#utility.yul\":2554:2646   */\n      swap5\n      pop\n        /* \"#utility.yul\":2669:2739   */\n      tag_258\n        /* \"#utility.yul\":2732:2738   */\n      dup4\n        /* \"#utility.yul\":2669:2739   */\n      tag_171\n      jump\t// in\n    tag_258:\n        /* \"#utility.yul\":2659:2739   */\n      swap3\n      pop\n        /* \"#utility.yul\":2768:2772   */\n      0x20\n        /* \"#utility.yul\":2763:2766   */\n      dup11\n        /* \"#utility.yul\":2759:2773   */\n      add\n        /* \"#utility.yul\":2752:2773   */\n      swap10\n      pop\n        /* \"#utility.yul\":2447:2783   */\n      pop\n        /* \"#utility.yul\":2434:2435   */\n      0x01\n        /* \"#utility.yul\":2431:2432   */\n      dup2\n        /* \"#utility.yul\":2427:2436   */\n      add\n        /* \"#utility.yul\":2422:2436   */\n      swap1\n      pop\n        /* \"#utility.yul\":2387:2783   */\n      jump(tag_254)\n    tag_256:\n        /* \"#utility.yul\":2391:2405   */\n      pop\n        /* \"#utility.yul\":2799:2803   */\n      dup3\n        /* \"#utility.yul\":2792:2803   */\n      swap8\n      pop\n        /* \"#utility.yul\":2819:2822   */\n      dup8\n        /* \"#utility.yul\":2812:2822   */\n      swap6\n      pop\n        /* \"#utility.yul\":1981:2828   */\n      pop\n      pop\n      pop\n      pop\n      pop\n        /* \"#utility.yul\":1837:2828   */\n      swap3\n      swap2\n      pop\n      pop\n      jump\t// out\n        /* \"#utility.yul\":2834:3247   */\n    tag_14:\n        /* \"#utility.yul\":2997:3001   */\n      0x00\n        /* \"#utility.yul\":3035:3037   */\n      0x20\n        /* \"#utility.yul\":3024:3033   */\n      dup3\n        /* \"#utility.yul\":3020:3038   */\n      add\n        /* \"#utility.yul\":3012:3038   */\n      swap1\n      pop\n        /* \"#utility.yul\":3084:3093   */\n      dup2\n        /* \"#utility.yul\":3078:3082   */\n      dup2\n        /* \"#utility.yul\":3074:3094   */\n      sub\n        /* \"#utility.yul\":3070:3071   */\n      0x00\n        /* \"#utility.yul\":3059:3068   */\n      dup4\n        /* \"#utility.yul\":3055:3072   */\n      add\n        /* \"#utility.yul\":3048:3095   */\n      mstore\n        /* \"#utility.yul\":3112:3240   */\n      tag_260\n        /* \"#utility.yul\":3235:3239   */\n      dup2\n        /* \"#utility.yul\":3226:3232   */\n      dup5\n        /* \"#utility.yul\":3112:3240   */\n      tag_172\n      jump\t// in\n    tag_260:\n        /* \"#utility.yul\":3104:3240   */\n      swap1\n      pop\n        /* \"#utility.yul\":2834:3247   */\n      swap3\n      swap2\n      pop\n      pop\n      jump\t// out\n        /* \"#utility.yul\":3253:3422   */\n    tag_173:\n        /* \"#utility.yul\":3337:3348   */\n      0x00\n        /* \"#utility.yul\":3371:3377   */\n      dup3\n        /* \"#utility.yul\":3366:3369   */\n      dup3\n        /* \"#utility.yul\":3359:3378   */\n      mstore\n        /* \"#utility.yul\":3411:3415   */\n      0x20\n        /* \"#utility.yul\":3406:3409   */\n      dup3\n        /* \"#utility.yul\":3402:3416   */\n      add\n        /* \"#utility.yul\":3387:3416   */\n      swap1\n      pop\n        /* \"#utility.yul\":3253:3422   */\n      swap3\n      swap2\n      pop\n      pop\n      jump\t// out\n        /* \"#utility.yul\":3428:3805   */\n    tag_174:\n        /* \"#utility.yul\":3516:3519   */\n      0x00\n        /* \"#utility.yul\":3544:3583   */\n      tag_263\n        /* \"#utility.yul\":3577:3582   */\n      dup3\n        /* \"#utility.yul\":3544:3583   */\n      tag_165\n      jump\t// in\n    tag_263:\n        /* \"#utility.yul\":3599:3670   */\n      tag_264\n        /* \"#utility.yul\":3663:3669   */\n      dup2\n        /* \"#utility.yul\":3658:3661   */\n      dup6\n        /* \"#utility.yul\":3599:3670   */\n      tag_173\n      jump\t// in\n    tag_264:\n        /* \"#utility.yul\":3592:3670   */\n      swap4\n      pop\n        /* \"#utility.yul\":3679:3744   */\n      tag_265\n        /* \"#utility.yul\":3737:3743   */\n      dup2\n        /* \"#utility.yul\":3732:3735   */\n      dup6\n        /* \"#utility.yul\":3725:3729   */\n      0x20\n        /* \"#utility.yul\":3718:3723   */\n      dup7\n        /* \"#utility.yul\":3714:3730   */\n      add\n        /* \"#utility.yul\":3679:3744   */\n      tag_167\n      jump\t// in\n    tag_265:\n        /* \"#utility.yul\":3769:3798   */\n      tag_266\n        /* \"#utility.yul\":3791:3797   */\n      dup2\n        /* \"#utility.yul\":3769:3798   */\n      tag_168\n      jump\t// in\n    tag_266:\n        /* \"#utility.yul\":3764:3767   */\n      dup5\n        /* \"#utility.yul\":3760:3799   */\n      add\n        /* \"#utility.yul\":3753:3799   */\n      swap2\n      pop\n        /* \"#utility.yul\":3520:3805   */\n      pop\n        /* \"#utility.yul\":3428:3805   */\n      swap3\n      swap2\n      pop\n      pop\n      jump\t// out\n        /* \"#utility.yul\":3811:4124   */\n    tag_18:\n        /* \"#utility.yul\":3924:3928   */\n      0x00\n        /* \"#utility.yul\":3962:3964   */\n      0x20\n        /* \"#utility.yul\":3951:3960   */\n      dup3\n        /* \"#utility.yul\":3947:3965   */\n      add\n        /* \"#utility.yul\":3939:3965   */\n      swap1\n      pop\n        /* \"#utility.yul\":4011:4020   */\n      dup2\n        /* \"#utility.yul\":4005:4009   */\n      dup2\n        /* \"#utility.yul\":4001:4021   */\n      sub\n        /* \"#utility.yul\":3997:3998   */\n      0x00\n        /* \"#utility.yul\":3986:3995   */\n      dup4\n        /* \"#utility.yul\":3982:3999   */\n      add\n        /* \"#utility.yul\":3975:4022   */\n      mstore\n        /* \"#utility.yul\":4039:4117   */\n      tag_268\n        /* \"#utility.yul\":4112:4116   */\n      dup2\n        /* \"#utility.yul\":4103:4109   */\n      dup5\n        /* \"#utility.yul\":4039:4117   */\n      tag_174\n      jump\t// in\n    tag_268:\n        /* \"#utility.yul\":4031:4117   */\n      swap1\n      pop\n        /* \"#utility.yul\":3811:4124   */\n      swap3\n      swap2\n      pop\n      pop\n      jump\t// out\n        /* \"#utility.yul\":4130:4256   */\n    tag_175:\n        /* \"#utility.yul\":4167:4174   */\n      0x00\n        /* \"#utility.yul\":4207:4249   */\n      0xffffffffffffffffffffffffffffffffffffffff\n        /* \"#utility.yul\":4200:4205   */\n      dup3\n        /* \"#utility.yul\":4196:4250   */\n      and\n        /* \"#utility.yul\":4185:4250   */\n      swap1\n      pop\n        /* \"#utility.yul\":4130:4256   */\n      swap2\n      swap1\n      pop\n      jump\t// out\n        /* \"#utility.yul\":4262:4358   */\n    tag_176:\n        /* \"#utility.yul\":4299:4306   */\n      0x00\n        /* \"#utility.yul\":4328:4352   */\n      tag_271\n        /* \"#utility.yul\":4346:4351   */\n      dup3\n        /* \"#utility.yul\":4328:4352   */\n      tag_175\n      jump\t// in\n    tag_271:\n        /* \"#utility.yul\":4317:4352   */\n      swap1\n      pop\n        /* \"#utility.yul\":4262:4358   */\n      swap2\n      swap1\n      pop\n      jump\t// out\n        /* \"#utility.yul\":4364:4482   */\n    tag_177:\n        /* \"#utility.yul\":4451:4475   */\n      tag_273\n        /* \"#utility.yul\":4469:4474   */\n      dup2\n        /* \"#utility.yul\":4451:4475   */\n      tag_176\n      jump\t// in\n    tag_273:\n        /* \"#utility.yul\":4446:4449   */\n      dup3\n        /* \"#utility.yul\":4439:4476   */\n      mstore\n        /* \"#utility.yul\":4364:4482   */\n      pop\n      pop\n      jump\t// out\n        /* \"#utility.yul\":4488:4710   */\n    tag_22:\n        /* \"#utility.yul\":4581:4585   */\n      0x00\n        /* \"#utility.yul\":4619:4621   */\n      0x20\n        /* \"#utility.yul\":4608:4617   */\n      dup3\n        /* \"#utility.yul\":4604:4622   */\n      add\n        /* \"#utility.yul\":4596:4622   */\n      swap1\n      pop\n        /* \"#utility.yul\":4632:4703   */\n      tag_275\n        /* \"#utility.yul\":4700:4701   */\n      0x00\n        /* \"#utility.yul\":4689:4698   */\n      dup4\n        /* \"#utility.yul\":4685:4702   */\n      add\n        /* \"#utility.yul\":4676:4682   */\n      dup5\n        /* \"#utility.yul\":4632:4703   */\n      tag_177\n      jump\t// in\n    tag_275:\n        /* \"#utility.yul\":4488:4710   */\n      swap3\n      swap2\n      pop\n      pop\n      jump\t// out\n        /* \"#utility.yul\":4716:4791   */\n    tag_178:\n        /* \"#utility.yul\":4749:4755   */\n      0x00\n        /* \"#utility.yul\":4782:4784   */\n      0x40\n        /* \"#utility.yul\":4776:4785   */\n      mload\n        /* \"#utility.yul\":4766:4785   */\n      swap1\n      pop\n        /* \"#utility.yul\":4716:4791   */\n      swap1\n      jump\t// out\n        /* \"#utility.yul\":4797:4914   */\n    tag_179:\n        /* \"#utility.yul\":4906:4907   */\n      0x00\n        /* \"#utility.yul\":4903:4904   */\n      dup1\n        /* \"#utility.yul\":4896:4908   */\n      revert\n        /* \"#utility.yul\":4920:5037   */\n    tag_180:\n        /* \"#utility.yul\":5029:5030   */\n      0x00\n        /* \"#utility.yul\":5026:5027   */\n      dup1\n        /* \"#utility.yul\":5019:5031   */\n      revert\n        /* \"#utility.yul\":5043:5160   */\n    tag_181:\n        /* \"#utility.yul\":5152:5153   */\n      0x00\n        /* \"#utility.yul\":5149:5150   */\n      dup1\n        /* \"#utility.yul\":5142:5154   */\n      revert\n        /* \"#utility.yul\":5166:5283   */\n    tag_182:\n        /* \"#utility.yul\":5275:5276   */\n      0x00\n        /* \"#utility.yul\":5272:5273   */\n      dup1\n        /* \"#utility.yul\":5265:5277   */\n      revert\n        /* \"#utility.yul\":5289:5469   */\n    tag_147:\n        /* \"#utility.yul\":5337:5414   */\n      0x4e487b7100000000000000000000000000000000000000000000000000000000\n        /* \"#utility.yul\":5334:5335   */\n      0x00\n        /* \"#utility.yul\":5327:5415   */\n      mstore\n        /* \"#utility.yul\":5434:5438   */\n      0x41\n        /* \"#utility.yul\":5431:5432   */\n      0x04\n        /* \"#utility.yul\":5424:5439   */\n      mstore\n        /* \"#utility.yul\":5458:5462   */\n      0x24\n        /* \"#utility.yul\":5455:5456   */\n      0x00\n        /* \"#utility.yul\":5448:5463   */\n      revert\n        /* \"#utility.yul\":5475:5756   */\n    tag_183:\n        /* \"#utility.yul\":5558:5585   */\n      tag_283\n        /* \"#utility.yul\":5580:5584   */\n      dup3\n        /* \"#utility.yul\":5558:5585   */\n      tag_168\n      jump\t// in\n    tag_283:\n        /* \"#utility.yul\":5550:5556   */\n      dup2\n        /* \"#utility.yul\":5546:5586   */\n      add\n        /* \"#utility.yul\":5688:5694   */\n      dup2\n        /* \"#utility.yul\":5676:5686   */\n      dup2\n        /* \"#utility.yul\":5673:5695   */\n      lt\n        /* \"#utility.yul\":5652:5670   */\n      0xffffffffffffffff\n        /* \"#utility.yul\":5640:5650   */\n      dup3\n        /* \"#utility.yul\":5637:5671   */\n      gt\n        /* \"#utility.yul\":5634:5696   */\n      or\n        /* \"#utility.yul\":5631:5719   */\n      iszero\n      tag_284\n      jumpi\n        /* \"#utility.yul\":5699:5717   */\n      tag_285\n      tag_147\n      jump\t// in\n    tag_285:\n        /* \"#utility.yul\":5631:5719   */\n    tag_284:\n        /* \"#utility.yul\":5739:5749   */\n      dup1\n        /* \"#utility.yul\":5735:5737   */\n      0x40\n        /* \"#utility.yul\":5728:5750   */\n      mstore\n        /* \"#utility.yul\":5518:5756   */\n      pop\n        /* \"#utility.yul\":5475:5756   */\n      pop\n      pop\n      jump\t// out\n        /* \"#utility.yul\":5762:5891   */\n    tag_184:\n        /* \"#utility.yul\":5796:5802   */\n      0x00\n        /* \"#utility.yul\":5823:5843   */\n      tag_287\n      tag_178\n      jump\t// in\n    tag_287:\n        /* \"#utility.yul\":5813:5843   */\n      swap1\n      pop\n        /* \"#utility.yul\":5852:5885   */\n      tag_288\n        /* \"#utility.yul\":5880:5884   */\n      dup3\n        /* \"#utility.yul\":5872:5878   */\n      dup3\n        /* \"#utility.yul\":5852:5885   */\n      tag_183\n      jump\t// in\n    tag_288:\n        /* \"#utility.yul\":5762:5891   */\n      swap2\n      swap1\n      pop\n      jump\t// out\n        /* \"#utility.yul\":5897:6205   */\n    tag_185:\n        /* \"#utility.yul\":5959:5963   */\n      0x00\n        /* \"#utility.yul\":6049:6067   */\n      0xffffffffffffffff\n        /* \"#utility.yul\":6041:6047   */\n      dup3\n        /* \"#utility.yul\":6038:6068   */\n      gt\n        /* \"#utility.yul\":6035:6091   */\n      iszero\n      tag_290\n      jumpi\n        /* \"#utility.yul\":6071:6089   */\n      tag_291\n      tag_147\n      jump\t// in\n    tag_291:\n        /* \"#utility.yul\":6035:6091   */\n    tag_290:\n        /* \"#utility.yul\":6109:6138   */\n      tag_292\n        /* \"#utility.yul\":6131:6137   */\n      dup3\n        /* \"#utility.yul\":6109:6138   */\n      tag_168\n      jump\t// in\n    tag_292:\n        /* \"#utility.yul\":6101:6138   */\n      swap1\n      pop\n        /* \"#utility.yul\":6193:6197   */\n      0x20\n        /* \"#utility.yul\":6187:6191   */\n      dup2\n        /* \"#utility.yul\":6183:6198   */\n      add\n        /* \"#utility.yul\":6175:6198   */\n      swap1\n      pop\n        /* \"#utility.yul\":5897:6205   */\n      swap2\n      swap1\n      pop\n      jump\t// out\n        /* \"#utility.yul\":6211:6357   */\n    tag_186:\n        /* \"#utility.yul\":6308:6314   */\n      dup3\n        /* \"#utility.yul\":6303:6306   */\n      dup2\n        /* \"#utility.yul\":6298:6301   */\n      dup4\n        /* \"#utility.yul\":6285:6315   */\n      calldatacopy\n        /* \"#utility.yul\":6349:6350   */\n      0x00\n        /* \"#utility.yul\":6340:6346   */\n      dup4\n        /* \"#utility.yul\":6335:6338   */\n      dup4\n        /* \"#utility.yul\":6331:6347   */\n      add\n        /* \"#utility.yul\":6324:6351   */\n      mstore\n        /* \"#utility.yul\":6211:6357   */\n      pop\n      pop\n      pop\n      jump\t// out\n        /* \"#utility.yul\":6363:6788   */\n    tag_187:\n        /* \"#utility.yul\":6441:6446   */\n      0x00\n        /* \"#utility.yul\":6466:6532   */\n      tag_295\n        /* \"#utility.yul\":6482:6531   */\n      tag_296\n        /* \"#utility.yul\":6524:6530   */\n      dup5\n        /* \"#utility.yul\":6482:6531   */\n      tag_185\n      jump\t// in\n    tag_296:\n        /* \"#utility.yul\":6466:6532   */\n      tag_184\n      jump\t// in\n    tag_295:\n        /* \"#utility.yul\":6457:6532   */\n      swap1\n      pop\n        /* \"#utility.yul\":6555:6561   */\n      dup3\n        /* \"#utility.yul\":6548:6553   */\n      dup2\n        /* \"#utility.yul\":6541:6562   */\n      mstore\n        /* \"#utility.yul\":6593:6597   */\n      0x20\n        /* \"#utility.yul\":6586:6591   */\n      dup2\n        /* \"#utility.yul\":6582:6598   */\n      add\n        /* \"#utility.yul\":6631:6634   */\n      dup5\n        /* \"#utility.yul\":6622:6628   */\n      dup5\n        /* \"#utility.yul\":6617:6620   */\n      dup5\n        /* \"#utility.yul\":6613:6629   */\n      add\n        /* \"#utility.yul\":6610:6635   */\n      gt\n        /* \"#utility.yul\":6607:6719   */\n      iszero\n      tag_297\n      jumpi\n        /* \"#utility.yul\":6638:6717   */\n      tag_298\n      tag_182\n      jump\t// in\n    tag_298:\n        /* \"#utility.yul\":6607:6719   */\n    tag_297:\n        /* \"#utility.yul\":6728:6782   */\n      tag_299\n        /* \"#utility.yul\":6775:6781   */\n      dup5\n        /* \"#utility.yul\":6770:6773   */\n      dup3\n        /* \"#utility.yul\":6765:6768   */\n      dup6\n        /* \"#utility.yul\":6728:6782   */\n      tag_186\n      jump\t// in\n    tag_299:\n        /* \"#utility.yul\":6447:6788   */\n      pop\n        /* \"#utility.yul\":6363:6788   */\n      swap4\n      swap3\n      pop\n      pop\n      pop\n      jump\t// out\n        /* \"#utility.yul\":6808:7148   */\n    tag_188:\n        /* \"#utility.yul\":6864:6869   */\n      0x00\n        /* \"#utility.yul\":6913:6916   */\n      dup3\n        /* \"#utility.yul\":6906:6910   */\n      0x1f\n        /* \"#utility.yul\":6898:6904   */\n      dup4\n        /* \"#utility.yul\":6894:6911   */\n      add\n        /* \"#utility.yul\":6890:6917   */\n      slt\n        /* \"#utility.yul\":6880:7002   */\n      tag_301\n      jumpi\n        /* \"#utility.yul\":6921:7000   */\n      tag_302\n      tag_181\n      jump\t// in\n    tag_302:\n        /* \"#utility.yul\":6880:7002   */\n    tag_301:\n        /* \"#utility.yul\":7038:7044   */\n      dup2\n        /* \"#utility.yul\":7025:7045   */\n      calldataload\n        /* \"#utility.yul\":7063:7142   */\n      tag_303\n        /* \"#utility.yul\":7138:7141   */\n      dup5\n        /* \"#utility.yul\":7130:7136   */\n      dup3\n        /* \"#utility.yul\":7123:7127   */\n      0x20\n        /* \"#utility.yul\":7115:7121   */\n      dup7\n        /* \"#utility.yul\":7111:7128   */\n      add\n        /* \"#utility.yul\":7063:7142   */\n      tag_187\n      jump\t// in\n    tag_303:\n        /* \"#utility.yul\":7054:7142   */\n      swap2\n      pop\n        /* \"#utility.yul\":6870:7148   */\n      pop\n        /* \"#utility.yul\":6808:7148   */\n      swap3\n      swap2\n      pop\n      pop\n      jump\t// out\n        /* \"#utility.yul\":7154:7231   */\n    tag_189:\n        /* \"#utility.yul\":7191:7198   */\n      0x00\n        /* \"#utility.yul\":7220:7225   */\n      dup2\n        /* \"#utility.yul\":7209:7225   */\n      swap1\n      pop\n        /* \"#utility.yul\":7154:7231   */\n      swap2\n      swap1\n      pop\n      jump\t// out\n        /* \"#utility.yul\":7237:7359   */\n    tag_190:\n        /* \"#utility.yul\":7310:7334   */\n      tag_306\n        /* \"#utility.yul\":7328:7333   */\n      dup2\n        /* \"#utility.yul\":7310:7334   */\n      tag_189\n      jump\t// in\n    tag_306:\n        /* \"#utility.yul\":7303:7308   */\n      dup2\n        /* \"#utility.yul\":7300:7335   */\n      eq\n        /* \"#utility.yul\":7290:7353   */\n      tag_307\n      jumpi\n        /* \"#utility.yul\":7349:7350   */\n      0x00\n        /* \"#utility.yul\":7346:7347   */\n      dup1\n        /* \"#utility.yul\":7339:7351   */\n      revert\n        /* \"#utility.yul\":7290:7353   */\n    tag_307:\n        /* \"#utility.yul\":7237:7359   */\n      pop\n      jump\t// out\n        /* \"#utility.yul\":7365:7504   */\n    tag_191:\n        /* \"#utility.yul\":7411:7416   */\n      0x00\n        /* \"#utility.yul\":7449:7455   */\n      dup2\n        /* \"#utility.yul\":7436:7456   */\n      calldataload\n        /* \"#utility.yul\":7427:7456   */\n      swap1\n      pop\n        /* \"#utility.yul\":7465:7498   */\n      tag_309\n        /* \"#utility.yul\":7492:7497   */\n      dup2\n        /* \"#utility.yul\":7465:7498   */\n      tag_190\n      jump\t// in\n    tag_309:\n        /* \"#utility.yul\":7365:7504   */\n      swap3\n      swap2\n      pop\n      pop\n      jump\t// out\n        /* \"#utility.yul\":7510:8489   */\n    tag_25:\n        /* \"#utility.yul\":7607:7613   */\n      0x00\n        /* \"#utility.yul\":7615:7621   */\n      dup1\n        /* \"#utility.yul\":7623:7629   */\n      0x00\n        /* \"#utility.yul\":7672:7674   */\n      0x60\n        /* \"#utility.yul\":7660:7669   */\n      dup5\n        /* \"#utility.yul\":7651:7658   */\n      dup7\n        /* \"#utility.yul\":7647:7670   */\n      sub\n        /* \"#utility.yul\":7643:7675   */\n      slt\n        /* \"#utility.yul\":7640:7759   */\n      iszero\n      tag_311\n      jumpi\n        /* \"#utility.yul\":7678:7757   */\n      tag_312\n      tag_179\n      jump\t// in\n    tag_312:\n        /* \"#utility.yul\":7640:7759   */\n    tag_311:\n        /* \"#utility.yul\":7826:7827   */\n      0x00\n        /* \"#utility.yul\":7815:7824   */\n      dup5\n        /* \"#utility.yul\":7811:7828   */\n      add\n        /* \"#utility.yul\":7798:7829   */\n      calldataload\n        /* \"#utility.yul\":7856:7874   */\n      0xffffffffffffffff\n        /* \"#utility.yul\":7848:7854   */\n      dup2\n        /* \"#utility.yul\":7845:7875   */\n      gt\n        /* \"#utility.yul\":7842:7959   */\n      iszero\n      tag_313\n      jumpi\n        /* \"#utility.yul\":7878:7957   */\n      tag_314\n      tag_180\n      jump\t// in\n    tag_314:\n        /* \"#utility.yul\":7842:7959   */\n    tag_313:\n        /* \"#utility.yul\":7983:8046   */\n      tag_315\n        /* \"#utility.yul\":8038:8045   */\n      dup7\n        /* \"#utility.yul\":8029:8035   */\n      dup3\n        /* \"#utility.yul\":8018:8027   */\n      dup8\n        /* \"#utility.yul\":8014:8036   */\n      add\n        /* \"#utility.yul\":7983:8046   */\n      tag_188\n      jump\t// in\n    tag_315:\n        /* \"#utility.yul\":7973:8046   */\n      swap4\n      pop\n        /* \"#utility.yul\":7769:8056   */\n      pop\n        /* \"#utility.yul\":8095:8097   */\n      0x20\n        /* \"#utility.yul\":8121:8174   */\n      tag_316\n        /* \"#utility.yul\":8166:8173   */\n      dup7\n        /* \"#utility.yul\":8157:8163   */\n      dup3\n        /* \"#utility.yul\":8146:8155   */\n      dup8\n        /* \"#utility.yul\":8142:8164   */\n      add\n        /* \"#utility.yul\":8121:8174   */\n      tag_191\n      jump\t// in\n    tag_316:\n        /* \"#utility.yul\":8111:8174   */\n      swap3\n      pop\n        /* \"#utility.yul\":8066:8184   */\n      pop\n        /* \"#utility.yul\":8251:8253   */\n      0x40\n        /* \"#utility.yul\":8240:8249   */\n      dup5\n        /* \"#utility.yul\":8236:8254   */\n      add\n        /* \"#utility.yul\":8223:8255   */\n      calldataload\n        /* \"#utility.yul\":8282:8300   */\n      0xffffffffffffffff\n        /* \"#utility.yul\":8274:8280   */\n      dup2\n        /* \"#utility.yul\":8271:8301   */\n      gt\n        /* \"#utility.yul\":8268:8385   */\n      iszero\n      tag_317\n      jumpi\n        /* \"#utility.yul\":8304:8383   */\n      tag_318\n      tag_180\n      jump\t// in\n    tag_318:\n        /* \"#utility.yul\":8268:8385   */\n    tag_317:\n        /* \"#utility.yul\":8409:8472   */\n      tag_319\n        /* \"#utility.yul\":8464:8471   */\n      dup7\n        /* \"#utility.yul\":8455:8461   */\n      dup3\n        /* \"#utility.yul\":8444:8453   */\n      dup8\n        /* \"#utility.yul\":8440:8462   */\n      add\n        /* \"#utility.yul\":8409:8472   */\n      tag_188\n      jump\t// in\n    tag_319:\n        /* \"#utility.yul\":8399:8472   */\n      swap2\n      pop\n        /* \"#utility.yul\":8194:8482   */\n      pop\n        /* \"#utility.yul\":7510:8489   */\n      swap3\n      pop\n      swap3\n      pop\n      swap3\n      jump\t// out\n        /* \"#utility.yul\":8495:9004   */\n    tag_32:\n        /* \"#utility.yul\":8564:8570   */\n      0x00\n        /* \"#utility.yul\":8613:8615   */\n      0x20\n        /* \"#utility.yul\":8601:8610   */\n      dup3\n        /* \"#utility.yul\":8592:8599   */\n      dup5\n        /* \"#utility.yul\":8588:8611   */\n      sub\n        /* \"#utility.yul\":8584:8616   */\n      slt\n        /* \"#utility.yul\":8581:8700   */\n      iszero\n      tag_321\n      jumpi\n        /* \"#utility.yul\":8619:8698   */\n      tag_322\n      tag_179\n      jump\t// in\n    tag_322:\n        /* \"#utility.yul\":8581:8700   */\n    tag_321:\n        /* \"#utility.yul\":8767:8768   */\n      0x00\n        /* \"#utility.yul\":8756:8765   */\n      dup3\n        /* \"#utility.yul\":8752:8769   */\n      add\n        /* \"#utility.yul\":8739:8770   */\n      calldataload\n        /* \"#utility.yul\":8797:8815   */\n      0xffffffffffffffff\n        /* \"#utility.yul\":8789:8795   */\n      dup2\n        /* \"#utility.yul\":8786:8816   */\n      gt\n        /* \"#utility.yul\":8783:8900   */\n      iszero\n      tag_323\n      jumpi\n        /* \"#utility.yul\":8819:8898   */\n      tag_324\n      tag_180\n      jump\t// in\n    tag_324:\n        /* \"#utility.yul\":8783:8900   */\n    tag_323:\n        /* \"#utility.yul\":8924:8987   */\n      tag_325\n        /* \"#utility.yul\":8979:8986   */\n      dup5\n        /* \"#utility.yul\":8970:8976   */\n      dup3\n        /* \"#utility.yul\":8959:8968   */\n      dup6\n        /* \"#utility.yul\":8955:8977   */\n      add\n        /* \"#utility.yul\":8924:8987   */\n      tag_188\n      jump\t// in\n    tag_325:\n        /* \"#utility.yul\":8914:8987   */\n      swap2\n      pop\n        /* \"#utility.yul\":8710:8997   */\n      pop\n        /* \"#utility.yul\":8495:9004   */\n      swap3\n      swap2\n      pop\n      pop\n      jump\t// out\n        /* \"#utility.yul\":9010:9128   */\n    tag_192:\n        /* \"#utility.yul\":9097:9121   */\n      tag_327\n        /* \"#utility.yul\":9115:9120   */\n      dup2\n        /* \"#utility.yul\":9097:9121   */\n      tag_189\n      jump\t// in\n    tag_327:\n        /* \"#utility.yul\":9092:9095   */\n      dup3\n        /* \"#utility.yul\":9085:9122   */\n      mstore\n        /* \"#utility.yul\":9010:9128   */\n      pop\n      pop\n      jump\t// out\n        /* \"#utility.yul\":9134:9356   */\n    tag_35:\n        /* \"#utility.yul\":9227:9231   */\n      0x00\n        /* \"#utility.yul\":9265:9267   */\n      0x20\n        /* \"#utility.yul\":9254:9263   */\n      dup3\n        /* \"#utility.yul\":9250:9268   */\n      add\n        /* \"#utility.yul\":9242:9268   */\n      swap1\n      pop\n        /* \"#utility.yul\":9278:9349   */\n      tag_329\n        /* \"#utility.yul\":9346:9347   */\n      0x00\n        /* \"#utility.yul\":9335:9344   */\n      dup4\n        /* \"#utility.yul\":9331:9348   */\n      add\n        /* \"#utility.yul\":9322:9328   */\n      dup5\n        /* \"#utility.yul\":9278:9349   */\n      tag_192\n      jump\t// in\n    tag_329:\n        /* \"#utility.yul\":9134:9356   */\n      swap3\n      swap2\n      pop\n      pop\n      jump\t// out\n        /* \"#utility.yul\":9362:9542   */\n    tag_193:\n        /* \"#utility.yul\":9410:9487   */\n      0x4e487b7100000000000000000000000000000000000000000000000000000000\n        /* \"#utility.yul\":9407:9408   */\n      0x00\n        /* \"#utility.yul\":9400:9488   */\n      mstore\n        /* \"#utility.yul\":9507:9511   */\n      0x22\n        /* \"#utility.yul\":9504:9505   */\n      0x04\n        /* \"#utility.yul\":9497:9512   */\n      mstore\n        /* \"#utility.yul\":9531:9535   */\n      0x24\n        /* \"#utility.yul\":9528:9529   */\n      0x00\n        /* \"#utility.yul\":9521:9536   */\n      revert\n        /* \"#utility.yul\":9548:9868   */\n    tag_44:\n        /* \"#utility.yul\":9592:9598   */\n      0x00\n        /* \"#utility.yul\":9629:9630   */\n      0x02\n        /* \"#utility.yul\":9623:9627   */\n      dup3\n        /* \"#utility.yul\":9619:9631   */\n      div\n        /* \"#utility.yul\":9609:9631   */\n      swap1\n      pop\n        /* \"#utility.yul\":9676:9677   */\n      0x01\n        /* \"#utility.yul\":9670:9674   */\n      dup3\n        /* \"#utility.yul\":9666:9678   */\n      and\n        /* \"#utility.yul\":9697:9715   */\n      dup1\n        /* \"#utility.yul\":9687:9768   */\n      tag_332\n      jumpi\n        /* \"#utility.yul\":9753:9757   */\n      0x7f\n        /* \"#utility.yul\":9745:9751   */\n      dup3\n        /* \"#utility.yul\":9741:9758   */\n      and\n        /* \"#utility.yul\":9731:9758   */\n      swap2\n      pop\n        /* \"#utility.yul\":9687:9768   */\n    tag_332:\n        /* \"#utility.yul\":9815:9817   */\n      0x20\n        /* \"#utility.yul\":9807:9813   */\n      dup3\n        /* \"#utility.yul\":9804:9818   */\n      lt\n        /* \"#utility.yul\":9784:9802   */\n      dup2\n        /* \"#utility.yul\":9781:9819   */\n      sub\n        /* \"#utility.yul\":9778:9862   */\n      tag_333\n      jumpi\n        /* \"#utility.yul\":9834:9852   */\n      tag_334\n      tag_193\n      jump\t// in\n    tag_334:\n        /* \"#utility.yul\":9778:9862   */\n    tag_333:\n        /* \"#utility.yul\":9599:9868   */\n      pop\n        /* \"#utility.yul\":9548:9868   */\n      swap2\n      swap1\n      pop\n      jump\t// out\n        /* \"#utility.yul\":9874:10054   */\n    tag_55:\n        /* \"#utility.yul\":9922:9999   */\n      0x4e487b7100000000000000000000000000000000000000000000000000000000\n        /* \"#utility.yul\":9919:9920   */\n      0x00\n        /* \"#utility.yul\":9912:10000   */\n      mstore\n        /* \"#utility.yul\":10019:10023   */\n      0x32\n        /* \"#utility.yul\":10016:10017   */\n      0x04\n        /* \"#utility.yul\":10009:10024   */\n      mstore\n        /* \"#utility.yul\":10043:10047   */\n      0x24\n        /* \"#utility.yul\":10040:10041   */\n      0x00\n        /* \"#utility.yul\":10033:10048   */\n      revert\n        /* \"#utility.yul\":10060:10208   */\n    tag_194:\n        /* \"#utility.yul\":10162:10173   */\n      0x00\n        /* \"#utility.yul\":10199:10202   */\n      dup2\n        /* \"#utility.yul\":10184:10202   */\n      swap1\n      pop\n        /* \"#utility.yul\":10060:10208   */\n      swap3\n      swap2\n      pop\n      pop\n      jump\t// out\n        /* \"#utility.yul\":10214:10604   */\n    tag_195:\n        /* \"#utility.yul\":10320:10323   */\n      0x00\n        /* \"#utility.yul\":10348:10387   */\n      tag_338\n        /* \"#utility.yul\":10381:10386   */\n      dup3\n        /* \"#utility.yul\":10348:10387   */\n      tag_165\n      jump\t// in\n    tag_338:\n        /* \"#utility.yul\":10403:10492   */\n      tag_339\n        /* \"#utility.yul\":10485:10491   */\n      dup2\n        /* \"#utility.yul\":10480:10483   */\n      dup6\n        /* \"#utility.yul\":10403:10492   */\n      tag_194\n      jump\t// in\n    tag_339:\n        /* \"#utility.yul\":10396:10492   */\n      swap4\n      pop\n        /* \"#utility.yul\":10501:10566   */\n      tag_340\n        /* \"#utility.yul\":10559:10565   */\n      dup2\n        /* \"#utility.yul\":10554:10557   */\n      dup6\n        /* \"#utility.yul\":10547:10551   */\n      0x20\n        /* \"#utility.yul\":10540:10545   */\n      dup7\n        /* \"#utility.yul\":10536:10552   */\n      add\n        /* \"#utility.yul\":10501:10566   */\n      tag_167\n      jump\t// in\n    tag_340:\n        /* \"#utility.yul\":10591:10597   */\n      dup1\n        /* \"#utility.yul\":10586:10589   */\n      dup5\n        /* \"#utility.yul\":10582:10598   */\n      add\n        /* \"#utility.yul\":10575:10598   */\n      swap2\n      pop\n        /* \"#utility.yul\":10324:10604   */\n      pop\n        /* \"#utility.yul\":10214:10604   */\n      swap3\n      swap2\n      pop\n      pop\n      jump\t// out\n        /* \"#utility.yul\":10610:10766   */\n    tag_196:\n        /* \"#utility.yul\":10750:10754   */\n      0x2820000000000000000000000000000000000000000000000000000000000000\n        /* \"#utility.yul\":10746:10747   */\n      0x00\n        /* \"#utility.yul\":10738:10744   */\n      dup3\n        /* \"#utility.yul\":10734:10748   */\n      add\n        /* \"#utility.yul\":10727:10755   */\n      mstore\n        /* \"#utility.yul\":10610:10766   */\n      pop\n      jump\t// out\n        /* \"#utility.yul\":10776:11192   */\n    tag_197:\n        /* \"#utility.yul\":10936:10939   */\n      0x00\n        /* \"#utility.yul\":10961:11045   */\n      tag_343\n        /* \"#utility.yul\":11043:11044   */\n      0x02\n        /* \"#utility.yul\":11038:11041   */\n      dup4\n        /* \"#utility.yul\":10961:11045   */\n      tag_194\n      jump\t// in\n    tag_343:\n        /* \"#utility.yul\":10954:11045   */\n      swap2\n      pop\n        /* \"#utility.yul\":11058:11151   */\n      tag_344\n        /* \"#utility.yul\":11147:11150   */\n      dup3\n        /* \"#utility.yul\":11058:11151   */\n      tag_196\n      jump\t// in\n    tag_344:\n        /* \"#utility.yul\":11180:11181   */\n      0x02\n        /* \"#utility.yul\":11175:11178   */\n      dup3\n        /* \"#utility.yul\":11171:11182   */\n      add\n        /* \"#utility.yul\":11164:11182   */\n      swap1\n      pop\n        /* \"#utility.yul\":10776:11192   */\n      swap2\n      swap1\n      pop\n      jump\t// out\n        /* \"#utility.yul\":11202:11359   */\n    tag_198:\n        /* \"#utility.yul\":11251:11255   */\n      0x00\n        /* \"#utility.yul\":11278:11281   */\n      dup2\n        /* \"#utility.yul\":11270:11281   */\n      swap1\n      pop\n        /* \"#utility.yul\":11305:11308   */\n      dup2\n        /* \"#utility.yul\":11302:11303   */\n      0x00\n        /* \"#utility.yul\":11295:11309   */\n      mstore\n        /* \"#utility.yul\":11343:11347   */\n      0x20\n        /* \"#utility.yul\":11340:11341   */\n      0x00\n        /* \"#utility.yul\":11330:11348   */\n      keccak256\n        /* \"#utility.yul\":11322:11348   */\n      swap1\n      pop\n        /* \"#utility.yul\":11202:11359   */\n      swap2\n      swap1\n      pop\n      jump\t// out\n        /* \"#utility.yul\":11397:12351   */\n    tag_199:\n        /* \"#utility.yul\":11500:11503   */\n      0x00\n        /* \"#utility.yul\":11541:11546   */\n      dup2\n        /* \"#utility.yul\":11535:11547   */\n      sload\n        /* \"#utility.yul\":11574:11610   */\n      tag_347\n        /* \"#utility.yul\":11600:11609   */\n      dup2\n        /* \"#utility.yul\":11574:11610   */\n      tag_44\n      jump\t// in\n    tag_347:\n        /* \"#utility.yul\":11630:11719   */\n      tag_348\n        /* \"#utility.yul\":11712:11718   */\n      dup2\n        /* \"#utility.yul\":11707:11710   */\n      dup7\n        /* \"#utility.yul\":11630:11719   */\n      tag_194\n      jump\t// in\n    tag_348:\n        /* \"#utility.yul\":11623:11719   */\n      swap5\n      pop\n        /* \"#utility.yul\":11754:11755   */\n      0x01\n        /* \"#utility.yul\":11743:11752   */\n      dup3\n        /* \"#utility.yul\":11739:11756   */\n      and\n        /* \"#utility.yul\":11774:11775   */\n      0x00\n        /* \"#utility.yul\":11769:11951   */\n      dup2\n      eq\n      tag_350\n      jumpi\n        /* \"#utility.yul\":11969:11970   */\n      0x01\n        /* \"#utility.yul\":11964:12341   */\n      dup2\n      eq\n      tag_351\n      jumpi\n        /* \"#utility.yul\":11732:12341   */\n      jump(tag_349)\n        /* \"#utility.yul\":11769:11951   */\n    tag_350:\n        /* \"#utility.yul\":11861:11865   */\n      0xff\n        /* \"#utility.yul\":11857:11866   */\n      not\n        /* \"#utility.yul\":11846:11855   */\n      dup4\n        /* \"#utility.yul\":11842:11867   */\n      and\n        /* \"#utility.yul\":11837:11840   */\n      dup7\n        /* \"#utility.yul\":11830:11868   */\n      mstore\n        /* \"#utility.yul\":11927:11933   */\n      dup2\n        /* \"#utility.yul\":11920:11934   */\n      iszero\n        /* \"#utility.yul\":11913:11935   */\n      iszero\n        /* \"#utility.yul\":11905:11911   */\n      dup3\n        /* \"#utility.yul\":11901:11936   */\n      mul\n        /* \"#utility.yul\":11896:11899   */\n      dup7\n        /* \"#utility.yul\":11892:11937   */\n      add\n        /* \"#utility.yul\":11885:11937   */\n      swap4\n      pop\n        /* \"#utility.yul\":11769:11951   */\n      jump(tag_349)\n        /* \"#utility.yul\":11964:12341   */\n    tag_351:\n        /* \"#utility.yul\":12039:12077   */\n      tag_352\n        /* \"#utility.yul\":12071:12076   */\n      dup6\n        /* \"#utility.yul\":12039:12077   */\n      tag_198\n      jump\t// in\n    tag_352:\n        /* \"#utility.yul\":12103:12104   */\n      0x00\n        /* \"#utility.yul\":12121:12287   */\n    tag_353:\n        /* \"#utility.yul\":12135:12141   */\n      dup4\n        /* \"#utility.yul\":12132:12133   */\n      dup2\n        /* \"#utility.yul\":12129:12142   */\n      lt\n        /* \"#utility.yul\":12121:12287   */\n      iszero\n      tag_355\n      jumpi\n        /* \"#utility.yul\":12213:12220   */\n      dup2\n        /* \"#utility.yul\":12207:12221   */\n      sload\n        /* \"#utility.yul\":12203:12204   */\n      dup2\n        /* \"#utility.yul\":12198:12201   */\n      dup10\n        /* \"#utility.yul\":12194:12205   */\n      add\n        /* \"#utility.yul\":12187:12222   */\n      mstore\n        /* \"#utility.yul\":12267:12268   */\n      0x01\n        /* \"#utility.yul\":12258:12265   */\n      dup3\n        /* \"#utility.yul\":12254:12269   */\n      add\n        /* \"#utility.yul\":12243:12269   */\n      swap2\n      pop\n        /* \"#utility.yul\":12157:12161   */\n      0x20\n        /* \"#utility.yul\":12154:12155   */\n      dup2\n        /* \"#utility.yul\":12150:12162   */\n      add\n        /* \"#utility.yul\":12145:12162   */\n      swap1\n      pop\n        /* \"#utility.yul\":12121:12287   */\n      jump(tag_353)\n    tag_355:\n        /* \"#utility.yul\":12320:12326   */\n      dup4\n        /* \"#utility.yul\":12315:12318   */\n      dup9\n        /* \"#utility.yul\":12311:12327   */\n      add\n        /* \"#utility.yul\":12304:12327   */\n      swap6\n      pop\n        /* \"#utility.yul\":11971:12341   */\n      pop\n      pop\n        /* \"#utility.yul\":11732:12341   */\n    tag_349:\n      pop\n        /* \"#utility.yul\":11504:12351   */\n      pop\n      pop\n        /* \"#utility.yul\":11397:12351   */\n      swap3\n      swap2\n      pop\n      pop\n      jump\t// out\n        /* \"#utility.yul\":12361:12521   */\n    tag_200:\n        /* \"#utility.yul\":12505:12509   */\n      0x2c20000000000000000000000000000000000000000000000000000000000000\n        /* \"#utility.yul\":12501:12502   */\n      0x00\n        /* \"#utility.yul\":12493:12499   */\n      dup3\n        /* \"#utility.yul\":12489:12503   */\n      add\n        /* \"#utility.yul\":12482:12510   */\n      mstore\n        /* \"#utility.yul\":12361:12521   */\n      pop\n      jump\t// out\n        /* \"#utility.yul\":12531:12947   */\n    tag_201:\n        /* \"#utility.yul\":12691:12694   */\n      0x00\n        /* \"#utility.yul\":12716:12800   */\n      tag_358\n        /* \"#utility.yul\":12798:12799   */\n      0x02\n        /* \"#utility.yul\":12793:12796   */\n      dup4\n        /* \"#utility.yul\":12716:12800   */\n      tag_194\n      jump\t// in\n    tag_358:\n        /* \"#utility.yul\":12709:12800   */\n      swap2\n      pop\n        /* \"#utility.yul\":12813:12906   */\n      tag_359\n        /* \"#utility.yul\":12902:12905   */\n      dup3\n        /* \"#utility.yul\":12813:12906   */\n      tag_200\n      jump\t// in\n    tag_359:\n        /* \"#utility.yul\":12935:12936   */\n      0x02\n        /* \"#utility.yul\":12930:12933   */\n      dup3\n        /* \"#utility.yul\":12926:12937   */\n      add\n        /* \"#utility.yul\":12919:12937   */\n      swap1\n      pop\n        /* \"#utility.yul\":12531:12947   */\n      swap2\n      swap1\n      pop\n      jump\t// out\n        /* \"#utility.yul\":12957:13110   */\n    tag_202:\n        /* \"#utility.yul\":13097:13102   */\n      0x2029200000000000000000000000000000000000000000000000000000000000\n        /* \"#utility.yul\":13093:13094   */\n      0x00\n        /* \"#utility.yul\":13085:13091   */\n      dup3\n        /* \"#utility.yul\":13081:13095   */\n      add\n        /* \"#utility.yul\":13074:13103   */\n      mstore\n        /* \"#utility.yul\":12957:13110   */\n      pop\n      jump\t// out\n        /* \"#utility.yul\":13116:13516   */\n    tag_203:\n        /* \"#utility.yul\":13276:13279   */\n      0x00\n        /* \"#utility.yul\":13297:13381   */\n      tag_362\n        /* \"#utility.yul\":13379:13380   */\n      0x03\n        /* \"#utility.yul\":13374:13377   */\n      dup4\n        /* \"#utility.yul\":13297:13381   */\n      tag_194\n      jump\t// in\n    tag_362:\n        /* \"#utility.yul\":13290:13381   */\n      swap2\n      pop\n        /* \"#utility.yul\":13390:13483   */\n      tag_363\n        /* \"#utility.yul\":13479:13482   */\n      dup3\n        /* \"#utility.yul\":13390:13483   */\n      tag_202\n      jump\t// in\n    tag_363:\n        /* \"#utility.yul\":13508:13509   */\n      0x03\n        /* \"#utility.yul\":13503:13506   */\n      dup3\n        /* \"#utility.yul\":13499:13510   */\n      add\n        /* \"#utility.yul\":13492:13510   */\n      swap1\n      pop\n        /* \"#utility.yul\":13116:13516   */\n      swap2\n      swap1\n      pop\n      jump\t// out\n        /* \"#utility.yul\":13522:14909   */\n    tag_69:\n        /* \"#utility.yul\":14050:14053   */\n      0x00\n        /* \"#utility.yul\":14072:14167   */\n      tag_365\n        /* \"#utility.yul\":14163:14166   */\n      dup3\n        /* \"#utility.yul\":14154:14160   */\n      dup7\n        /* \"#utility.yul\":14072:14167   */\n      tag_195\n      jump\t// in\n    tag_365:\n        /* \"#utility.yul\":14065:14167   */\n      swap2\n      pop\n        /* \"#utility.yul\":14184:14332   */\n      tag_366\n        /* \"#utility.yul\":14328:14331   */\n      dup3\n        /* \"#utility.yul\":14184:14332   */\n      tag_197\n      jump\t// in\n    tag_366:\n        /* \"#utility.yul\":14177:14332   */\n      swap2\n      pop\n        /* \"#utility.yul\":14349:14441   */\n      tag_367\n        /* \"#utility.yul\":14437:14440   */\n      dup3\n        /* \"#utility.yul\":14428:14434   */\n      dup6\n        /* \"#utility.yul\":14349:14441   */\n      tag_199\n      jump\t// in\n    tag_367:\n        /* \"#utility.yul\":14342:14441   */\n      swap2\n      pop\n        /* \"#utility.yul\":14458:14606   */\n      tag_368\n        /* \"#utility.yul\":14602:14605   */\n      dup3\n        /* \"#utility.yul\":14458:14606   */\n      tag_201\n      jump\t// in\n    tag_368:\n        /* \"#utility.yul\":14451:14606   */\n      swap2\n      pop\n        /* \"#utility.yul\":14623:14718   */\n      tag_369\n        /* \"#utility.yul\":14714:14717   */\n      dup3\n        /* \"#utility.yul\":14705:14711   */\n      dup5\n        /* \"#utility.yul\":14623:14718   */\n      tag_195\n      jump\t// in\n    tag_369:\n        /* \"#utility.yul\":14616:14718   */\n      swap2\n      pop\n        /* \"#utility.yul\":14735:14883   */\n      tag_370\n        /* \"#utility.yul\":14879:14882   */\n      dup3\n        /* \"#utility.yul\":14735:14883   */\n      tag_203\n      jump\t// in\n    tag_370:\n        /* \"#utility.yul\":14728:14883   */\n      swap2\n      pop\n        /* \"#utility.yul\":14900:14903   */\n      dup2\n        /* \"#utility.yul\":14893:14903   */\n      swap1\n      pop\n        /* \"#utility.yul\":13522:14909   */\n      swap5\n      swap4\n      pop\n      pop\n      pop\n      pop\n      jump\t// out\n        /* \"#utility.yul\":14915:15095   */\n    tag_204:\n        /* \"#utility.yul\":14963:15040   */\n      0x4e487b7100000000000000000000000000000000000000000000000000000000\n        /* \"#utility.yul\":14960:14961   */\n      0x00\n        /* \"#utility.yul\":14953:15041   */\n      mstore\n        /* \"#utility.yul\":15060:15064   */\n      0x11\n        /* \"#utility.yul\":15057:15058   */\n      0x04\n        /* \"#utility.yul\":15050:15065   */\n      mstore\n        /* \"#utility.yul\":15084:15088   */\n      0x24\n        /* \"#utility.yul\":15081:15082   */\n      0x00\n        /* \"#utility.yul\":15074:15089   */\n      revert\n        /* \"#utility.yul\":15101:15334   */\n    tag_71:\n        /* \"#utility.yul\":15140:15143   */\n      0x00\n        /* \"#utility.yul\":15163:15187   */\n      tag_373\n        /* \"#utility.yul\":15181:15186   */\n      dup3\n        /* \"#utility.yul\":15163:15187   */\n      tag_189\n      jump\t// in\n    tag_373:\n        /* \"#utility.yul\":15154:15187   */\n      swap2\n      pop\n        /* \"#utility.yul\":15209:15275   */\n      0xffffffffffffffffffffffffffffffffffffffffffffffffffffffffffffffff\n        /* \"#utility.yul\":15202:15207   */\n      dup3\n        /* \"#utility.yul\":15199:15276   */\n      sub\n        /* \"#utility.yul\":15196:15299   */\n      tag_374\n      jumpi\n        /* \"#utility.yul\":15279:15297   */\n      tag_375\n      tag_204\n      jump\t// in\n    tag_375:\n        /* \"#utility.yul\":15196:15299   */\n    tag_374:\n        /* \"#utility.yul\":15326:15327   */\n      0x01\n        /* \"#utility.yul\":15319:15324   */\n      dup3\n        /* \"#utility.yul\":15315:15328   */\n      add\n        /* \"#utility.yul\":15308:15328   */\n      swap1\n      pop\n        /* \"#utility.yul\":15101:15334   */\n      swap2\n      swap1\n      pop\n      jump\t// out\n        /* \"#utility.yul\":15340:15419   */\n    tag_205:\n        /* \"#utility.yul\":15379:15386   */\n      0x00\n        /* \"#utility.yul\":15408:15413   */\n      dup2\n        /* \"#utility.yul\":15397:15413   */\n      swap1\n      pop\n        /* \"#utility.yul\":15340:15419   */\n      swap2\n      swap1\n      pop\n      jump\t// out\n        /* \"#utility.yul\":15425:15582   */\n    tag_206:\n        /* \"#utility.yul\":15530:15575   */\n      tag_378\n        /* \"#utility.yul\":15550:15574   */\n      tag_379\n        /* \"#utility.yul\":15568:15573   */\n      dup3\n        /* \"#utility.yul\":15550:15574   */\n      tag_189\n      jump\t// in\n    tag_379:\n        /* \"#utility.yul\":15530:15575   */\n      tag_205\n      jump\t// in\n    tag_378:\n        /* \"#utility.yul\":15525:15528   */\n      dup3\n        /* \"#utility.yul\":15518:15576   */\n      mstore\n        /* \"#utility.yul\":15425:15582   */\n      pop\n      pop\n      jump\t// out\n        /* \"#utility.yul\":15588:16164   */\n    tag_74:\n        /* \"#utility.yul\":15796:15799   */\n      0x00\n        /* \"#utility.yul\":15818:15913   */\n      tag_381\n        /* \"#utility.yul\":15909:15912   */\n      dup3\n        /* \"#utility.yul\":15900:15906   */\n      dup7\n        /* \"#utility.yul\":15818:15913   */\n      tag_195\n      jump\t// in\n    tag_381:\n        /* \"#utility.yul\":15811:15913   */\n      swap2\n      pop\n        /* \"#utility.yul\":15923:15998   */\n      tag_382\n        /* \"#utility.yul\":15994:15997   */\n      dup3\n        /* \"#utility.yul\":15985:15991   */\n      dup6\n        /* \"#utility.yul\":15923:15998   */\n      tag_206\n      jump\t// in\n    tag_382:\n        /* \"#utility.yul\":16023:16025   */\n      0x20\n        /* \"#utility.yul\":16018:16021   */\n      dup3\n        /* \"#utility.yul\":16014:16026   */\n      add\n        /* \"#utility.yul\":16007:16026   */\n      swap2\n      pop\n        /* \"#utility.yul\":16043:16138   */\n      tag_383\n        /* \"#utility.yul\":16134:16137   */\n      dup3\n        /* \"#utility.yul\":16125:16131   */\n      dup5\n        /* \"#utility.yul\":16043:16138   */\n      tag_195\n      jump\t// in\n    tag_383:\n        /* \"#utility.yul\":16036:16138   */\n      swap2\n      pop\n        /* \"#utility.yul\":16155:16158   */\n      dup2\n        /* \"#utility.yul\":16148:16158   */\n      swap1\n      pop\n        /* \"#utility.yul\":15588:16164   */\n      swap5\n      swap4\n      pop\n      pop\n      pop\n      pop\n      jump\t// out\n        /* \"#utility.yul\":16170:16445   */\n    tag_76:\n        /* \"#utility.yul\":16302:16305   */\n      0x00\n        /* \"#utility.yul\":16324:16419   */\n      tag_385\n        /* \"#utility.yul\":16415:16418   */\n      dup3\n        /* \"#utility.yul\":16406:16412   */\n      dup5\n        /* \"#utility.yul\":16324:16419   */\n      tag_195\n      jump\t// in\n    tag_385:\n        /* \"#utility.yul\":16317:16419   */\n      swap2\n      pop\n        /* \"#utility.yul\":16436:16439   */\n      dup2\n        /* \"#utility.yul\":16429:16439   */\n      swap1\n      pop\n        /* \"#utility.yul\":16170:16445   */\n      swap3\n      swap2\n      pop\n      pop\n      jump\t// out\n        /* \"#utility.yul\":16451:16544   */\n    tag_207:\n        /* \"#utility.yul\":16488:16494   */\n      0x00\n        /* \"#utility.yul\":16535:16537   */\n      0x20\n        /* \"#utility.yul\":16530:16532   */\n      0x1f\n        /* \"#utility.yul\":16523:16528   */\n      dup4\n        /* \"#utility.yul\":16519:16533   */\n      add\n        /* \"#utility.yul\":16515:16538   */\n      div\n        /* \"#utility.yul\":16505:16538   */\n      swap1\n      pop\n        /* \"#utility.yul\":16451:16544   */\n      swap2\n      swap1\n      pop\n      jump\t// out\n        /* \"#utility.yul\":16550:16657   */\n    tag_208:\n        /* \"#utility.yul\":16594:16602   */\n      0x00\n        /* \"#utility.yul\":16644:16649   */\n      dup3\n        /* \"#utility.yul\":16638:16642   */\n      dup3\n        /* \"#utility.yul\":16634:16650   */\n      shl\n        /* \"#utility.yul\":16613:16650   */\n      swap1\n      pop\n        /* \"#utility.yul\":16550:16657   */\n      swap3\n      swap2\n      pop\n      pop\n      jump\t// out\n        /* \"#utility.yul\":16663:17056   */\n    tag_209:\n        /* \"#utility.yul\":16732:16738   */\n      0x00\n        /* \"#utility.yul\":16782:16783   */\n      0x08\n        /* \"#utility.yul\":16770:16780   */\n      dup4\n        /* \"#utility.yul\":16766:16784   */\n      mul\n        /* \"#utility.yul\":16805:16902   */\n      tag_389\n        /* \"#utility.yul\":16835:16901   */\n      0xffffffffffffffffffffffffffffffffffffffffffffffffffffffffffffffff\n        /* \"#utility.yul\":16824:16833   */\n      dup3\n        /* \"#utility.yul\":16805:16902   */\n      tag_208\n      jump\t// in\n    tag_389:\n        /* \"#utility.yul\":16923:16962   */\n      tag_390\n        /* \"#utility.yul\":16953:16961   */\n      dup7\n        /* \"#utility.yul\":16942:16951   */\n      dup4\n        /* \"#utility.yul\":16923:16962   */\n      tag_208\n      jump\t// in\n    tag_390:\n        /* \"#utility.yul\":16911:16962   */\n      swap6\n      pop\n        /* \"#utility.yul\":16995:16999   */\n      dup1\n        /* \"#utility.yul\":16991:17000   */\n      not\n        /* \"#utility.yul\":16984:16989   */\n      dup5\n        /* \"#utility.yul\":16980:17001   */\n      and\n        /* \"#utility.yul\":16971:17001   */\n      swap4\n      pop\n        /* \"#utility.yul\":17044:17048   */\n      dup1\n        /* \"#utility.yul\":17034:17042   */\n      dup7\n        /* \"#utility.yul\":17030:17049   */\n      and\n        /* \"#utility.yul\":17023:17028   */\n      dup5\n        /* \"#utility.yul\":17020:17050   */\n      or\n        /* \"#utility.yul\":17010:17050   */\n      swap3\n      pop\n        /* \"#utility.yul\":16739:17056   */\n      pop\n      pop\n        /* \"#utility.yul\":16663:17056   */\n      swap4\n      swap3\n      pop\n      pop\n      pop\n      jump\t// out\n        /* \"#utility.yul\":17062:17122   */\n    tag_210:\n        /* \"#utility.yul\":17090:17093   */\n      0x00\n        /* \"#utility.yul\":17111:17116   */\n      dup2\n        /* \"#utility.yul\":17104:17116   */\n      swap1\n      pop\n        /* \"#utility.yul\":17062:17122   */\n      swap2\n      swap1\n      pop\n      jump\t// out\n        /* \"#utility.yul\":17128:17270   */\n    tag_211:\n        /* \"#utility.yul\":17178:17187   */\n      0x00\n        /* \"#utility.yul\":17211:17264   */\n      tag_393\n        /* \"#utility.yul\":17229:17263   */\n      tag_394\n        /* \"#utility.yul\":17238:17262   */\n      tag_395\n        /* \"#utility.yul\":17256:17261   */\n      dup5\n        /* \"#utility.yul\":17238:17262   */\n      tag_189\n      jump\t// in\n    tag_395:\n        /* \"#utility.yul\":17229:17263   */\n      tag_210\n      jump\t// in\n    tag_394:\n        /* \"#utility.yul\":17211:17264   */\n      tag_189\n      jump\t// in\n    tag_393:\n        /* \"#utility.yul\":17198:17264   */\n      swap1\n      pop\n        /* \"#utility.yul\":17128:17270   */\n      swap2\n      swap1\n      pop\n      jump\t// out\n        /* \"#utility.yul\":17276:17351   */\n    tag_212:\n        /* \"#utility.yul\":17319:17322   */\n      0x00\n        /* \"#utility.yul\":17340:17345   */\n      dup2\n        /* \"#utility.yul\":17333:17345   */\n      swap1\n      pop\n        /* \"#utility.yul\":17276:17351   */\n      swap2\n      swap1\n      pop\n      jump\t// out\n        /* \"#utility.yul\":17357:17626   */\n    tag_213:\n        /* \"#utility.yul\":17467:17506   */\n      tag_398\n        /* \"#utility.yul\":17498:17505   */\n      dup4\n        /* \"#utility.yul\":17467:17506   */\n      tag_211\n      jump\t// in\n    tag_398:\n        /* \"#utility.yul\":17528:17619   */\n      tag_399\n        /* \"#utility.yul\":17577:17618   */\n      tag_400\n        /* \"#utility.yul\":17601:17617   */\n      dup3\n        /* \"#utility.yul\":17577:17618   */\n      tag_212\n      jump\t// in\n    tag_400:\n        /* \"#utility.yul\":17569:17575   */\n      dup5\n        /* \"#utility.yul\":17562:17566   */\n      dup5\n        /* \"#utility.yul\":17556:17567   */\n      sload\n        /* \"#utility.yul\":17528:17619   */\n      tag_209\n      jump\t// in\n    tag_399:\n        /* \"#utility.yul\":17522:17526   */\n      dup3\n        /* \"#utility.yul\":17515:17620   */\n      sstore\n        /* \"#utility.yul\":17433:17626   */\n      pop\n        /* \"#utility.yul\":17357:17626   */\n      pop\n      pop\n      pop\n      jump\t// out\n        /* \"#utility.yul\":17632:17705   */\n    tag_214:\n        /* \"#utility.yul\":17677:17680   */\n      0x00\n        /* \"#utility.yul\":17632:17705   */\n      swap1\n      jump\t// out\n        /* \"#utility.yul\":17711:17900   */\n    tag_215:\n        /* \"#utility.yul\":17788:17820   */\n      tag_403\n      tag_214\n      jump\t// in\n    tag_403:\n        /* \"#utility.yul\":17829:17894   */\n      tag_404\n        /* \"#utility.yul\":17887:17893   */\n      dup2\n        /* \"#utility.yul\":17879:17885   */\n      dup5\n        /* \"#utility.yul\":17873:17877   */\n      dup5\n        /* \"#utility.yul\":17829:17894   */\n      tag_213\n      jump\t// in\n    tag_404:\n        /* \"#utility.yul\":17764:17900   */\n      pop\n        /* \"#utility.yul\":17711:17900   */\n      pop\n      pop\n      jump\t// out\n        /* \"#utility.yul\":17906:18092   */\n    tag_216:\n        /* \"#utility.yul\":17966:18086   */\n    tag_406:\n        /* \"#utility.yul\":17983:17986   */\n      dup2\n        /* \"#utility.yul\":17976:17981   */\n      dup2\n        /* \"#utility.yul\":17973:17987   */\n      lt\n        /* \"#utility.yul\":17966:18086   */\n      iszero\n      tag_408\n      jumpi\n        /* \"#utility.yul\":18037:18076   */\n      tag_409\n        /* \"#utility.yul\":18074:18075   */\n      0x00\n        /* \"#utility.yul\":18067:18072   */\n      dup3\n        /* \"#utility.yul\":18037:18076   */\n      tag_215\n      jump\t// in\n    tag_409:\n        /* \"#utility.yul\":18010:18011   */\n      0x01\n        /* \"#utility.yul\":18003:18008   */\n      dup2\n        /* \"#utility.yul\":17999:18012   */\n      add\n        /* \"#utility.yul\":17990:18012   */\n      swap1\n      pop\n        /* \"#utility.yul\":17966:18086   */\n      jump(tag_406)\n    tag_408:\n        /* \"#utility.yul\":17906:18092   */\n      pop\n      pop\n      jump\t// out\n        /* \"#utility.yul\":18098:18641   */\n    tag_217:\n        /* \"#utility.yul\":18199:18201   */\n      0x1f\n        /* \"#utility.yul\":18194:18197   */\n      dup3\n        /* \"#utility.yul\":18191:18202   */\n      gt\n        /* \"#utility.yul\":18188:18634   */\n      iszero\n      tag_411\n      jumpi\n        /* \"#utility.yul\":18233:18271   */\n      tag_412\n        /* \"#utility.yul\":18265:18270   */\n      dup2\n        /* \"#utility.yul\":18233:18271   */\n      tag_198\n      jump\t// in\n    tag_412:\n        /* \"#utility.yul\":18317:18346   */\n      tag_413\n        /* \"#utility.yul\":18335:18345   */\n      dup5\n        /* \"#utility.yul\":18317:18346   */\n      tag_207\n      jump\t// in\n    tag_413:\n        /* \"#utility.yul\":18307:18315   */\n      dup2\n        /* \"#utility.yul\":18303:18347   */\n      add\n        /* \"#utility.yul\":18500:18502   */\n      0x20\n        /* \"#utility.yul\":18488:18498   */\n      dup6\n        /* \"#utility.yul\":18485:18503   */\n      lt\n        /* \"#utility.yul\":18482:18531   */\n      iszero\n      tag_414\n      jumpi\n        /* \"#utility.yul\":18521:18529   */\n      dup2\n        /* \"#utility.yul\":18506:18529   */\n      swap1\n      pop\n        /* \"#utility.yul\":18482:18531   */\n    tag_414:\n        /* \"#utility.yul\":18544:18624   */\n      tag_415\n        /* \"#utility.yul\":18600:18622   */\n      tag_416\n        /* \"#utility.yul\":18618:18621   */\n      dup6\n        /* \"#utility.yul\":18600:18622   */\n      tag_207\n      jump\t// in\n    tag_416:\n        /* \"#utility.yul\":18590:18598   */\n      dup4\n        /* \"#utility.yul\":18586:18623   */\n      add\n        /* \"#utility.yul\":18573:18584   */\n      dup3\n        /* \"#utility.yul\":18544:18624   */\n      tag_216\n      jump\t// in\n    tag_415:\n        /* \"#utility.yul\":18203:18634   */\n      pop\n      pop\n        /* \"#utility.yul\":18188:18634   */\n    tag_411:\n        /* \"#utility.yul\":18098:18641   */\n      pop\n      pop\n      pop\n      jump\t// out\n        /* \"#utility.yul\":18647:18764   */\n    tag_218:\n        /* \"#utility.yul\":18701:18709   */\n      0x00\n        /* \"#utility.yul\":18751:18756   */\n      dup3\n        /* \"#utility.yul\":18745:18749   */\n      dup3\n        /* \"#utility.yul\":18741:18757   */\n      shr\n        /* \"#utility.yul\":18720:18757   */\n      swap1\n      pop\n        /* \"#utility.yul\":18647:18764   */\n      swap3\n      swap2\n      pop\n      pop\n      jump\t// out\n        /* \"#utility.yul\":18770:18939   */\n    tag_219:\n        /* \"#utility.yul\":18814:18820   */\n      0x00\n        /* \"#utility.yul\":18847:18898   */\n      tag_419\n        /* \"#utility.yul\":18895:18896   */\n      0x00\n        /* \"#utility.yul\":18891:18897   */\n      not\n        /* \"#utility.yul\":18883:18888   */\n      dup5\n        /* \"#utility.yul\":18880:18881   */\n      0x08\n        /* \"#utility.yul\":18876:18889   */\n      mul\n        /* \"#utility.yul\":18847:18898   */\n      tag_218\n      jump\t// in\n    tag_419:\n        /* \"#utility.yul\":18843:18899   */\n      not\n        /* \"#utility.yul\":18928:18932   */\n      dup1\n        /* \"#utility.yul\":18922:18926   */\n      dup4\n        /* \"#utility.yul\":18918:18933   */\n      and\n        /* \"#utility.yul\":18908:18933   */\n      swap2\n      pop\n        /* \"#utility.yul\":18821:18939   */\n      pop\n        /* \"#utility.yul\":18770:18939   */\n      swap3\n      swap2\n      pop\n      pop\n      jump\t// out\n        /* \"#utility.yul\":18944:19239   */\n    tag_220:\n        /* \"#utility.yul\":19020:19024   */\n      0x00\n        /* \"#utility.yul\":19166:19195   */\n      tag_421\n        /* \"#utility.yul\":19191:19194   */\n      dup4\n        /* \"#utility.yul\":19185:19189   */\n      dup4\n        /* \"#utility.yul\":19166:19195   */\n      tag_219\n      jump\t// in\n    tag_421:\n        /* \"#utility.yul\":19158:19195   */\n      swap2\n      pop\n        /* \"#utility.yul\":19228:19231   */\n      dup3\n        /* \"#utility.yul\":19225:19226   */\n      0x02\n        /* \"#utility.yul\":19221:19232   */\n      mul\n        /* \"#utility.yul\":19215:19219   */\n      dup3\n        /* \"#utility.yul\":19212:19233   */\n      or\n        /* \"#utility.yul\":19204:19233   */\n      swap1\n      pop\n        /* \"#utility.yul\":18944:19239   */\n      swap3\n      swap2\n      pop\n      pop\n      jump\t// out\n        /* \"#utility.yul\":19244:20639   */\n    tag_79:\n        /* \"#utility.yul\":19361:19398   */\n      tag_423\n        /* \"#utility.yul\":19394:19397   */\n      dup3\n        /* \"#utility.yul\":19361:19398   */\n      tag_165\n      jump\t// in\n    tag_423:\n        /* \"#utility.yul\":19463:19481   */\n      0xffffffffffffffff\n        /* \"#utility.yul\":19455:19461   */\n      dup2\n        /* \"#utility.yul\":19452:19482   */\n      gt\n        /* \"#utility.yul\":19449:19505   */\n      iszero\n      tag_424\n      jumpi\n        /* \"#utility.yul\":19485:19503   */\n      tag_425\n      tag_147\n      jump\t// in\n    tag_425:\n        /* \"#utility.yul\":19449:19505   */\n    tag_424:\n        /* \"#utility.yul\":19529:19567   */\n      tag_426\n        /* \"#utility.yul\":19561:19565   */\n      dup3\n        /* \"#utility.yul\":19555:19566   */\n      sload\n        /* \"#utility.yul\":19529:19567   */\n      tag_44\n      jump\t// in\n    tag_426:\n        /* \"#utility.yul\":19614:19681   */\n      tag_427\n        /* \"#utility.yul\":19674:19680   */\n      dup3\n        /* \"#utility.yul\":19666:19672   */\n      dup3\n        /* \"#utility.yul\":19660:19664   */\n      dup6\n        /* \"#utility.yul\":19614:19681   */\n      tag_217\n      jump\t// in\n    tag_427:\n        /* \"#utility.yul\":19708:19709   */\n      0x00\n        /* \"#utility.yul\":19732:19736   */\n      0x20\n        /* \"#utility.yul\":19719:19736   */\n      swap1\n      pop\n        /* \"#utility.yul\":19764:19766   */\n      0x1f\n        /* \"#utility.yul\":19756:19762   */\n      dup4\n        /* \"#utility.yul\":19753:19767   */\n      gt\n        /* \"#utility.yul\":19781:19782   */\n      0x01\n        /* \"#utility.yul\":19776:20394   */\n      dup2\n      eq\n      tag_429\n      jumpi\n        /* \"#utility.yul\":20438:20439   */\n      0x00\n        /* \"#utility.yul\":20455:20461   */\n      dup5\n        /* \"#utility.yul\":20452:20529   */\n      iszero\n      tag_430\n      jumpi\n        /* \"#utility.yul\":20504:20513   */\n      dup3\n        /* \"#utility.yul\":20499:20502   */\n      dup8\n        /* \"#utility.yul\":20495:20514   */\n      add\n        /* \"#utility.yul\":20489:20515   */\n      mload\n        /* \"#utility.yul\":20480:20515   */\n      swap1\n      pop\n        /* \"#utility.yul\":20452:20529   */\n    tag_430:\n        /* \"#utility.yul\":20555:20622   */\n      tag_431\n        /* \"#utility.yul\":20615:20621   */\n      dup6\n        /* \"#utility.yul\":20608:20613   */\n      dup3\n        /* \"#utility.yul\":20555:20622   */\n      tag_220\n      jump\t// in\n    tag_431:\n        /* \"#utility.yul\":20549:20553   */\n      dup7\n        /* \"#utility.yul\":20542:20623   */\n      sstore\n        /* \"#utility.yul\":20411:20633   */\n      pop\n        /* \"#utility.yul\":19746:20633   */\n      jump(tag_428)\n        /* \"#utility.yul\":19776:20394   */\n    tag_429:\n        /* \"#utility.yul\":19828:19832   */\n      0x1f\n        /* \"#utility.yul\":19824:19833   */\n      not\n        /* \"#utility.yul\":19816:19822   */\n      dup5\n        /* \"#utility.yul\":19812:19834   */\n      and\n        /* \"#utility.yul\":19862:19899   */\n      tag_432\n        /* \"#utility.yul\":19894:19898   */\n      dup7\n        /* \"#utility.yul\":19862:19899   */\n      tag_198\n      jump\t// in\n    tag_432:\n        /* \"#utility.yul\":19921:19922   */\n      0x00\n        /* \"#utility.yul\":19935:20143   */\n    tag_433:\n        /* \"#utility.yul\":19949:19956   */\n      dup3\n        /* \"#utility.yul\":19946:19947   */\n      dup2\n        /* \"#utility.yul\":19943:19957   */\n      lt\n        /* \"#utility.yul\":19935:20143   */\n      iszero\n      tag_435\n      jumpi\n        /* \"#utility.yul\":20028:20037   */\n      dup5\n        /* \"#utility.yul\":20023:20026   */\n      dup10\n        /* \"#utility.yul\":20019:20038   */\n      add\n        /* \"#utility.yul\":20013:20039   */\n      mload\n        /* \"#utility.yul\":20005:20011   */\n      dup3\n        /* \"#utility.yul\":19998:20040   */\n      sstore\n        /* \"#utility.yul\":20079:20080   */\n      0x01\n        /* \"#utility.yul\":20071:20077   */\n      dup3\n        /* \"#utility.yul\":20067:20081   */\n      add\n        /* \"#utility.yul\":20057:20081   */\n      swap2\n      pop\n        /* \"#utility.yul\":20126:20128   */\n      0x20\n        /* \"#utility.yul\":20115:20124   */\n      dup6\n        /* \"#utility.yul\":20111:20129   */\n      add\n        /* \"#utility.yul\":20098:20129   */\n      swap5\n      pop\n        /* \"#utility.yul\":19972:19976   */\n      0x20\n        /* \"#utility.yul\":19969:19970   */\n      dup2\n        /* \"#utility.yul\":19965:19977   */\n      add\n        /* \"#utility.yul\":19960:19977   */\n      swap1\n      pop\n        /* \"#utility.yul\":19935:20143   */\n      jump(tag_433)\n    tag_435:\n        /* \"#utility.yul\":20171:20177   */\n      dup7\n        /* \"#utility.yul\":20162:20169   */\n      dup4\n        /* \"#utility.yul\":20159:20178   */\n      lt\n        /* \"#utility.yul\":20156:20335   */\n      iszero\n      tag_436\n      jumpi\n        /* \"#utility.yul\":20229:20238   */\n      dup5\n        /* \"#utility.yul\":20224:20227   */\n      dup10\n        /* \"#utility.yul\":20220:20239   */\n      add\n        /* \"#utility.yul\":20214:20240   */\n      mload\n        /* \"#utility.yul\":20272:20320   */\n      tag_437\n        /* \"#utility.yul\":20314:20318   */\n      0x1f\n        /* \"#utility.yul\":20306:20312   */\n      dup10\n        /* \"#utility.yul\":20302:20319   */\n      and\n        /* \"#utility.yul\":20291:20300   */\n      dup3\n        /* \"#utility.yul\":20272:20320   */\n      tag_219\n      jump\t// in\n    tag_437:\n        /* \"#utility.yul\":20264:20270   */\n      dup4\n        /* \"#utility.yul\":20257:20321   */\n      sstore\n        /* \"#utility.yul\":20179:20335   */\n      pop\n        /* \"#utility.yul\":20156:20335   */\n    tag_436:\n        /* \"#utility.yul\":20381:20382   */\n      0x01\n        /* \"#utility.yul\":20377:20378   */\n      0x02\n        /* \"#utility.yul\":20369:20375   */\n      dup9\n        /* \"#utility.yul\":20365:20379   */\n      mul\n        /* \"#utility.yul\":20361:20383   */\n      add\n        /* \"#utility.yul\":20355:20359   */\n      dup9\n        /* \"#utility.yul\":20348:20384   */\n      sstore\n        /* \"#utility.yul\":19783:20394   */\n      pop\n      pop\n      pop\n        /* \"#utility.yul\":19746:20633   */\n    tag_428:\n      pop\n        /* \"#utility.yul\":19336:20639   */\n      pop\n      pop\n      pop\n        /* \"#utility.yul\":19244:20639   */\n      pop\n      pop\n      jump\t// out\n        /* \"#utility.yul\":20645:20817   */\n    tag_221:\n        /* \"#utility.yul\":20785:20809   */\n      0x4e6f7420656e6f7567682063616e646964617465732e00000000000000000000\n        /* \"#utility.yul\":20781:20782   */\n      0x00\n        /* \"#utility.yul\":20773:20779   */\n      dup3\n        /* \"#utility.yul\":20769:20783   */\n      add\n        /* \"#utility.yul\":20762:20810   */\n      mstore\n        /* \"#utility.yul\":20645:20817   */\n      pop\n      jump\t// out\n        /* \"#utility.yul\":20823:21189   */\n    tag_222:\n        /* \"#utility.yul\":20965:20968   */\n      0x00\n        /* \"#utility.yul\":20986:21053   */\n      tag_440\n        /* \"#utility.yul\":21050:21052   */\n      0x16\n        /* \"#utility.yul\":21045:21048   */\n      dup4\n        /* \"#utility.yul\":20986:21053   */\n      tag_173\n      jump\t// in\n    tag_440:\n        /* \"#utility.yul\":20979:21053   */\n      swap2\n      pop\n        /* \"#utility.yul\":21062:21155   */\n      tag_441\n        /* \"#utility.yul\":21151:21154   */\n      dup3\n        /* \"#utility.yul\":21062:21155   */\n      tag_221\n      jump\t// in\n    tag_441:\n        /* \"#utility.yul\":21180:21182   */\n      0x20\n        /* \"#utility.yul\":21175:21178   */\n      dup3\n        /* \"#utility.yul\":21171:21183   */\n      add\n        /* \"#utility.yul\":21164:21183   */\n      swap1\n      pop\n        /* \"#utility.yul\":20823:21189   */\n      swap2\n      swap1\n      pop\n      jump\t// out\n        /* \"#utility.yul\":21195:21614   */\n    tag_83:\n        /* \"#utility.yul\":21361:21365   */\n      0x00\n        /* \"#utility.yul\":21399:21401   */\n      0x20\n        /* \"#utility.yul\":21388:21397   */\n      dup3\n        /* \"#utility.yul\":21384:21402   */\n      add\n        /* \"#utility.yul\":21376:21402   */\n      swap1\n      pop\n        /* \"#utility.yul\":21448:21457   */\n      dup2\n        /* \"#utility.yul\":21442:21446   */\n      dup2\n        /* \"#utility.yul\":21438:21458   */\n      sub\n        /* \"#utility.yul\":21434:21435   */\n      0x00\n        /* \"#utility.yul\":21423:21432   */\n      dup4\n        /* \"#utility.yul\":21419:21436   */\n      add\n        /* \"#utility.yul\":21412:21459   */\n      mstore\n        /* \"#utility.yul\":21476:21607   */\n      tag_443\n        /* \"#utility.yul\":21602:21606   */\n      dup2\n        /* \"#utility.yul\":21476:21607   */\n      tag_222\n      jump\t// in\n    tag_443:\n        /* \"#utility.yul\":21468:21607   */\n      swap1\n      pop\n        /* \"#utility.yul\":21195:21614   */\n      swap2\n      swap1\n      pop\n      jump\t// out\n        /* \"#utility.yul\":21620:21889   */\n    tag_100:\n        /* \"#utility.yul\":21749:21752   */\n      0x00\n        /* \"#utility.yul\":21771:21863   */\n      tag_445\n        /* \"#utility.yul\":21859:21862   */\n      dup3\n        /* \"#utility.yul\":21850:21856   */\n      dup5\n        /* \"#utility.yul\":21771:21863   */\n      tag_199\n      jump\t// in\n    tag_445:\n        /* \"#utility.yul\":21764:21863   */\n      swap2\n      pop\n        /* \"#utility.yul\":21880:21883   */\n      dup2\n        /* \"#utility.yul\":21873:21883   */\n      swap1\n      pop\n        /* \"#utility.yul\":21620:21889   */\n      swap3\n      swap2\n      pop\n      pop\n      jump\t// out\n        /* \"#utility.yul\":21895:21989   */\n    tag_223:\n        /* \"#utility.yul\":21928:21936   */\n      0x00\n        /* \"#utility.yul\":21976:21981   */\n      dup2\n        /* \"#utility.yul\":21972:21974   */\n      0x60\n        /* \"#utility.yul\":21968:21982   */\n      shl\n        /* \"#utility.yul\":21947:21982   */\n      swap1\n      pop\n        /* \"#utility.yul\":21895:21989   */\n      swap2\n      swap1\n      pop\n      jump\t// out\n        /* \"#utility.yul\":21995:22089   */\n    tag_224:\n        /* \"#utility.yul\":22034:22041   */\n      0x00\n        /* \"#utility.yul\":22063:22083   */\n      tag_448\n        /* \"#utility.yul\":22077:22082   */\n      dup3\n        /* \"#utility.yul\":22063:22083   */\n      tag_223\n      jump\t// in\n    tag_448:\n        /* \"#utility.yul\":22052:22083   */\n      swap1\n      pop\n        /* \"#utility.yul\":21995:22089   */\n      swap2\n      swap1\n      pop\n      jump\t// out\n        /* \"#utility.yul\":22095:22195   */\n    tag_225:\n        /* \"#utility.yul\":22134:22141   */\n      0x00\n        /* \"#utility.yul\":22163:22189   */\n      tag_450\n        /* \"#utility.yul\":22183:22188   */\n      dup3\n        /* \"#utility.yul\":22163:22189   */\n      tag_224\n      jump\t// in\n    tag_450:\n        /* \"#utility.yul\":22152:22189   */\n      swap1\n      pop\n        /* \"#utility.yul\":22095:22195   */\n      swap2\n      swap1\n      pop\n      jump\t// out\n        /* \"#utility.yul\":22201:22358   */\n    tag_226:\n        /* \"#utility.yul\":22306:22351   */\n      tag_452\n        /* \"#utility.yul\":22326:22350   */\n      tag_453\n        /* \"#utility.yul\":22344:22349   */\n      dup3\n        /* \"#utility.yul\":22326:22350   */\n      tag_176\n      jump\t// in\n    tag_453:\n        /* \"#utility.yul\":22306:22351   */\n      tag_225\n      jump\t// in\n    tag_452:\n        /* \"#utility.yul\":22301:22304   */\n      dup3\n        /* \"#utility.yul\":22294:22352   */\n      mstore\n        /* \"#utility.yul\":22201:22358   */\n      pop\n      pop\n      jump\t// out\n        /* \"#utility.yul\":22364:22620   */\n    tag_123:\n        /* \"#utility.yul\":22476:22479   */\n      0x00\n        /* \"#utility.yul\":22491:22566   */\n      tag_455\n        /* \"#utility.yul\":22562:22565   */\n      dup3\n        /* \"#utility.yul\":22553:22559   */\n      dup5\n        /* \"#utility.yul\":22491:22566   */\n      tag_226\n      jump\t// in\n    tag_455:\n        /* \"#utility.yul\":22591:22593   */\n      0x14\n        /* \"#utility.yul\":22586:22589   */\n      dup3\n        /* \"#utility.yul\":22582:22594   */\n      add\n        /* \"#utility.yul\":22575:22594   */\n      swap2\n      pop\n        /* \"#utility.yul\":22611:22614   */\n      dup2\n        /* \"#utility.yul\":22604:22614   */\n      swap1\n      pop\n        /* \"#utility.yul\":22364:22620   */\n      swap3\n      swap2\n      pop\n      pop\n      jump\t// out\n        /* \"#utility.yul\":22626:22800   */\n    tag_227:\n        /* \"#utility.yul\":22766:22792   */\n      0x566f7465722068617320616c726561647920766f7465642e0000000000000000\n        /* \"#utility.yul\":22762:22763   */\n      0x00\n        /* \"#utility.yul\":22754:22760   */\n      dup3\n        /* \"#utility.yul\":22750:22764   */\n      add\n        /* \"#utility.yul\":22743:22793   */\n      mstore\n        /* \"#utility.yul\":22626:22800   */\n      pop\n      jump\t// out\n        /* \"#utility.yul\":22806:23172   */\n    tag_228:\n        /* \"#utility.yul\":22948:22951   */\n      0x00\n        /* \"#utility.yul\":22969:23036   */\n      tag_458\n        /* \"#utility.yul\":23033:23035   */\n      0x18\n        /* \"#utility.yul\":23028:23031   */\n      dup4\n        /* \"#utility.yul\":22969:23036   */\n      tag_173\n      jump\t// in\n    tag_458:\n        /* \"#utility.yul\":22962:23036   */\n      swap2\n      pop\n        /* \"#utility.yul\":23045:23138   */\n      tag_459\n        /* \"#utility.yul\":23134:23137   */\n      dup3\n        /* \"#utility.yul\":23045:23138   */\n      tag_227\n      jump\t// in\n    tag_459:\n        /* \"#utility.yul\":23163:23165   */\n      0x20\n        /* \"#utility.yul\":23158:23161   */\n      dup3\n        /* \"#utility.yul\":23154:23166   */\n      add\n        /* \"#utility.yul\":23147:23166   */\n      swap1\n      pop\n        /* \"#utility.yul\":22806:23172   */\n      swap2\n      swap1\n      pop\n      jump\t// out\n        /* \"#utility.yul\":23178:23597   */\n    tag_132:\n        /* \"#utility.yul\":23344:23348   */\n      0x00\n        /* \"#utility.yul\":23382:23384   */\n      0x20\n        /* \"#utility.yul\":23371:23380   */\n      dup3\n        /* \"#utility.yul\":23367:23385   */\n      add\n        /* \"#utility.yul\":23359:23385   */\n      swap1\n      pop\n        /* \"#utility.yul\":23431:23440   */\n      dup2\n        /* \"#utility.yul\":23425:23429   */\n      dup2\n        /* \"#utility.yul\":23421:23441   */\n      sub\n        /* \"#utility.yul\":23417:23418   */\n      0x00\n        /* \"#utility.yul\":23406:23415   */\n      dup4\n        /* \"#utility.yul\":23402:23419   */\n      add\n        /* \"#utility.yul\":23395:23442   */\n      mstore\n        /* \"#utility.yul\":23459:23590   */\n      tag_461\n        /* \"#utility.yul\":23585:23589   */\n      dup2\n        /* \"#utility.yul\":23459:23590   */\n      tag_228\n      jump\t// in\n    tag_461:\n        /* \"#utility.yul\":23451:23590   */\n      swap1\n      pop\n        /* \"#utility.yul\":23178:23597   */\n      swap2\n      swap1\n      pop\n      jump\t// out\n        /* \"#utility.yul\":23603:23783   */\n    tag_229:\n        /* \"#utility.yul\":23651:23728   */\n      0x4e487b7100000000000000000000000000000000000000000000000000000000\n        /* \"#utility.yul\":23648:23649   */\n      0x00\n        /* \"#utility.yul\":23641:23729   */\n      mstore\n        /* \"#utility.yul\":23748:23752   */\n      0x12\n        /* \"#utility.yul\":23745:23746   */\n      0x04\n        /* \"#utility.yul\":23738:23753   */\n      mstore\n        /* \"#utility.yul\":23772:23776   */\n      0x24\n        /* \"#utility.yul\":23769:23770   */\n      0x00\n        /* \"#utility.yul\":23762:23777   */\n      revert\n        /* \"#utility.yul\":23789:23974   */\n    tag_144:\n        /* \"#utility.yul\":23829:23830   */\n      0x00\n        /* \"#utility.yul\":23846:23866   */\n      tag_464\n        /* \"#utility.yul\":23864:23865   */\n      dup3\n        /* \"#utility.yul\":23846:23866   */\n      tag_189\n      jump\t// in\n    tag_464:\n        /* \"#utility.yul\":23841:23866   */\n      swap2\n      pop\n        /* \"#utility.yul\":23880:23900   */\n      tag_465\n        /* \"#utility.yul\":23898:23899   */\n      dup4\n        /* \"#utility.yul\":23880:23900   */\n      tag_189\n      jump\t// in\n    tag_465:\n        /* \"#utility.yul\":23875:23900   */\n      swap3\n      pop\n        /* \"#utility.yul\":23919:23920   */\n      dup3\n        /* \"#utility.yul\":23909:23944   */\n      tag_466\n      jumpi\n        /* \"#utility.yul\":23924:23942   */\n      tag_467\n      tag_229\n      jump\t// in\n    tag_467:\n        /* \"#utility.yul\":23909:23944   */\n    tag_466:\n        /* \"#utility.yul\":23966:23967   */\n      dup3\n        /* \"#utility.yul\":23963:23964   */\n      dup3\n        /* \"#utility.yul\":23959:23968   */\n      div\n        /* \"#utility.yul\":23954:23968   */\n      swap1\n      pop\n        /* \"#utility.yul\":23789:23974   */\n      swap3\n      swap2\n      pop\n      pop\n      jump\t// out\n        /* \"#utility.yul\":23980:24174   */\n    tag_152:\n        /* \"#utility.yul\":24020:24024   */\n      0x00\n        /* \"#utility.yul\":24040:24060   */\n      tag_469\n        /* \"#utility.yul\":24058:24059   */\n      dup3\n        /* \"#utility.yul\":24040:24060   */\n      tag_189\n      jump\t// in\n    tag_469:\n        /* \"#utility.yul\":24035:24060   */\n      swap2\n      pop\n        /* \"#utility.yul\":24074:24094   */\n      tag_470\n        /* \"#utility.yul\":24092:24093   */\n      dup4\n        /* \"#utility.yul\":24074:24094   */\n      tag_189\n      jump\t// in\n    tag_470:\n        /* \"#utility.yul\":24069:24094   */\n      swap3\n      pop\n        /* \"#utility.yul\":24118:24119   */\n      dup3\n        /* \"#utility.yul\":24115:24116   */\n      dup3\n        /* \"#utility.yul\":24111:24120   */\n      sub\n        /* \"#utility.yul\":24103:24120   */\n      swap1\n      pop\n        /* \"#utility.yul\":24142:24143   */\n      dup2\n        /* \"#utility.yul\":24136:24140   */\n      dup2\n        /* \"#utility.yul\":24133:24144   */\n      gt\n        /* \"#utility.yul\":24130:24167   */\n      iszero\n      tag_471\n      jumpi\n        /* \"#utility.yul\":24147:24165   */\n      tag_472\n      tag_204\n      jump\t// in\n    tag_472:\n        /* \"#utility.yul\":24130:24167   */\n    tag_471:\n        /* \"#utility.yul\":23980:24174   */\n      swap3\n      swap2\n      pop\n      pop\n      jump\t// out\n        /* \"#utility.yul\":24180:24590   */\n    tag_155:\n        /* \"#utility.yul\":24220:24227   */\n      0x00\n        /* \"#utility.yul\":24243:24263   */\n      tag_474\n        /* \"#utility.yul\":24261:24262   */\n      dup3\n        /* \"#utility.yul\":24243:24263   */\n      tag_189\n      jump\t// in\n    tag_474:\n        /* \"#utility.yul\":24238:24263   */\n      swap2\n      pop\n        /* \"#utility.yul\":24277:24297   */\n      tag_475\n        /* \"#utility.yul\":24295:24296   */\n      dup4\n        /* \"#utility.yul\":24277:24297   */\n      tag_189\n      jump\t// in\n    tag_475:\n        /* \"#utility.yul\":24272:24297   */\n      swap3\n      pop\n        /* \"#utility.yul\":24332:24333   */\n      dup3\n        /* \"#utility.yul\":24329:24330   */\n      dup3\n        /* \"#utility.yul\":24325:24334   */\n      mul\n        /* \"#utility.yul\":24354:24384   */\n      tag_476\n        /* \"#utility.yul\":24372:24383   */\n      dup2\n        /* \"#utility.yul\":24354:24384   */\n      tag_189\n      jump\t// in\n    tag_476:\n        /* \"#utility.yul\":24343:24384   */\n      swap2\n      pop\n        /* \"#utility.yul\":24533:24534   */\n      dup3\n        /* \"#utility.yul\":24524:24531   */\n      dup3\n        /* \"#utility.yul\":24520:24535   */\n      div\n        /* \"#utility.yul\":24517:24518   */\n      dup5\n        /* \"#utility.yul\":24514:24536   */\n      eq\n        /* \"#utility.yul\":24494:24495   */\n      dup4\n        /* \"#utility.yul\":24487:24496   */\n      iszero\n        /* \"#utility.yul\":24467:24550   */\n      or\n        /* \"#utility.yul\":24444:24583   */\n      tag_477\n      jumpi\n        /* \"#utility.yul\":24563:24581   */\n      tag_478\n      tag_204\n      jump\t// in\n    tag_478:\n        /* \"#utility.yul\":24444:24583   */\n    tag_477:\n        /* \"#utility.yul\":24228:24590   */\n      pop\n        /* \"#utility.yul\":24180:24590   */\n      swap3\n      swap2\n      pop\n      pop\n      jump\t// out\n        /* \"#utility.yul\":24596:24682   */\n    tag_230:\n        /* \"#utility.yul\":24631:24638   */\n      0x00\n        /* \"#utility.yul\":24671:24675   */\n      0xff\n        /* \"#utility.yul\":24664:24669   */\n      dup3\n        /* \"#utility.yul\":24660:24676   */\n      and\n        /* \"#utility.yul\":24649:24676   */\n      swap1\n      pop\n        /* \"#utility.yul\":24596:24682   */\n      swap2\n      swap1\n      pop\n      jump\t// out\n        /* \"#utility.yul\":24688:24876   */\n    tag_158:\n        /* \"#utility.yul\":24726:24729   */\n      0x00\n        /* \"#utility.yul\":24745:24763   */\n      tag_481\n        /* \"#utility.yul\":24761:24762   */\n      dup3\n        /* \"#utility.yul\":24745:24763   */\n      tag_230\n      jump\t// in\n    tag_481:\n        /* \"#utility.yul\":24740:24763   */\n      swap2\n      pop\n        /* \"#utility.yul\":24777:24795   */\n      tag_482\n        /* \"#utility.yul\":24793:24794   */\n      dup4\n        /* \"#utility.yul\":24777:24795   */\n      tag_230\n      jump\t// in\n    tag_482:\n        /* \"#utility.yul\":24772:24795   */\n      swap3\n      pop\n        /* \"#utility.yul\":24818:24819   */\n      dup3\n        /* \"#utility.yul\":24815:24816   */\n      dup3\n        /* \"#utility.yul\":24811:24820   */\n      add\n        /* \"#utility.yul\":24804:24820   */\n      swap1\n      pop\n        /* \"#utility.yul\":24841:24845   */\n      0xff\n        /* \"#utility.yul\":24836:24839   */\n      dup2\n        /* \"#utility.yul\":24833:24846   */\n      gt\n        /* \"#utility.yul\":24830:24869   */\n      iszero\n      tag_483\n      jumpi\n        /* \"#utility.yul\":24849:24867   */\n      tag_484\n      tag_204\n      jump\t// in\n    tag_484:\n        /* \"#utility.yul\":24830:24869   */\n    tag_483:\n        /* \"#utility.yul\":24688:24876   */\n      swap3\n      swap2\n      pop\n      pop\n      jump\t// out\n\n    auxdata: 0xa2646970667358221220661daf6e4ac29cb8a696c2a83594a4dd8371ea6746c31d697f45c01953bfe91e64736f6c63430008120033\n}\n",
				"bytecode": {
					"linkReferences": {},
					"object": "608060405234801561001057600080fd5b50336000806101000a81548173ffffffffffffffffffffffffffffffffffffffff021916908373ffffffffffffffffffffffffffffffffffffffff160217905550611704806100606000396000f3fe608060405234801561001057600080fd5b506004361061007d5760003560e01c8063c9f14e181161005b578063c9f14e18146100dc578063dfbf53ae146100f8578063e962414f14610116578063fc36e15b146101465761007d565b806306a49fce146100825780638742fc3b146100a05780638da5cb5b146100be575b600080fd5b61008a610162565b6040516100979190610b17565b60405180910390f35b6100a861023b565b6040516100b59190610b83565b60405180910390f35b6100c6610375565b6040516100d39190610be6565b60405180910390f35b6100f660048036038101906100f19190610d80565b610399565b005b610100610426565b60405161010d9190610b83565b60405180910390f35b610130600480360381019061012b9190610e0b565b610705565b60405161013d9190610e63565b60405180910390f35b610160600480360381019061015b9190610e0b565b61072d565b005b60606003805480602002602001604051908101604052809291908181526020016000905b828210156102325783829060005260206000200180546101a590610ead565b80601f01602080910402602001604051908101604052809291908181526020018280546101d190610ead565b801561021e5780601f106101f35761010080835404028352916020019161021e565b820191906000526020600020905b81548152906001019060200180831161020157829003601f168201915b505050505081526020019060010190610186565b50505050905090565b6060600060405180602001604052806000815250905060005b60038054905081101561036d57816003828154811061027657610275610ede565b5b906000526020600020016103376103326003858154811061029a57610299610ede565b5b9060005260206000200180546102af90610ead565b80601f01602080910402602001604051908101604052809291908181526020018280546102db90610ead565b80156103285780601f106102fd57610100808354040283529160200191610328565b820191906000526020600020905b81548152906001019060200180831161030b57829003601f168201915b5050505050610705565b61083d565b604051602001610349939291906110c5565b6040516020818303038152906040529150808061036590611146565b915050610254565b508091505090565b60008054906101000a900473ffffffffffffffffffffffffffffffffffffffff1681565b60008383836040516020016103b0939291906111af565b604051602081830303815290604052805190602001209050806001856040516103d991906111e4565b90815260200160405180910390208190555060038490806001815401808255809150506001900390600052602060002001600090919091909150908161041f9190611392565b5050505050565b6060600060038054905011610470576040517f08c379a0000000000000000000000000000000000000000000000000000000008152600401610467906114b0565b60405180910390fd5b6000600360008154811061048757610486610ede565b5b90600052602060002001805461049c90610ead565b80601f01602080910402602001604051908101604052809291908181526020018280546104c890610ead565b80156105155780601f106104ea57610100808354040283529160200191610515565b820191906000526020600020905b8154815290600101906020018083116104f857829003601f168201915b50505050509050600080600190505b6003805490508110156106bd5760028360405161054191906111e4565b90815260200160405180910390205460026003838154811061056657610565610ede565b5b9060005260206000200160405161057d91906114d0565b908152602001604051809103902054111561064457600381815481106105a6576105a5610ede565b5b9060005260206000200180546105bb90610ead565b80601f01602080910402602001604051908101604052809291908181526020018280546105e790610ead565b80156106345780601f1061060957610100808354040283529160200191610634565b820191906000526020600020905b81548152906001019060200180831161061757829003601f168201915b50505050509250600091506106aa565b60028360405161065491906111e4565b90815260200160405180910390205460026003838154811061067957610678610ede565b5b9060005260206000200160405161069091906114d0565b908152602001604051809103902054036106a957600191505b5b80806106b590611146565b915050610524565b5080156106fd576040518060400160405280601081526020017f546865726520776173206120447261770000000000000000000000000000000081525091505b819250505090565b600060028260405161071791906111e4565b9081526020016040518091039020549050919050565b600033604051602001610740919061152f565b60405160208183030381529060405280519060200120905060005b6004805490508110156107db57816004828154811061077d5761077c610ede565b5b9060005260206000200154036107c8576040517f08c379a00000000000000000000000000000000000000000000000000000000081526004016107bf90611596565b60405180910390fd5b80806107d390611146565b91505061075b565b50600481908060018154018082558091505060019003906000526020600020016000909190919091505560028260405161081591906111e4565b9081526020016040518091039020600081548092919061083490611146565b91905055505050565b606060008203610884576040518060400160405280600181526020017f300000000000000000000000000000000000000000000000000000000000000081525090506109c0565b600082905060005b600082146108b657808061089f90611146565b915050600a826108af91906115e5565b915061088c565b60008167ffffffffffffffff8111156108d2576108d1610c1f565b5b6040519080825280601f01601f1916602001820160405280156109045781602001600182028036833780820191505090505b50905060008290505b600086146109b8576001816109229190611616565b90506000600a808861093491906115e5565b61093e919061164a565b876109499190611616565b60306109559190611699565b905060008160f81b90508084848151811061097357610972610ede565b5b60200101907effffffffffffffffffffffffffffffffffffffffffffffffffffffffffffff1916908160001a905350600a886109af91906115e5565b9750505061090d565b819450505050505b919050565b600081519050919050565b600082825260208201905092915050565b6000819050602082019050919050565b600081519050919050565b600082825260208201905092915050565b60005b83811015610a2b578082015181840152602081019050610a10565b60008484015250505050565b6000601f19601f8301169050919050565b6000610a53826109f1565b610a5d81856109fc565b9350610a6d818560208601610a0d565b610a7681610a37565b840191505092915050565b6000610a8d8383610a48565b905092915050565b6000602082019050919050565b6000610aad826109c5565b610ab781856109d0565b935083602082028501610ac9856109e1565b8060005b85811015610b055784840389528151610ae68582610a81565b9450610af183610a95565b925060208a01995050600181019050610acd565b50829750879550505050505092915050565b60006020820190508181036000830152610b318184610aa2565b905092915050565b600082825260208201905092915050565b6000610b55826109f1565b610b5f8185610b39565b9350610b6f818560208601610a0d565b610b7881610a37565b840191505092915050565b60006020820190508181036000830152610b9d8184610b4a565b905092915050565b600073ffffffffffffffffffffffffffffffffffffffff82169050919050565b6000610bd082610ba5565b9050919050565b610be081610bc5565b82525050565b6000602082019050610bfb6000830184610bd7565b92915050565b6000604051905090565b600080fd5b600080fd5b600080fd5b600080fd5b7f4e487b7100000000000000000000000000000000000000000000000000000000600052604160045260246000fd5b610c5782610a37565b810181811067ffffffffffffffff82111715610c7657610c75610c1f565b5b80604052505050565b6000610c89610c01565b9050610c958282610c4e565b919050565b600067ffffffffffffffff821115610cb557610cb4610c1f565b5b610cbe82610a37565b9050602081019050919050565b82818337600083830152505050565b6000610ced610ce884610c9a565b610c7f565b905082815260208101848484011115610d0957610d08610c1a565b5b610d14848285610ccb565b509392505050565b600082601f830112610d3157610d30610c15565b5b8135610d41848260208601610cda565b91505092915050565b6000819050919050565b610d5d81610d4a565b8114610d6857600080fd5b50565b600081359050610d7a81610d54565b92915050565b600080600060608486031215610d9957610d98610c0b565b5b600084013567ffffffffffffffff811115610db757610db6610c10565b5b610dc386828701610d1c565b9350506020610dd486828701610d6b565b925050604084013567ffffffffffffffff811115610df557610df4610c10565b5b610e0186828701610d1c565b9150509250925092565b600060208284031215610e2157610e20610c0b565b5b600082013567ffffffffffffffff811115610e3f57610e3e610c10565b5b610e4b84828501610d1c565b91505092915050565b610e5d81610d4a565b82525050565b6000602082019050610e786000830184610e54565b92915050565b7f4e487b7100000000000000000000000000000000000000000000000000000000600052602260045260246000fd5b60006002820490506001821680610ec557607f821691505b602082108103610ed857610ed7610e7e565b5b50919050565b7f4e487b7100000000000000000000000000000000000000000000000000000000600052603260045260246000fd5b600081905092915050565b6000610f23826109f1565b610f2d8185610f0d565b9350610f3d818560208601610a0d565b80840191505092915050565b7f2820000000000000000000000000000000000000000000000000000000000000600082015250565b6000610f7f600283610f0d565b9150610f8a82610f49565b600282019050919050565b60008190508160005260206000209050919050565b60008154610fb781610ead565b610fc18186610f0d565b94506001821660008114610fdc5760018114610ff157611024565b60ff1983168652811515820286019350611024565b610ffa85610f95565b60005b8381101561101c57815481890152600182019150602081019050610ffd565b838801955050505b50505092915050565b7f2c20000000000000000000000000000000000000000000000000000000000000600082015250565b6000611063600283610f0d565b915061106e8261102d565b600282019050919050565b7f2029200000000000000000000000000000000000000000000000000000000000600082015250565b60006110af600383610f0d565b91506110ba82611079565b600382019050919050565b60006110d18286610f18565b91506110dc82610f72565b91506110e88285610faa565b91506110f382611056565b91506110ff8284610f18565b915061110a826110a2565b9150819050949350505050565b7f4e487b7100000000000000000000000000000000000000000000000000000000600052601160045260246000fd5b600061115182610d4a565b91507fffffffffffffffffffffffffffffffffffffffffffffffffffffffffffffffff820361118357611182611117565b5b600182019050919050565b6000819050919050565b6111a96111a482610d4a565b61118e565b82525050565b60006111bb8286610f18565b91506111c78285611198565b6020820191506111d78284610f18565b9150819050949350505050565b60006111f08284610f18565b915081905092915050565b60006020601f8301049050919050565b600082821b905092915050565b6000600883026112487fffffffffffffffffffffffffffffffffffffffffffffffffffffffffffffffff8261120b565b611252868361120b565b95508019841693508086168417925050509392505050565b6000819050919050565b600061128f61128a61128584610d4a565b61126a565b610d4a565b9050919050565b6000819050919050565b6112a983611274565b6112bd6112b582611296565b848454611218565b825550505050565b600090565b6112d26112c5565b6112dd8184846112a0565b505050565b5b81811015611301576112f66000826112ca565b6001810190506112e3565b5050565b601f8211156113465761131781610f95565b611320846111fb565b8101602085101561132f578190505b61134361133b856111fb565b8301826112e2565b50505b505050565b600082821c905092915050565b60006113696000198460080261134b565b1980831691505092915050565b60006113828383611358565b9150826002028217905092915050565b61139b826109f1565b67ffffffffffffffff8111156113b4576113b3610c1f565b5b6113be8254610ead565b6113c9828285611305565b600060209050601f8311600181146113fc57600084156113ea578287015190505b6113f48582611376565b86555061145c565b601f19841661140a86610f95565b60005b828110156114325784890151825560018201915060208501945060208101905061140d565b8683101561144f578489015161144b601f891682611358565b8355505b6001600288020188555050505b505050505050565b7f4e6f7420656e6f7567682063616e646964617465732e00000000000000000000600082015250565b600061149a601683610b39565b91506114a582611464565b602082019050919050565b600060208201905081810360008301526114c98161148d565b9050919050565b60006114dc8284610faa565b915081905092915050565b60008160601b9050919050565b60006114ff826114e7565b9050919050565b6000611511826114f4565b9050919050565b61152961152482610bc5565b611506565b82525050565b600061153b8284611518565b60148201915081905092915050565b7f566f7465722068617320616c726561647920766f7465642e0000000000000000600082015250565b6000611580601883610b39565b915061158b8261154a565b602082019050919050565b600060208201905081810360008301526115af81611573565b9050919050565b7f4e487b7100000000000000000000000000000000000000000000000000000000600052601260045260246000fd5b60006115f082610d4a565b91506115fb83610d4a565b92508261160b5761160a6115b6565b5b828204905092915050565b600061162182610d4a565b915061162c83610d4a565b925082820390508181111561164457611643611117565b5b92915050565b600061165582610d4a565b915061166083610d4a565b925082820261166e81610d4a565b9150828204841483151761168557611684611117565b5b5092915050565b600060ff82169050919050565b60006116a48261168c565b91506116af8361168c565b9250828201905060ff8111156116c8576116c7611117565b5b9291505056fea2646970667358221220661daf6e4ac29cb8a696c2a83594a4dd8371ea6746c31d697f45c01953bfe91e64736f6c63430008120033",
					"opcodes": "PUSH1 0x80 PUSH1 0x40 MSTORE CALLVALUE DUP1 ISZERO PUSH2 0x10 JUMPI PUSH1 0x0 DUP1 REVERT JUMPDEST POP CALLER PUSH1 0x0 DUP1 PUSH2 0x100 EXP DUP2 SLOAD DUP2 PUSH20 0xFFFFFFFFFFFFFFFFFFFFFFFFFFFFFFFFFFFFFFFF MUL NOT AND SWAP1 DUP4 PUSH20 0xFFFFFFFFFFFFFFFFFFFFFFFFFFFFFFFFFFFFFFFF AND MUL OR SWAP1 SSTORE POP PUSH2 0x1704 DUP1 PUSH2 0x60 PUSH1 0x0 CODECOPY PUSH1 0x0 RETURN INVALID PUSH1 0x80 PUSH1 0x40 MSTORE CALLVALUE DUP1 ISZERO PUSH2 0x10 JUMPI PUSH1 0x0 DUP1 REVERT JUMPDEST POP PUSH1 0x4 CALLDATASIZE LT PUSH2 0x7D JUMPI PUSH1 0x0 CALLDATALOAD PUSH1 0xE0 SHR DUP1 PUSH4 0xC9F14E18 GT PUSH2 0x5B JUMPI DUP1 PUSH4 0xC9F14E18 EQ PUSH2 0xDC JUMPI DUP1 PUSH4 0xDFBF53AE EQ PUSH2 0xF8 JUMPI DUP1 PUSH4 0xE962414F EQ PUSH2 0x116 JUMPI DUP1 PUSH4 0xFC36E15B EQ PUSH2 0x146 JUMPI PUSH2 0x7D JUMP JUMPDEST DUP1 PUSH4 0x6A49FCE EQ PUSH2 0x82 JUMPI DUP1 PUSH4 0x8742FC3B EQ PUSH2 0xA0 JUMPI DUP1 PUSH4 0x8DA5CB5B EQ PUSH2 0xBE JUMPI JUMPDEST PUSH1 0x0 DUP1 REVERT JUMPDEST PUSH2 0x8A PUSH2 0x162 JUMP JUMPDEST PUSH1 0x40 MLOAD PUSH2 0x97 SWAP2 SWAP1 PUSH2 0xB17 JUMP JUMPDEST PUSH1 0x40 MLOAD DUP1 SWAP2 SUB SWAP1 RETURN JUMPDEST PUSH2 0xA8 PUSH2 0x23B JUMP JUMPDEST PUSH1 0x40 MLOAD PUSH2 0xB5 SWAP2 SWAP1 PUSH2 0xB83 JUMP JUMPDEST PUSH1 0x40 MLOAD DUP1 SWAP2 SUB SWAP1 RETURN JUMPDEST PUSH2 0xC6 PUSH2 0x375 JUMP JUMPDEST PUSH1 0x40 MLOAD PUSH2 0xD3 SWAP2 SWAP1 PUSH2 0xBE6 JUMP JUMPDEST PUSH1 0x40 MLOAD DUP1 SWAP2 SUB SWAP1 RETURN JUMPDEST PUSH2 0xF6 PUSH1 0x4 DUP1 CALLDATASIZE SUB DUP2 ADD SWAP1 PUSH2 0xF1 SWAP2 SWAP1 PUSH2 0xD80 JUMP JUMPDEST PUSH2 0x399 JUMP JUMPDEST STOP JUMPDEST PUSH2 0x100 PUSH2 0x426 JUMP JUMPDEST PUSH1 0x40 MLOAD PUSH2 0x10D SWAP2 SWAP1 PUSH2 0xB83 JUMP JUMPDEST PUSH1 0x40 MLOAD DUP1 SWAP2 SUB SWAP1 RETURN JUMPDEST PUSH2 0x130 PUSH1 0x4 DUP1 CALLDATASIZE SUB DUP2 ADD SWAP1 PUSH2 0x12B SWAP2 SWAP1 PUSH2 0xE0B JUMP JUMPDEST PUSH2 0x705 JUMP JUMPDEST PUSH1 0x40 MLOAD PUSH2 0x13D SWAP2 SWAP1 PUSH2 0xE63 JUMP JUMPDEST PUSH1 0x40 MLOAD DUP1 SWAP2 SUB SWAP1 RETURN JUMPDEST PUSH2 0x160 PUSH1 0x4 DUP1 CALLDATASIZE SUB DUP2 ADD SWAP1 PUSH2 0x15B SWAP2 SWAP1 PUSH2 0xE0B JUMP JUMPDEST PUSH2 0x72D JUMP JUMPDEST STOP JUMPDEST PUSH1 0x60 PUSH1 0x3 DUP1 SLOAD DUP1 PUSH1 0x20 MUL PUSH1 0x20 ADD PUSH1 0x40 MLOAD SWAP1 DUP2 ADD PUSH1 0x40 MSTORE DUP1 SWAP3 SWAP2 SWAP1 DUP2 DUP2 MSTORE PUSH1 0x20 ADD PUSH1 0x0 SWAP1 JUMPDEST DUP3 DUP3 LT ISZERO PUSH2 0x232 JUMPI DUP4 DUP3 SWAP1 PUSH1 0x0 MSTORE PUSH1 0x20 PUSH1 0x0 KECCAK256 ADD DUP1 SLOAD PUSH2 0x1A5 SWAP1 PUSH2 0xEAD JUMP JUMPDEST DUP1 PUSH1 0x1F ADD PUSH1 0x20 DUP1 SWAP2 DIV MUL PUSH1 0x20 ADD PUSH1 0x40 MLOAD SWAP1 DUP2 ADD PUSH1 0x40 MSTORE DUP1 SWAP3 SWAP2 SWAP1 DUP2 DUP2 MSTORE PUSH1 0x20 ADD DUP3 DUP1 SLOAD PUSH2 0x1D1 SWAP1 PUSH2 0xEAD JUMP JUMPDEST DUP1 ISZERO PUSH2 0x21E JUMPI DUP1 PUSH1 0x1F LT PUSH2 0x1F3 JUMPI PUSH2 0x100 DUP1 DUP4 SLOAD DIV MUL DUP4 MSTORE SWAP2 PUSH1 0x20 ADD SWAP2 PUSH2 0x21E JUMP JUMPDEST DUP3 ADD SWAP2 SWAP1 PUSH1 0x0 MSTORE PUSH1 0x20 PUSH1 0x0 KECCAK256 SWAP1 JUMPDEST DUP2 SLOAD DUP2 MSTORE SWAP1 PUSH1 0x1 ADD SWAP1 PUSH1 0x20 ADD DUP1 DUP4 GT PUSH2 0x201 JUMPI DUP3 SWAP1 SUB PUSH1 0x1F AND DUP3 ADD SWAP2 JUMPDEST POP POP POP POP POP DUP2 MSTORE PUSH1 0x20 ADD SWAP1 PUSH1 0x1 ADD SWAP1 PUSH2 0x186 JUMP JUMPDEST POP POP POP POP SWAP1 POP SWAP1 JUMP JUMPDEST PUSH1 0x60 PUSH1 0x0 PUSH1 0x40 MLOAD DUP1 PUSH1 0x20 ADD PUSH1 0x40 MSTORE DUP1 PUSH1 0x0 DUP2 MSTORE POP SWAP1 POP PUSH1 0x0 JUMPDEST PUSH1 0x3 DUP1 SLOAD SWAP1 POP DUP2 LT ISZERO PUSH2 0x36D JUMPI DUP2 PUSH1 0x3 DUP3 DUP2 SLOAD DUP2 LT PUSH2 0x276 JUMPI PUSH2 0x275 PUSH2 0xEDE JUMP JUMPDEST JUMPDEST SWAP1 PUSH1 0x0 MSTORE PUSH1 0x20 PUSH1 0x0 KECCAK256 ADD PUSH2 0x337 PUSH2 0x332 PUSH1 0x3 DUP6 DUP2 SLOAD DUP2 LT PUSH2 0x29A JUMPI PUSH2 0x299 PUSH2 0xEDE JUMP JUMPDEST JUMPDEST SWAP1 PUSH1 0x0 MSTORE PUSH1 0x20 PUSH1 0x0 KECCAK256 ADD DUP1 SLOAD PUSH2 0x2AF SWAP1 PUSH2 0xEAD JUMP JUMPDEST DUP1 PUSH1 0x1F ADD PUSH1 0x20 DUP1 SWAP2 DIV MUL PUSH1 0x20 ADD PUSH1 0x40 MLOAD SWAP1 DUP2 ADD PUSH1 0x40 MSTORE DUP1 SWAP3 SWAP2 SWAP1 DUP2 DUP2 MSTORE PUSH1 0x20 ADD DUP3 DUP1 SLOAD PUSH2 0x2DB SWAP1 PUSH2 0xEAD JUMP JUMPDEST DUP1 ISZERO PUSH2 0x328 JUMPI DUP1 PUSH1 0x1F LT PUSH2 0x2FD JUMPI PUSH2 0x100 DUP1 DUP4 SLOAD DIV MUL DUP4 MSTORE SWAP2 PUSH1 0x20 ADD SWAP2 PUSH2 0x328 JUMP JUMPDEST DUP3 ADD SWAP2 SWAP1 PUSH1 0x0 MSTORE PUSH1 0x20 PUSH1 0x0 KECCAK256 SWAP1 JUMPDEST DUP2 SLOAD DUP2 MSTORE SWAP1 PUSH1 0x1 ADD SWAP1 PUSH1 0x20 ADD DUP1 DUP4 GT PUSH2 0x30B JUMPI DUP3 SWAP1 SUB PUSH1 0x1F AND DUP3 ADD SWAP2 JUMPDEST POP POP POP POP POP PUSH2 0x705 JUMP JUMPDEST PUSH2 0x83D JUMP JUMPDEST PUSH1 0x40 MLOAD PUSH1 0x20 ADD PUSH2 0x349 SWAP4 SWAP3 SWAP2 SWAP1 PUSH2 0x10C5 JUMP JUMPDEST PUSH1 0x40 MLOAD PUSH1 0x20 DUP2 DUP4 SUB SUB DUP2 MSTORE SWAP1 PUSH1 0x40 MSTORE SWAP2 POP DUP1 DUP1 PUSH2 0x365 SWAP1 PUSH2 0x1146 JUMP JUMPDEST SWAP2 POP POP PUSH2 0x254 JUMP JUMPDEST POP DUP1 SWAP2 POP POP SWAP1 JUMP JUMPDEST PUSH1 0x0 DUP1 SLOAD SWAP1 PUSH2 0x100 EXP SWAP1 DIV PUSH20 0xFFFFFFFFFFFFFFFFFFFFFFFFFFFFFFFFFFFFFFFF AND DUP2 JUMP JUMPDEST PUSH1 0x0 DUP4 DUP4 DUP4 PUSH1 0x40 MLOAD PUSH1 0x20 ADD PUSH2 0x3B0 SWAP4 SWAP3 SWAP2 SWAP1 PUSH2 0x11AF JUMP JUMPDEST PUSH1 0x40 MLOAD PUSH1 0x20 DUP2 DUP4 SUB SUB DUP2 MSTORE SWAP1 PUSH1 0x40 MSTORE DUP1 MLOAD SWAP1 PUSH1 0x20 ADD KECCAK256 SWAP1 POP DUP1 PUSH1 0x1 DUP6 PUSH1 0x40 MLOAD PUSH2 0x3D9 SWAP2 SWAP1 PUSH2 0x11E4 JUMP JUMPDEST SWAP1 DUP2 MSTORE PUSH1 0x20 ADD PUSH1 0x40 MLOAD DUP1 SWAP2 SUB SWAP1 KECCAK256 DUP2 SWAP1 SSTORE POP PUSH1 0x3 DUP5 SWAP1 DUP1 PUSH1 0x1 DUP2 SLOAD ADD DUP1 DUP3 SSTORE DUP1 SWAP2 POP POP PUSH1 0x1 SWAP1 SUB SWAP1 PUSH1 0x0 MSTORE PUSH1 0x20 PUSH1 0x0 KECCAK256 ADD PUSH1 0x0 SWAP1 SWAP2 SWAP1 SWAP2 SWAP1 SWAP2 POP SWAP1 DUP2 PUSH2 0x41F SWAP2 SWAP1 PUSH2 0x1392 JUMP JUMPDEST POP POP POP POP POP JUMP JUMPDEST PUSH1 0x60 PUSH1 0x0 PUSH1 0x3 DUP1 SLOAD SWAP1 POP GT PUSH2 0x470 JUMPI PUSH1 0x40 MLOAD PUSH32 0x8C379A000000000000000000000000000000000000000000000000000000000 DUP2 MSTORE PUSH1 0x4 ADD PUSH2 0x467 SWAP1 PUSH2 0x14B0 JUMP JUMPDEST PUSH1 0x40 MLOAD DUP1 SWAP2 SUB SWAP1 REVERT JUMPDEST PUSH1 0x0 PUSH1 0x3 PUSH1 0x0 DUP2 SLOAD DUP2 LT PUSH2 0x487 JUMPI PUSH2 0x486 PUSH2 0xEDE JUMP JUMPDEST JUMPDEST SWAP1 PUSH1 0x0 MSTORE PUSH1 0x20 PUSH1 0x0 KECCAK256 ADD DUP1 SLOAD PUSH2 0x49C SWAP1 PUSH2 0xEAD JUMP JUMPDEST DUP1 PUSH1 0x1F ADD PUSH1 0x20 DUP1 SWAP2 DIV MUL PUSH1 0x20 ADD PUSH1 0x40 MLOAD SWAP1 DUP2 ADD PUSH1 0x40 MSTORE DUP1 SWAP3 SWAP2 SWAP1 DUP2 DUP2 MSTORE PUSH1 0x20 ADD DUP3 DUP1 SLOAD PUSH2 0x4C8 SWAP1 PUSH2 0xEAD JUMP JUMPDEST DUP1 ISZERO PUSH2 0x515 JUMPI DUP1 PUSH1 0x1F LT PUSH2 0x4EA JUMPI PUSH2 0x100 DUP1 DUP4 SLOAD DIV MUL DUP4 MSTORE SWAP2 PUSH1 0x20 ADD SWAP2 PUSH2 0x515 JUMP JUMPDEST DUP3 ADD SWAP2 SWAP1 PUSH1 0x0 MSTORE PUSH1 0x20 PUSH1 0x0 KECCAK256 SWAP1 JUMPDEST DUP2 SLOAD DUP2 MSTORE SWAP1 PUSH1 0x1 ADD SWAP1 PUSH1 0x20 ADD DUP1 DUP4 GT PUSH2 0x4F8 JUMPI DUP3 SWAP1 SUB PUSH1 0x1F AND DUP3 ADD SWAP2 JUMPDEST POP POP POP POP POP SWAP1 POP PUSH1 0x0 DUP1 PUSH1 0x1 SWAP1 POP JUMPDEST PUSH1 0x3 DUP1 SLOAD SWAP1 POP DUP2 LT ISZERO PUSH2 0x6BD JUMPI PUSH1 0x2 DUP4 PUSH1 0x40 MLOAD PUSH2 0x541 SWAP2 SWAP1 PUSH2 0x11E4 JUMP JUMPDEST SWAP1 DUP2 MSTORE PUSH1 0x20 ADD PUSH1 0x40 MLOAD DUP1 SWAP2 SUB SWAP1 KECCAK256 SLOAD PUSH1 0x2 PUSH1 0x3 DUP4 DUP2 SLOAD DUP2 LT PUSH2 0x566 JUMPI PUSH2 0x565 PUSH2 0xEDE JUMP JUMPDEST JUMPDEST SWAP1 PUSH1 0x0 MSTORE PUSH1 0x20 PUSH1 0x0 KECCAK256 ADD PUSH1 0x40 MLOAD PUSH2 0x57D SWAP2 SWAP1 PUSH2 0x14D0 JUMP JUMPDEST SWAP1 DUP2 MSTORE PUSH1 0x20 ADD PUSH1 0x40 MLOAD DUP1 SWAP2 SUB SWAP1 KECCAK256 SLOAD GT ISZERO PUSH2 0x644 JUMPI PUSH1 0x3 DUP2 DUP2 SLOAD DUP2 LT PUSH2 0x5A6 JUMPI PUSH2 0x5A5 PUSH2 0xEDE JUMP JUMPDEST JUMPDEST SWAP1 PUSH1 0x0 MSTORE PUSH1 0x20 PUSH1 0x0 KECCAK256 ADD DUP1 SLOAD PUSH2 0x5BB SWAP1 PUSH2 0xEAD JUMP JUMPDEST DUP1 PUSH1 0x1F ADD PUSH1 0x20 DUP1 SWAP2 DIV MUL PUSH1 0x20 ADD PUSH1 0x40 MLOAD SWAP1 DUP2 ADD PUSH1 0x40 MSTORE DUP1 SWAP3 SWAP2 SWAP1 DUP2 DUP2 MSTORE PUSH1 0x20 ADD DUP3 DUP1 SLOAD PUSH2 0x5E7 SWAP1 PUSH2 0xEAD JUMP JUMPDEST DUP1 ISZERO PUSH2 0x634 JUMPI DUP1 PUSH1 0x1F LT PUSH2 0x609 JUMPI PUSH2 0x100 DUP1 DUP4 SLOAD DIV MUL DUP4 MSTORE SWAP2 PUSH1 0x20 ADD SWAP2 PUSH2 0x634 JUMP JUMPDEST DUP3 ADD SWAP2 SWAP1 PUSH1 0x0 MSTORE PUSH1 0x20 PUSH1 0x0 KECCAK256 SWAP1 JUMPDEST DUP2 SLOAD DUP2 MSTORE SWAP1 PUSH1 0x1 ADD SWAP1 PUSH1 0x20 ADD DUP1 DUP4 GT PUSH2 0x617 JUMPI DUP3 SWAP1 SUB PUSH1 0x1F AND DUP3 ADD SWAP2 JUMPDEST POP POP POP POP POP SWAP3 POP PUSH1 0x0 SWAP2 POP PUSH2 0x6AA JUMP JUMPDEST PUSH1 0x2 DUP4 PUSH1 0x40 MLOAD PUSH2 0x654 SWAP2 SWAP1 PUSH2 0x11E4 JUMP JUMPDEST SWAP1 DUP2 MSTORE PUSH1 0x20 ADD PUSH1 0x40 MLOAD DUP1 SWAP2 SUB SWAP1 KECCAK256 SLOAD PUSH1 0x2 PUSH1 0x3 DUP4 DUP2 SLOAD DUP2 LT PUSH2 0x679 JUMPI PUSH2 0x678 PUSH2 0xEDE JUMP JUMPDEST JUMPDEST SWAP1 PUSH1 0x0 MSTORE PUSH1 0x20 PUSH1 0x0 KECCAK256 ADD PUSH1 0x40 MLOAD PUSH2 0x690 SWAP2 SWAP1 PUSH2 0x14D0 JUMP JUMPDEST SWAP1 DUP2 MSTORE PUSH1 0x20 ADD PUSH1 0x40 MLOAD DUP1 SWAP2 SUB SWAP1 KECCAK256 SLOAD SUB PUSH2 0x6A9 JUMPI PUSH1 0x1 SWAP2 POP JUMPDEST JUMPDEST DUP1 DUP1 PUSH2 0x6B5 SWAP1 PUSH2 0x1146 JUMP JUMPDEST SWAP2 POP POP PUSH2 0x524 JUMP JUMPDEST POP DUP1 ISZERO PUSH2 0x6FD JUMPI PUSH1 0x40 MLOAD DUP1 PUSH1 0x40 ADD PUSH1 0x40 MSTORE DUP1 PUSH1 0x10 DUP2 MSTORE PUSH1 0x20 ADD PUSH32 0x5468657265207761732061204472617700000000000000000000000000000000 DUP2 MSTORE POP SWAP2 POP JUMPDEST DUP2 SWAP3 POP POP POP SWAP1 JUMP JUMPDEST PUSH1 0x0 PUSH1 0x2 DUP3 PUSH1 0x40 MLOAD PUSH2 0x717 SWAP2 SWAP1 PUSH2 0x11E4 JUMP JUMPDEST SWAP1 DUP2 MSTORE PUSH1 0x20 ADD PUSH1 0x40 MLOAD DUP1 SWAP2 SUB SWAP1 KECCAK256 SLOAD SWAP1 POP SWAP2 SWAP1 POP JUMP JUMPDEST PUSH1 0x0 CALLER PUSH1 0x40 MLOAD PUSH1 0x20 ADD PUSH2 0x740 SWAP2 SWAP1 PUSH2 0x152F JUMP JUMPDEST PUSH1 0x40 MLOAD PUSH1 0x20 DUP2 DUP4 SUB SUB DUP2 MSTORE SWAP1 PUSH1 0x40 MSTORE DUP1 MLOAD SWAP1 PUSH1 0x20 ADD KECCAK256 SWAP1 POP PUSH1 0x0 JUMPDEST PUSH1 0x4 DUP1 SLOAD SWAP1 POP DUP2 LT ISZERO PUSH2 0x7DB JUMPI DUP2 PUSH1 0x4 DUP3 DUP2 SLOAD DUP2 LT PUSH2 0x77D JUMPI PUSH2 0x77C PUSH2 0xEDE JUMP JUMPDEST JUMPDEST SWAP1 PUSH1 0x0 MSTORE PUSH1 0x20 PUSH1 0x0 KECCAK256 ADD SLOAD SUB PUSH2 0x7C8 JUMPI PUSH1 0x40 MLOAD PUSH32 0x8C379A000000000000000000000000000000000000000000000000000000000 DUP2 MSTORE PUSH1 0x4 ADD PUSH2 0x7BF SWAP1 PUSH2 0x1596 JUMP JUMPDEST PUSH1 0x40 MLOAD DUP1 SWAP2 SUB SWAP1 REVERT JUMPDEST DUP1 DUP1 PUSH2 0x7D3 SWAP1 PUSH2 0x1146 JUMP JUMPDEST SWAP2 POP POP PUSH2 0x75B JUMP JUMPDEST POP PUSH1 0x4 DUP2 SWAP1 DUP1 PUSH1 0x1 DUP2 SLOAD ADD DUP1 DUP3 SSTORE DUP1 SWAP2 POP POP PUSH1 0x1 SWAP1 SUB SWAP1 PUSH1 0x0 MSTORE PUSH1 0x20 PUSH1 0x0 KECCAK256 ADD PUSH1 0x0 SWAP1 SWAP2 SWAP1 SWAP2 SWAP1 SWAP2 POP SSTORE PUSH1 0x2 DUP3 PUSH1 0x40 MLOAD PUSH2 0x815 SWAP2 SWAP1 PUSH2 0x11E4 JUMP JUMPDEST SWAP1 DUP2 MSTORE PUSH1 0x20 ADD PUSH1 0x40 MLOAD DUP1 SWAP2 SUB SWAP1 KECCAK256 PUSH1 0x0 DUP2 SLOAD DUP1 SWAP3 SWAP2 SWAP1 PUSH2 0x834 SWAP1 PUSH2 0x1146 JUMP JUMPDEST SWAP2 SWAP1 POP SSTORE POP POP POP JUMP JUMPDEST PUSH1 0x60 PUSH1 0x0 DUP3 SUB PUSH2 0x884 JUMPI PUSH1 0x40 MLOAD DUP1 PUSH1 0x40 ADD PUSH1 0x40 MSTORE DUP1 PUSH1 0x1 DUP2 MSTORE PUSH1 0x20 ADD PUSH32 0x3000000000000000000000000000000000000000000000000000000000000000 DUP2 MSTORE POP SWAP1 POP PUSH2 0x9C0 JUMP JUMPDEST PUSH1 0x0 DUP3 SWAP1 POP PUSH1 0x0 JUMPDEST PUSH1 0x0 DUP3 EQ PUSH2 0x8B6 JUMPI DUP1 DUP1 PUSH2 0x89F SWAP1 PUSH2 0x1146 JUMP JUMPDEST SWAP2 POP POP PUSH1 0xA DUP3 PUSH2 0x8AF SWAP2 SWAP1 PUSH2 0x15E5 JUMP JUMPDEST SWAP2 POP PUSH2 0x88C JUMP JUMPDEST PUSH1 0x0 DUP2 PUSH8 0xFFFFFFFFFFFFFFFF DUP2 GT ISZERO PUSH2 0x8D2 JUMPI PUSH2 0x8D1 PUSH2 0xC1F JUMP JUMPDEST JUMPDEST PUSH1 0x40 MLOAD SWAP1 DUP1 DUP3 MSTORE DUP1 PUSH1 0x1F ADD PUSH1 0x1F NOT AND PUSH1 0x20 ADD DUP3 ADD PUSH1 0x40 MSTORE DUP1 ISZERO PUSH2 0x904 JUMPI DUP2 PUSH1 0x20 ADD PUSH1 0x1 DUP3 MUL DUP1 CALLDATASIZE DUP4 CALLDATACOPY DUP1 DUP3 ADD SWAP2 POP POP SWAP1 POP JUMPDEST POP SWAP1 POP PUSH1 0x0 DUP3 SWAP1 POP JUMPDEST PUSH1 0x0 DUP7 EQ PUSH2 0x9B8 JUMPI PUSH1 0x1 DUP2 PUSH2 0x922 SWAP2 SWAP1 PUSH2 0x1616 JUMP JUMPDEST SWAP1 POP PUSH1 0x0 PUSH1 0xA DUP1 DUP9 PUSH2 0x934 SWAP2 SWAP1 PUSH2 0x15E5 JUMP JUMPDEST PUSH2 0x93E SWAP2 SWAP1 PUSH2 0x164A JUMP JUMPDEST DUP8 PUSH2 0x949 SWAP2 SWAP1 PUSH2 0x1616 JUMP JUMPDEST PUSH1 0x30 PUSH2 0x955 SWAP2 SWAP1 PUSH2 0x1699 JUMP JUMPDEST SWAP1 POP PUSH1 0x0 DUP2 PUSH1 0xF8 SHL SWAP1 POP DUP1 DUP5 DUP5 DUP2 MLOAD DUP2 LT PUSH2 0x973 JUMPI PUSH2 0x972 PUSH2 0xEDE JUMP JUMPDEST JUMPDEST PUSH1 0x20 ADD ADD SWAP1 PUSH31 0xFFFFFFFFFFFFFFFFFFFFFFFFFFFFFFFFFFFFFFFFFFFFFFFFFFFFFFFFFFFFFF NOT AND SWAP1 DUP2 PUSH1 0x0 BYTE SWAP1 MSTORE8 POP PUSH1 0xA DUP9 PUSH2 0x9AF SWAP2 SWAP1 PUSH2 0x15E5 JUMP JUMPDEST SWAP8 POP POP POP PUSH2 0x90D JUMP JUMPDEST DUP2 SWAP5 POP POP POP POP POP JUMPDEST SWAP2 SWAP1 POP JUMP JUMPDEST PUSH1 0x0 DUP2 MLOAD SWAP1 POP SWAP2 SWAP1 POP JUMP JUMPDEST PUSH1 0x0 DUP3 DUP3 MSTORE PUSH1 0x20 DUP3 ADD SWAP1 POP SWAP3 SWAP2 POP POP JUMP JUMPDEST PUSH1 0x0 DUP2 SWAP1 POP PUSH1 0x20 DUP3 ADD SWAP1 POP SWAP2 SWAP1 POP JUMP JUMPDEST PUSH1 0x0 DUP2 MLOAD SWAP1 POP SWAP2 SWAP1 POP JUMP JUMPDEST PUSH1 0x0 DUP3 DUP3 MSTORE PUSH1 0x20 DUP3 ADD SWAP1 POP SWAP3 SWAP2 POP POP JUMP JUMPDEST PUSH1 0x0 JUMPDEST DUP4 DUP2 LT ISZERO PUSH2 0xA2B JUMPI DUP1 DUP3 ADD MLOAD DUP2 DUP5 ADD MSTORE PUSH1 0x20 DUP2 ADD SWAP1 POP PUSH2 0xA10 JUMP JUMPDEST PUSH1 0x0 DUP5 DUP5 ADD MSTORE POP POP POP POP JUMP JUMPDEST PUSH1 0x0 PUSH1 0x1F NOT PUSH1 0x1F DUP4 ADD AND SWAP1 POP SWAP2 SWAP1 POP JUMP JUMPDEST PUSH1 0x0 PUSH2 0xA53 DUP3 PUSH2 0x9F1 JUMP JUMPDEST PUSH2 0xA5D DUP2 DUP6 PUSH2 0x9FC JUMP JUMPDEST SWAP4 POP PUSH2 0xA6D DUP2 DUP6 PUSH1 0x20 DUP7 ADD PUSH2 0xA0D JUMP JUMPDEST PUSH2 0xA76 DUP2 PUSH2 0xA37 JUMP JUMPDEST DUP5 ADD SWAP2 POP POP SWAP3 SWAP2 POP POP JUMP JUMPDEST PUSH1 0x0 PUSH2 0xA8D DUP4 DUP4 PUSH2 0xA48 JUMP JUMPDEST SWAP1 POP SWAP3 SWAP2 POP POP JUMP JUMPDEST PUSH1 0x0 PUSH1 0x20 DUP3 ADD SWAP1 POP SWAP2 SWAP1 POP JUMP JUMPDEST PUSH1 0x0 PUSH2 0xAAD DUP3 PUSH2 0x9C5 JUMP JUMPDEST PUSH2 0xAB7 DUP2 DUP6 PUSH2 0x9D0 JUMP JUMPDEST SWAP4 POP DUP4 PUSH1 0x20 DUP3 MUL DUP6 ADD PUSH2 0xAC9 DUP6 PUSH2 0x9E1 JUMP JUMPDEST DUP1 PUSH1 0x0 JUMPDEST DUP6 DUP2 LT ISZERO PUSH2 0xB05 JUMPI DUP5 DUP5 SUB DUP10 MSTORE DUP2 MLOAD PUSH2 0xAE6 DUP6 DUP3 PUSH2 0xA81 JUMP JUMPDEST SWAP5 POP PUSH2 0xAF1 DUP4 PUSH2 0xA95 JUMP JUMPDEST SWAP3 POP PUSH1 0x20 DUP11 ADD SWAP10 POP POP PUSH1 0x1 DUP2 ADD SWAP1 POP PUSH2 0xACD JUMP JUMPDEST POP DUP3 SWAP8 POP DUP8 SWAP6 POP POP POP POP POP POP SWAP3 SWAP2 POP POP JUMP JUMPDEST PUSH1 0x0 PUSH1 0x20 DUP3 ADD SWAP1 POP DUP2 DUP2 SUB PUSH1 0x0 DUP4 ADD MSTORE PUSH2 0xB31 DUP2 DUP5 PUSH2 0xAA2 JUMP JUMPDEST SWAP1 POP SWAP3 SWAP2 POP POP JUMP JUMPDEST PUSH1 0x0 DUP3 DUP3 MSTORE PUSH1 0x20 DUP3 ADD SWAP1 POP SWAP3 SWAP2 POP POP JUMP JUMPDEST PUSH1 0x0 PUSH2 0xB55 DUP3 PUSH2 0x9F1 JUMP JUMPDEST PUSH2 0xB5F DUP2 DUP6 PUSH2 0xB39 JUMP JUMPDEST SWAP4 POP PUSH2 0xB6F DUP2 DUP6 PUSH1 0x20 DUP7 ADD PUSH2 0xA0D JUMP JUMPDEST PUSH2 0xB78 DUP2 PUSH2 0xA37 JUMP JUMPDEST DUP5 ADD SWAP2 POP POP SWAP3 SWAP2 POP POP JUMP JUMPDEST PUSH1 0x0 PUSH1 0x20 DUP3 ADD SWAP1 POP DUP2 DUP2 SUB PUSH1 0x0 DUP4 ADD MSTORE PUSH2 0xB9D DUP2 DUP5 PUSH2 0xB4A JUMP JUMPDEST SWAP1 POP SWAP3 SWAP2 POP POP JUMP JUMPDEST PUSH1 0x0 PUSH20 0xFFFFFFFFFFFFFFFFFFFFFFFFFFFFFFFFFFFFFFFF DUP3 AND SWAP1 POP SWAP2 SWAP1 POP JUMP JUMPDEST PUSH1 0x0 PUSH2 0xBD0 DUP3 PUSH2 0xBA5 JUMP JUMPDEST SWAP1 POP SWAP2 SWAP1 POP JUMP JUMPDEST PUSH2 0xBE0 DUP2 PUSH2 0xBC5 JUMP JUMPDEST DUP3 MSTORE POP POP JUMP JUMPDEST PUSH1 0x0 PUSH1 0x20 DUP3 ADD SWAP1 POP PUSH2 0xBFB PUSH1 0x0 DUP4 ADD DUP5 PUSH2 0xBD7 JUMP JUMPDEST SWAP3 SWAP2 POP POP JUMP JUMPDEST PUSH1 0x0 PUSH1 0x40 MLOAD SWAP1 POP SWAP1 JUMP JUMPDEST PUSH1 0x0 DUP1 REVERT JUMPDEST PUSH1 0x0 DUP1 REVERT JUMPDEST PUSH1 0x0 DUP1 REVERT JUMPDEST PUSH1 0x0 DUP1 REVERT JUMPDEST PUSH32 0x4E487B7100000000000000000000000000000000000000000000000000000000 PUSH1 0x0 MSTORE PUSH1 0x41 PUSH1 0x4 MSTORE PUSH1 0x24 PUSH1 0x0 REVERT JUMPDEST PUSH2 0xC57 DUP3 PUSH2 0xA37 JUMP JUMPDEST DUP2 ADD DUP2 DUP2 LT PUSH8 0xFFFFFFFFFFFFFFFF DUP3 GT OR ISZERO PUSH2 0xC76 JUMPI PUSH2 0xC75 PUSH2 0xC1F JUMP JUMPDEST JUMPDEST DUP1 PUSH1 0x40 MSTORE POP POP POP JUMP JUMPDEST PUSH1 0x0 PUSH2 0xC89 PUSH2 0xC01 JUMP JUMPDEST SWAP1 POP PUSH2 0xC95 DUP3 DUP3 PUSH2 0xC4E JUMP JUMPDEST SWAP2 SWAP1 POP JUMP JUMPDEST PUSH1 0x0 PUSH8 0xFFFFFFFFFFFFFFFF DUP3 GT ISZERO PUSH2 0xCB5 JUMPI PUSH2 0xCB4 PUSH2 0xC1F JUMP JUMPDEST JUMPDEST PUSH2 0xCBE DUP3 PUSH2 0xA37 JUMP JUMPDEST SWAP1 POP PUSH1 0x20 DUP2 ADD SWAP1 POP SWAP2 SWAP1 POP JUMP JUMPDEST DUP3 DUP2 DUP4 CALLDATACOPY PUSH1 0x0 DUP4 DUP4 ADD MSTORE POP POP POP JUMP JUMPDEST PUSH1 0x0 PUSH2 0xCED PUSH2 0xCE8 DUP5 PUSH2 0xC9A JUMP JUMPDEST PUSH2 0xC7F JUMP JUMPDEST SWAP1 POP DUP3 DUP2 MSTORE PUSH1 0x20 DUP2 ADD DUP5 DUP5 DUP5 ADD GT ISZERO PUSH2 0xD09 JUMPI PUSH2 0xD08 PUSH2 0xC1A JUMP JUMPDEST JUMPDEST PUSH2 0xD14 DUP5 DUP3 DUP6 PUSH2 0xCCB JUMP JUMPDEST POP SWAP4 SWAP3 POP POP POP JUMP JUMPDEST PUSH1 0x0 DUP3 PUSH1 0x1F DUP4 ADD SLT PUSH2 0xD31 JUMPI PUSH2 0xD30 PUSH2 0xC15 JUMP JUMPDEST JUMPDEST DUP2 CALLDATALOAD PUSH2 0xD41 DUP5 DUP3 PUSH1 0x20 DUP7 ADD PUSH2 0xCDA JUMP JUMPDEST SWAP2 POP POP SWAP3 SWAP2 POP POP JUMP JUMPDEST PUSH1 0x0 DUP2 SWAP1 POP SWAP2 SWAP1 POP JUMP JUMPDEST PUSH2 0xD5D DUP2 PUSH2 0xD4A JUMP JUMPDEST DUP2 EQ PUSH2 0xD68 JUMPI PUSH1 0x0 DUP1 REVERT JUMPDEST POP JUMP JUMPDEST PUSH1 0x0 DUP2 CALLDATALOAD SWAP1 POP PUSH2 0xD7A DUP2 PUSH2 0xD54 JUMP JUMPDEST SWAP3 SWAP2 POP POP JUMP JUMPDEST PUSH1 0x0 DUP1 PUSH1 0x0 PUSH1 0x60 DUP5 DUP7 SUB SLT ISZERO PUSH2 0xD99 JUMPI PUSH2 0xD98 PUSH2 0xC0B JUMP JUMPDEST JUMPDEST PUSH1 0x0 DUP5 ADD CALLDATALOAD PUSH8 0xFFFFFFFFFFFFFFFF DUP2 GT ISZERO PUSH2 0xDB7 JUMPI PUSH2 0xDB6 PUSH2 0xC10 JUMP JUMPDEST JUMPDEST PUSH2 0xDC3 DUP7 DUP3 DUP8 ADD PUSH2 0xD1C JUMP JUMPDEST SWAP4 POP POP PUSH1 0x20 PUSH2 0xDD4 DUP7 DUP3 DUP8 ADD PUSH2 0xD6B JUMP JUMPDEST SWAP3 POP POP PUSH1 0x40 DUP5 ADD CALLDATALOAD PUSH8 0xFFFFFFFFFFFFFFFF DUP2 GT ISZERO PUSH2 0xDF5 JUMPI PUSH2 0xDF4 PUSH2 0xC10 JUMP JUMPDEST JUMPDEST PUSH2 0xE01 DUP7 DUP3 DUP8 ADD PUSH2 0xD1C JUMP JUMPDEST SWAP2 POP POP SWAP3 POP SWAP3 POP SWAP3 JUMP JUMPDEST PUSH1 0x0 PUSH1 0x20 DUP3 DUP5 SUB SLT ISZERO PUSH2 0xE21 JUMPI PUSH2 0xE20 PUSH2 0xC0B JUMP JUMPDEST JUMPDEST PUSH1 0x0 DUP3 ADD CALLDATALOAD PUSH8 0xFFFFFFFFFFFFFFFF DUP2 GT ISZERO PUSH2 0xE3F JUMPI PUSH2 0xE3E PUSH2 0xC10 JUMP JUMPDEST JUMPDEST PUSH2 0xE4B DUP5 DUP3 DUP6 ADD PUSH2 0xD1C JUMP JUMPDEST SWAP2 POP POP SWAP3 SWAP2 POP POP JUMP JUMPDEST PUSH2 0xE5D DUP2 PUSH2 0xD4A JUMP JUMPDEST DUP3 MSTORE POP POP JUMP JUMPDEST PUSH1 0x0 PUSH1 0x20 DUP3 ADD SWAP1 POP PUSH2 0xE78 PUSH1 0x0 DUP4 ADD DUP5 PUSH2 0xE54 JUMP JUMPDEST SWAP3 SWAP2 POP POP JUMP JUMPDEST PUSH32 0x4E487B7100000000000000000000000000000000000000000000000000000000 PUSH1 0x0 MSTORE PUSH1 0x22 PUSH1 0x4 MSTORE PUSH1 0x24 PUSH1 0x0 REVERT JUMPDEST PUSH1 0x0 PUSH1 0x2 DUP3 DIV SWAP1 POP PUSH1 0x1 DUP3 AND DUP1 PUSH2 0xEC5 JUMPI PUSH1 0x7F DUP3 AND SWAP2 POP JUMPDEST PUSH1 0x20 DUP3 LT DUP2 SUB PUSH2 0xED8 JUMPI PUSH2 0xED7 PUSH2 0xE7E JUMP JUMPDEST JUMPDEST POP SWAP2 SWAP1 POP JUMP JUMPDEST PUSH32 0x4E487B7100000000000000000000000000000000000000000000000000000000 PUSH1 0x0 MSTORE PUSH1 0x32 PUSH1 0x4 MSTORE PUSH1 0x24 PUSH1 0x0 REVERT JUMPDEST PUSH1 0x0 DUP2 SWAP1 POP SWAP3 SWAP2 POP POP JUMP JUMPDEST PUSH1 0x0 PUSH2 0xF23 DUP3 PUSH2 0x9F1 JUMP JUMPDEST PUSH2 0xF2D DUP2 DUP6 PUSH2 0xF0D JUMP JUMPDEST SWAP4 POP PUSH2 0xF3D DUP2 DUP6 PUSH1 0x20 DUP7 ADD PUSH2 0xA0D JUMP JUMPDEST DUP1 DUP5 ADD SWAP2 POP POP SWAP3 SWAP2 POP POP JUMP JUMPDEST PUSH32 0x2820000000000000000000000000000000000000000000000000000000000000 PUSH1 0x0 DUP3 ADD MSTORE POP JUMP JUMPDEST PUSH1 0x0 PUSH2 0xF7F PUSH1 0x2 DUP4 PUSH2 0xF0D JUMP JUMPDEST SWAP2 POP PUSH2 0xF8A DUP3 PUSH2 0xF49 JUMP JUMPDEST PUSH1 0x2 DUP3 ADD SWAP1 POP SWAP2 SWAP1 POP JUMP JUMPDEST PUSH1 0x0 DUP2 SWAP1 POP DUP2 PUSH1 0x0 MSTORE PUSH1 0x20 PUSH1 0x0 KECCAK256 SWAP1 POP SWAP2 SWAP1 POP JUMP JUMPDEST PUSH1 0x0 DUP2 SLOAD PUSH2 0xFB7 DUP2 PUSH2 0xEAD JUMP JUMPDEST PUSH2 0xFC1 DUP2 DUP7 PUSH2 0xF0D JUMP JUMPDEST SWAP5 POP PUSH1 0x1 DUP3 AND PUSH1 0x0 DUP2 EQ PUSH2 0xFDC JUMPI PUSH1 0x1 DUP2 EQ PUSH2 0xFF1 JUMPI PUSH2 0x1024 JUMP JUMPDEST PUSH1 0xFF NOT DUP4 AND DUP7 MSTORE DUP2 ISZERO ISZERO DUP3 MUL DUP7 ADD SWAP4 POP PUSH2 0x1024 JUMP JUMPDEST PUSH2 0xFFA DUP6 PUSH2 0xF95 JUMP JUMPDEST PUSH1 0x0 JUMPDEST DUP4 DUP2 LT ISZERO PUSH2 0x101C JUMPI DUP2 SLOAD DUP2 DUP10 ADD MSTORE PUSH1 0x1 DUP3 ADD SWAP2 POP PUSH1 0x20 DUP2 ADD SWAP1 POP PUSH2 0xFFD JUMP JUMPDEST DUP4 DUP9 ADD SWAP6 POP POP POP JUMPDEST POP POP POP SWAP3 SWAP2 POP POP JUMP JUMPDEST PUSH32 0x2C20000000000000000000000000000000000000000000000000000000000000 PUSH1 0x0 DUP3 ADD MSTORE POP JUMP JUMPDEST PUSH1 0x0 PUSH2 0x1063 PUSH1 0x2 DUP4 PUSH2 0xF0D JUMP JUMPDEST SWAP2 POP PUSH2 0x106E DUP3 PUSH2 0x102D JUMP JUMPDEST PUSH1 0x2 DUP3 ADD SWAP1 POP SWAP2 SWAP1 POP JUMP JUMPDEST PUSH32 0x2029200000000000000000000000000000000000000000000000000000000000 PUSH1 0x0 DUP3 ADD MSTORE POP JUMP JUMPDEST PUSH1 0x0 PUSH2 0x10AF PUSH1 0x3 DUP4 PUSH2 0xF0D JUMP JUMPDEST SWAP2 POP PUSH2 0x10BA DUP3 PUSH2 0x1079 JUMP JUMPDEST PUSH1 0x3 DUP3 ADD SWAP1 POP SWAP2 SWAP1 POP JUMP JUMPDEST PUSH1 0x0 PUSH2 0x10D1 DUP3 DUP7 PUSH2 0xF18 JUMP JUMPDEST SWAP2 POP PUSH2 0x10DC DUP3 PUSH2 0xF72 JUMP JUMPDEST SWAP2 POP PUSH2 0x10E8 DUP3 DUP6 PUSH2 0xFAA JUMP JUMPDEST SWAP2 POP PUSH2 0x10F3 DUP3 PUSH2 0x1056 JUMP JUMPDEST SWAP2 POP PUSH2 0x10FF DUP3 DUP5 PUSH2 0xF18 JUMP JUMPDEST SWAP2 POP PUSH2 0x110A DUP3 PUSH2 0x10A2 JUMP JUMPDEST SWAP2 POP DUP2 SWAP1 POP SWAP5 SWAP4 POP POP POP POP JUMP JUMPDEST PUSH32 0x4E487B7100000000000000000000000000000000000000000000000000000000 PUSH1 0x0 MSTORE PUSH1 0x11 PUSH1 0x4 MSTORE PUSH1 0x24 PUSH1 0x0 REVERT JUMPDEST PUSH1 0x0 PUSH2 0x1151 DUP3 PUSH2 0xD4A JUMP JUMPDEST SWAP2 POP PUSH32 0xFFFFFFFFFFFFFFFFFFFFFFFFFFFFFFFFFFFFFFFFFFFFFFFFFFFFFFFFFFFFFFFF DUP3 SUB PUSH2 0x1183 JUMPI PUSH2 0x1182 PUSH2 0x1117 JUMP JUMPDEST JUMPDEST PUSH1 0x1 DUP3 ADD SWAP1 POP SWAP2 SWAP1 POP JUMP JUMPDEST PUSH1 0x0 DUP2 SWAP1 POP SWAP2 SWAP1 POP JUMP JUMPDEST PUSH2 0x11A9 PUSH2 0x11A4 DUP3 PUSH2 0xD4A JUMP JUMPDEST PUSH2 0x118E JUMP JUMPDEST DUP3 MSTORE POP POP JUMP JUMPDEST PUSH1 0x0 PUSH2 0x11BB DUP3 DUP7 PUSH2 0xF18 JUMP JUMPDEST SWAP2 POP PUSH2 0x11C7 DUP3 DUP6 PUSH2 0x1198 JUMP JUMPDEST PUSH1 0x20 DUP3 ADD SWAP2 POP PUSH2 0x11D7 DUP3 DUP5 PUSH2 0xF18 JUMP JUMPDEST SWAP2 POP DUP2 SWAP1 POP SWAP5 SWAP4 POP POP POP POP JUMP JUMPDEST PUSH1 0x0 PUSH2 0x11F0 DUP3 DUP5 PUSH2 0xF18 JUMP JUMPDEST SWAP2 POP DUP2 SWAP1 POP SWAP3 SWAP2 POP POP JUMP JUMPDEST PUSH1 0x0 PUSH1 0x20 PUSH1 0x1F DUP4 ADD DIV SWAP1 POP SWAP2 SWAP1 POP JUMP JUMPDEST PUSH1 0x0 DUP3 DUP3 SHL SWAP1 POP SWAP3 SWAP2 POP POP JUMP JUMPDEST PUSH1 0x0 PUSH1 0x8 DUP4 MUL PUSH2 0x1248 PUSH32 0xFFFFFFFFFFFFFFFFFFFFFFFFFFFFFFFFFFFFFFFFFFFFFFFFFFFFFFFFFFFFFFFF DUP3 PUSH2 0x120B JUMP JUMPDEST PUSH2 0x1252 DUP7 DUP4 PUSH2 0x120B JUMP JUMPDEST SWAP6 POP DUP1 NOT DUP5 AND SWAP4 POP DUP1 DUP7 AND DUP5 OR SWAP3 POP POP POP SWAP4 SWAP3 POP POP POP JUMP JUMPDEST PUSH1 0x0 DUP2 SWAP1 POP SWAP2 SWAP1 POP JUMP JUMPDEST PUSH1 0x0 PUSH2 0x128F PUSH2 0x128A PUSH2 0x1285 DUP5 PUSH2 0xD4A JUMP JUMPDEST PUSH2 0x126A JUMP JUMPDEST PUSH2 0xD4A JUMP JUMPDEST SWAP1 POP SWAP2 SWAP1 POP JUMP JUMPDEST PUSH1 0x0 DUP2 SWAP1 POP SWAP2 SWAP1 POP JUMP JUMPDEST PUSH2 0x12A9 DUP4 PUSH2 0x1274 JUMP JUMPDEST PUSH2 0x12BD PUSH2 0x12B5 DUP3 PUSH2 0x1296 JUMP JUMPDEST DUP5 DUP5 SLOAD PUSH2 0x1218 JUMP JUMPDEST DUP3 SSTORE POP POP POP POP JUMP JUMPDEST PUSH1 0x0 SWAP1 JUMP JUMPDEST PUSH2 0x12D2 PUSH2 0x12C5 JUMP JUMPDEST PUSH2 0x12DD DUP2 DUP5 DUP5 PUSH2 0x12A0 JUMP JUMPDEST POP POP POP JUMP JUMPDEST JUMPDEST DUP2 DUP2 LT ISZERO PUSH2 0x1301 JUMPI PUSH2 0x12F6 PUSH1 0x0 DUP3 PUSH2 0x12CA JUMP JUMPDEST PUSH1 0x1 DUP2 ADD SWAP1 POP PUSH2 0x12E3 JUMP JUMPDEST POP POP JUMP JUMPDEST PUSH1 0x1F DUP3 GT ISZERO PUSH2 0x1346 JUMPI PUSH2 0x1317 DUP2 PUSH2 0xF95 JUMP JUMPDEST PUSH2 0x1320 DUP5 PUSH2 0x11FB JUMP JUMPDEST DUP2 ADD PUSH1 0x20 DUP6 LT ISZERO PUSH2 0x132F JUMPI DUP2 SWAP1 POP JUMPDEST PUSH2 0x1343 PUSH2 0x133B DUP6 PUSH2 0x11FB JUMP JUMPDEST DUP4 ADD DUP3 PUSH2 0x12E2 JUMP JUMPDEST POP POP JUMPDEST POP POP POP JUMP JUMPDEST PUSH1 0x0 DUP3 DUP3 SHR SWAP1 POP SWAP3 SWAP2 POP POP JUMP JUMPDEST PUSH1 0x0 PUSH2 0x1369 PUSH1 0x0 NOT DUP5 PUSH1 0x8 MUL PUSH2 0x134B JUMP JUMPDEST NOT DUP1 DUP4 AND SWAP2 POP POP SWAP3 SWAP2 POP POP JUMP JUMPDEST PUSH1 0x0 PUSH2 0x1382 DUP4 DUP4 PUSH2 0x1358 JUMP JUMPDEST SWAP2 POP DUP3 PUSH1 0x2 MUL DUP3 OR SWAP1 POP SWAP3 SWAP2 POP POP JUMP JUMPDEST PUSH2 0x139B DUP3 PUSH2 0x9F1 JUMP JUMPDEST PUSH8 0xFFFFFFFFFFFFFFFF DUP2 GT ISZERO PUSH2 0x13B4 JUMPI PUSH2 0x13B3 PUSH2 0xC1F JUMP JUMPDEST JUMPDEST PUSH2 0x13BE DUP3 SLOAD PUSH2 0xEAD JUMP JUMPDEST PUSH2 0x13C9 DUP3 DUP3 DUP6 PUSH2 0x1305 JUMP JUMPDEST PUSH1 0x0 PUSH1 0x20 SWAP1 POP PUSH1 0x1F DUP4 GT PUSH1 0x1 DUP2 EQ PUSH2 0x13FC JUMPI PUSH1 0x0 DUP5 ISZERO PUSH2 0x13EA JUMPI DUP3 DUP8 ADD MLOAD SWAP1 POP JUMPDEST PUSH2 0x13F4 DUP6 DUP3 PUSH2 0x1376 JUMP JUMPDEST DUP7 SSTORE POP PUSH2 0x145C JUMP JUMPDEST PUSH1 0x1F NOT DUP5 AND PUSH2 0x140A DUP7 PUSH2 0xF95 JUMP JUMPDEST PUSH1 0x0 JUMPDEST DUP3 DUP2 LT ISZERO PUSH2 0x1432 JUMPI DUP5 DUP10 ADD MLOAD DUP3 SSTORE PUSH1 0x1 DUP3 ADD SWAP2 POP PUSH1 0x20 DUP6 ADD SWAP5 POP PUSH1 0x20 DUP2 ADD SWAP1 POP PUSH2 0x140D JUMP JUMPDEST DUP7 DUP4 LT ISZERO PUSH2 0x144F JUMPI DUP5 DUP10 ADD MLOAD PUSH2 0x144B PUSH1 0x1F DUP10 AND DUP3 PUSH2 0x1358 JUMP JUMPDEST DUP4 SSTORE POP JUMPDEST PUSH1 0x1 PUSH1 0x2 DUP9 MUL ADD DUP9 SSTORE POP POP POP JUMPDEST POP POP POP POP POP POP JUMP JUMPDEST PUSH32 0x4E6F7420656E6F7567682063616E646964617465732E00000000000000000000 PUSH1 0x0 DUP3 ADD MSTORE POP JUMP JUMPDEST PUSH1 0x0 PUSH2 0x149A PUSH1 0x16 DUP4 PUSH2 0xB39 JUMP JUMPDEST SWAP2 POP PUSH2 0x14A5 DUP3 PUSH2 0x1464 JUMP JUMPDEST PUSH1 0x20 DUP3 ADD SWAP1 POP SWAP2 SWAP1 POP JUMP JUMPDEST PUSH1 0x0 PUSH1 0x20 DUP3 ADD SWAP1 POP DUP2 DUP2 SUB PUSH1 0x0 DUP4 ADD MSTORE PUSH2 0x14C9 DUP2 PUSH2 0x148D JUMP JUMPDEST SWAP1 POP SWAP2 SWAP1 POP JUMP JUMPDEST PUSH1 0x0 PUSH2 0x14DC DUP3 DUP5 PUSH2 0xFAA JUMP JUMPDEST SWAP2 POP DUP2 SWAP1 POP SWAP3 SWAP2 POP POP JUMP JUMPDEST PUSH1 0x0 DUP2 PUSH1 0x60 SHL SWAP1 POP SWAP2 SWAP1 POP JUMP JUMPDEST PUSH1 0x0 PUSH2 0x14FF DUP3 PUSH2 0x14E7 JUMP JUMPDEST SWAP1 POP SWAP2 SWAP1 POP JUMP JUMPDEST PUSH1 0x0 PUSH2 0x1511 DUP3 PUSH2 0x14F4 JUMP JUMPDEST SWAP1 POP SWAP2 SWAP1 POP JUMP JUMPDEST PUSH2 0x1529 PUSH2 0x1524 DUP3 PUSH2 0xBC5 JUMP JUMPDEST PUSH2 0x1506 JUMP JUMPDEST DUP3 MSTORE POP POP JUMP JUMPDEST PUSH1 0x0 PUSH2 0x153B DUP3 DUP5 PUSH2 0x1518 JUMP JUMPDEST PUSH1 0x14 DUP3 ADD SWAP2 POP DUP2 SWAP1 POP SWAP3 SWAP2 POP POP JUMP JUMPDEST PUSH32 0x566F7465722068617320616C726561647920766F7465642E0000000000000000 PUSH1 0x0 DUP3 ADD MSTORE POP JUMP JUMPDEST PUSH1 0x0 PUSH2 0x1580 PUSH1 0x18 DUP4 PUSH2 0xB39 JUMP JUMPDEST SWAP2 POP PUSH2 0x158B DUP3 PUSH2 0x154A JUMP JUMPDEST PUSH1 0x20 DUP3 ADD SWAP1 POP SWAP2 SWAP1 POP JUMP JUMPDEST PUSH1 0x0 PUSH1 0x20 DUP3 ADD SWAP1 POP DUP2 DUP2 SUB PUSH1 0x0 DUP4 ADD MSTORE PUSH2 0x15AF DUP2 PUSH2 0x1573 JUMP JUMPDEST SWAP1 POP SWAP2 SWAP1 POP JUMP JUMPDEST PUSH32 0x4E487B7100000000000000000000000000000000000000000000000000000000 PUSH1 0x0 MSTORE PUSH1 0x12 PUSH1 0x4 MSTORE PUSH1 0x24 PUSH1 0x0 REVERT JUMPDEST PUSH1 0x0 PUSH2 0x15F0 DUP3 PUSH2 0xD4A JUMP JUMPDEST SWAP2 POP PUSH2 0x15FB DUP4 PUSH2 0xD4A JUMP JUMPDEST SWAP3 POP DUP3 PUSH2 0x160B JUMPI PUSH2 0x160A PUSH2 0x15B6 JUMP JUMPDEST JUMPDEST DUP3 DUP3 DIV SWAP1 POP SWAP3 SWAP2 POP POP JUMP JUMPDEST PUSH1 0x0 PUSH2 0x1621 DUP3 PUSH2 0xD4A JUMP JUMPDEST SWAP2 POP PUSH2 0x162C DUP4 PUSH2 0xD4A JUMP JUMPDEST SWAP3 POP DUP3 DUP3 SUB SWAP1 POP DUP2 DUP2 GT ISZERO PUSH2 0x1644 JUMPI PUSH2 0x1643 PUSH2 0x1117 JUMP JUMPDEST JUMPDEST SWAP3 SWAP2 POP POP JUMP JUMPDEST PUSH1 0x0 PUSH2 0x1655 DUP3 PUSH2 0xD4A JUMP JUMPDEST SWAP2 POP PUSH2 0x1660 DUP4 PUSH2 0xD4A JUMP JUMPDEST SWAP3 POP DUP3 DUP3 MUL PUSH2 0x166E DUP2 PUSH2 0xD4A JUMP JUMPDEST SWAP2 POP DUP3 DUP3 DIV DUP5 EQ DUP4 ISZERO OR PUSH2 0x1685 JUMPI PUSH2 0x1684 PUSH2 0x1117 JUMP JUMPDEST JUMPDEST POP SWAP3 SWAP2 POP POP JUMP JUMPDEST PUSH1 0x0 PUSH1 0xFF DUP3 AND SWAP1 POP SWAP2 SWAP1 POP JUMP JUMPDEST PUSH1 0x0 PUSH2 0x16A4 DUP3 PUSH2 0x168C JUMP JUMPDEST SWAP2 POP PUSH2 0x16AF DUP4 PUSH2 0x168C JUMP JUMPDEST SWAP3 POP DUP3 DUP3 ADD SWAP1 POP PUSH1 0xFF DUP2 GT ISZERO PUSH2 0x16C8 JUMPI PUSH2 0x16C7 PUSH2 0x1117 JUMP JUMPDEST JUMPDEST SWAP3 SWAP2 POP POP JUMP INVALID LOG2 PUSH5 0x6970667358 0x22 SLT KECCAK256 PUSH7 0x1DAF6E4AC29CB8 0xA6 SWAP7 0xC2 0xA8 CALLDATALOAD SWAP5 LOG4 0xDD DUP4 PUSH18 0xEA6746C31D697F45C01953BFE91E64736F6C PUSH4 0x43000812 STOP CALLER "
				},
				"gasEstimates": {
					"creation": {
						"codeDepositCost": "1178400",
						"executionCost": "25493",
						"totalCost": "1203893"
					},
					"external": {
						"getCandidateVotes(string)": "infinite",
						"getCandidates()": "infinite",
						"getVoteResult()": "infinite",
						"owner()": "2556",
						"representate(string,uint256,string)": "infinite",
						"vote(string)": "infinite",
						"winner()": "infinite"
					},
					"internal": {
						"uint2str(uint256)": "infinite"
					}
				},
				"methodIdentifiers": {
					"getCandidateVotes(string)": "e962414f",
					"getCandidates()": "06a49fce",
					"getVoteResult()": "8742fc3b",
					"owner()": "8da5cb5b",
					"representate(string,uint256,string)": "c9f14e18",
					"vote(string)": "fc36e15b",
					"winner()": "dfbf53ae"
				}
			},
			"storageLayout": {
				"storage": [
					{
						"astId": 3,
						"contract": "contracts/vote (2).sol:VotingContract",
						"label": "owner",
						"offset": 0,
						"slot": "0",
						"type": "t_address"
					},
					{
						"astId": 7,
						"contract": "contracts/vote (2).sol:VotingContract",
						"label": "candidateId",
						"offset": 0,
						"slot": "1",
						"type": "t_mapping(t_string_memory_ptr,t_bytes32)"
					},
					{
						"astId": 11,
						"contract": "contracts/vote (2).sol:VotingContract",
						"label": "candidateVotes",
						"offset": 0,
						"slot": "2",
						"type": "t_mapping(t_string_memory_ptr,t_uint256)"
					},
					{
						"astId": 14,
						"contract": "contracts/vote (2).sol:VotingContract",
						"label": "candidates",
						"offset": 0,
						"slot": "3",
						"type": "t_array(t_string_storage)dyn_storage"
					},
					{
						"astId": 17,
						"contract": "contracts/vote (2).sol:VotingContract",
						"label": "votants",
						"offset": 0,
						"slot": "4",
						"type": "t_array(t_bytes32)dyn_storage"
					}
				],
				"types": {
					"t_address": {
						"encoding": "inplace",
						"label": "address",
						"numberOfBytes": "20"
					},
					"t_array(t_bytes32)dyn_storage": {
						"base": "t_bytes32",
						"encoding": "dynamic_array",
						"label": "bytes32[]",
						"numberOfBytes": "32"
					},
					"t_array(t_string_storage)dyn_storage": {
						"base": "t_string_storage",
						"encoding": "dynamic_array",
						"label": "string[]",
						"numberOfBytes": "32"
					},
					"t_bytes32": {
						"encoding": "inplace",
						"label": "bytes32",
						"numberOfBytes": "32"
					},
					"t_mapping(t_string_memory_ptr,t_bytes32)": {
						"encoding": "mapping",
						"key": "t_string_memory_ptr",
						"label": "mapping(string => bytes32)",
						"numberOfBytes": "32",
						"value": "t_bytes32"
					},
					"t_mapping(t_string_memory_ptr,t_uint256)": {
						"encoding": "mapping",
						"key": "t_string_memory_ptr",
						"label": "mapping(string => uint256)",
						"numberOfBytes": "32",
						"value": "t_uint256"
					},
					"t_string_memory_ptr": {
						"encoding": "bytes",
						"label": "string",
						"numberOfBytes": "32"
					},
					"t_string_storage": {
						"encoding": "bytes",
						"label": "string",
						"numberOfBytes": "32"
					},
					"t_uint256": {
						"encoding": "inplace",
						"label": "uint256",
						"numberOfBytes": "32"
					}
				}
			},
			"userdoc": {
				"kind": "user",
				"methods": {},
				"version": 1
			}
		}
	}
}